{"abi":[{"type":"constructor","inputs":[{"name":"_entryPoint","type":"address","internalType":"contract EntryPoint"},{"name":"_verifier","type":"address","internalType":"contract Verifier"}],"stateMutability":"nonpayable"},{"type":"function","name":"entryPoint","inputs":[],"outputs":[{"name":"","type":"address","internalType":"contract EntryPoint"}],"stateMutability":"view"},{"type":"function","name":"mintWallet","inputs":[{"name":"a","type":"uint256[2]","internalType":"uint256[2]"},{"name":"b","type":"uint256[2][2]","internalType":"uint256[2][2]"},{"name":"c","type":"uint256[2]","internalType":"uint256[2]"},{"name":"pubSignals","type":"uint256[7]","internalType":"uint256[7]"},{"name":"owner","type":"address","internalType":"address"}],"outputs":[{"name":"wallet","type":"address","internalType":"address"}],"stateMutability":"nonpayable"},{"type":"function","name":"verifier","inputs":[],"outputs":[{"name":"","type":"address","internalType":"contract Verifier"}],"stateMutability":"view"},{"type":"function","name":"walletOf","inputs":[{"name":"","type":"address","internalType":"address"}],"outputs":[{"name":"","type":"address","internalType":"address"}],"stateMutability":"view"},{"type":"event","name":"WalletMinted","inputs":[{"name":"owner","type":"address","indexed":true,"internalType":"address"},{"name":"wallet","type":"address","indexed":true,"internalType":"address"}],"anonymous":false}],"bytecode":{"object":"0x60c060405234801561000f575f5ffd5b506040516116e13803806116e18339818101604052810190610031919061015b565b8173ffffffffffffffffffffffffffffffffffffffff1660808173ffffffffffffffffffffffffffffffffffffffff16815250508073ffffffffffffffffffffffffffffffffffffffff1660a08173ffffffffffffffffffffffffffffffffffffffff16815250505050610199565b5f5ffd5b5f73ffffffffffffffffffffffffffffffffffffffff82169050919050565b5f6100cd826100a4565b9050919050565b5f6100de826100c3565b9050919050565b6100ee816100d4565b81146100f8575f5ffd5b50565b5f81519050610109816100e5565b92915050565b5f610119826100a4565b9050919050565b5f61012a8261010f565b9050919050565b61013a81610120565b8114610144575f5ffd5b50565b5f8151905061015581610131565b92915050565b5f5f60408385031215610171576101706100a0565b5b5f61017e858286016100fb565b925050602061018f85828601610147565b9150509250929050565b60805160a0516115196101c85f395f818161011b015261022d01525f818161013f015261033701526115195ff3fe608060405234801561000f575f5ffd5b506004361061004a575f3560e01c80631982640c1461004e5780632b7ac3f31461007e578063b0d691fe1461009c578063fda39a32146100ba575b5f5ffd5b610068600480360381019061006391906104d7565b6100ea565b6040516100759190610511565b60405180910390f35b610086610119565b6040516100939190610585565b60405180910390f35b6100a461013d565b6040516100b191906105cf565b60405180910390f35b6100d460048036038101906100cf919061064f565b610161565b6040516100e19190610511565b60405180910390f35b5f602052805f5260405f205f915054906101000a900473ffffffffffffffffffffffffffffffffffffffff1681565b7f000000000000000000000000000000000000000000000000000000000000000081565b7f000000000000000000000000000000000000000000000000000000000000000081565b5f5f73ffffffffffffffffffffffffffffffffffffffff165f5f3373ffffffffffffffffffffffffffffffffffffffff1673ffffffffffffffffffffffffffffffffffffffff1681526020019081526020015f205f9054906101000a900473ffffffffffffffffffffffffffffffffffffffff1673ffffffffffffffffffffffffffffffffffffffff161461022b576040517f08c379a000000000000000000000000000000000000000000000000000000000815260040161022290610723565b60405180910390fd5b7f000000000000000000000000000000000000000000000000000000000000000073ffffffffffffffffffffffffffffffffffffffff1663c894e757878787876040518563ffffffff1660e01b815260040161028a9493929190610822565b602060405180830381865afa1580156102a5573d5f5f3e3d5ffd5b505050506040513d601f19601f820116820180604052508101906102c9919061089c565b610308576040517f08c379a00000000000000000000000000000000000000000000000000000000081526004016102ff90610911565b60405180910390fd5b5f823360405160200161031c929190610974565b604051602081830303815290604052805190602001209050807f0000000000000000000000000000000000000000000000000000000000000000846040516103639061046c565b61036e9291906109bf565b8190604051809103905ff590508015801561038b573d5f5f3e3d5ffd5b509150815f5f3373ffffffffffffffffffffffffffffffffffffffff1673ffffffffffffffffffffffffffffffffffffffff1681526020019081526020015f205f6101000a81548173ffffffffffffffffffffffffffffffffffffffff021916908373ffffffffffffffffffffffffffffffffffffffff1602179055508173ffffffffffffffffffffffffffffffffffffffff168373ffffffffffffffffffffffffffffffffffffffff167f73e8e01c6120c8daad5aa83307027ad4145ebd31d1a4e04c41404a0e2f3102ac60405160405180910390a35095945050505050565b610afd806109e783390190565b5f5ffd5b5f73ffffffffffffffffffffffffffffffffffffffff82169050919050565b5f6104a68261047d565b9050919050565b6104b68161049c565b81146104c0575f5ffd5b50565b5f813590506104d1816104ad565b92915050565b5f602082840312156104ec576104eb610479565b5b5f6104f9848285016104c3565b91505092915050565b61050b8161049c565b82525050565b5f6020820190506105245f830184610502565b92915050565b5f819050919050565b5f61054d6105486105438461047d565b61052a565b61047d565b9050919050565b5f61055e82610533565b9050919050565b5f61056f82610554565b9050919050565b61057f81610565565b82525050565b5f6020820190506105985f830184610576565b92915050565b5f6105a882610533565b9050919050565b5f6105b98261059e565b9050919050565b6105c9816105af565b82525050565b5f6020820190506105e25f8301846105c0565b92915050565b5f5ffd5b5f81905082602060020282011115610607576106066105e8565b5b92915050565b5f81905082604060020282011115610628576106276105e8565b5b92915050565b5f81905082602060070282011115610649576106486105e8565b5b92915050565b5f5f5f5f5f610200868803121561066957610668610479565b5b5f610676888289016105ec565b95505060406106878882890161060d565b94505060c0610698888289016105ec565b9350506101006106aa8882890161062e565b9250506101e06106bc888289016104c3565b9150509295509295909350565b5f82825260208201905092915050565b7f466163746f72793a20616c7265616479206d696e7465640000000000000000005f82015250565b5f61070d6017836106c9565b9150610718826106d9565b602082019050919050565b5f6020820190508181035f83015261073a81610701565b9050919050565b82818337505050565b61075660408383610741565b5050565b5f60029050919050565b5f81905092915050565b5f819050919050565b61078360408383610741565b5050565b5f6107928383610777565b60408301905092915050565b5f82905092915050565b5f604082019050919050565b6107bd8161075a565b6107c78184610764565b92506107d28261076e565b805f5b8381101561080a576107e7828461079e565b6107f18782610787565b96506107fc836107a8565b9250506001810190506107d5565b505050505050565b61081e60e08383610741565b5050565b5f6101e0820190506108365f83018761074a565b61084360408301866107b4565b61085060c083018561074a565b61085e610100830184610812565b95945050505050565b5f8115159050919050565b61087b81610867565b8114610885575f5ffd5b50565b5f8151905061089681610872565b92915050565b5f602082840312156108b1576108b0610479565b5b5f6108be84828501610888565b91505092915050565b7f466163746f72793a20696e76616c69642070726f6f66000000000000000000005f82015250565b5f6108fb6016836106c9565b9150610906826108c7565b602082019050919050565b5f6020820190508181035f830152610928816108ef565b9050919050565b5f8160601b9050919050565b5f6109458261092f565b9050919050565b5f6109568261093b565b9050919050565b61096e6109698261049c565b61094c565b82525050565b5f61097f828561095d565b60148201915061098f828461095d565b6014820191508190509392505050565b5f6109a982610554565b9050919050565b6109b98161099f565b82525050565b5f6040820190506109d25f8301856109b0565b6109df6020830184610502565b939250505056fe60a060405234801561000f575f5ffd5b50604051610afd380380610afd83398181016040528101906100319190610144565b8173ffffffffffffffffffffffffffffffffffffffff1660808173ffffffffffffffffffffffffffffffffffffffff1681525050805f5f6101000a81548173ffffffffffffffffffffffffffffffffffffffff021916908373ffffffffffffffffffffffffffffffffffffffff1602179055505050610182565b5f5ffd5b5f73ffffffffffffffffffffffffffffffffffffffff82169050919050565b5f6100d8826100af565b9050919050565b5f6100e9826100ce565b9050919050565b6100f9816100df565b8114610103575f5ffd5b50565b5f81519050610114816100f0565b92915050565b610123816100ce565b811461012d575f5ffd5b50565b5f8151905061013e8161011a565b92915050565b5f5f6040838503121561015a576101596100ab565b5b5f61016785828601610106565b925050602061017885828601610130565b9150509250929050565b60805161096361019a5f395f61016001526109635ff3fe608060405260043610610042575f3560e01c806319822f7c1461004d5780638da5cb5b14610089578063b0d691fe146100b3578063d087d288146100dd57610049565b3661004957005b5f5ffd5b348015610058575f5ffd5b50610073600480360381019061006e91906104e9565b610107565b6040516100809190610564565b60405180910390f35b348015610094575f5ffd5b5061009d610139565b6040516100aa91906105bc565b60405180910390f35b3480156100be575f5ffd5b506100c761015d565b6040516100d49190610630565b60405180910390f35b3480156100e8575f5ffd5b506100f1610184565b6040516100fe9190610564565b60405180910390f35b5f61011061020b565b61011a8484610282565b905061012984602001356102f6565b610132826102f9565b9392505050565b5f5f9054906101000a900473ffffffffffffffffffffffffffffffffffffffff1681565b5f7f0000000000000000000000000000000000000000000000000000000000000000905090565b5f61018d61015d565b73ffffffffffffffffffffffffffffffffffffffff166335567e1a305f6040518363ffffffff1660e01b81526004016101c79291906106a5565b602060405180830381865afa1580156101e2573d5f5f3e3d5ffd5b505050506040513d601f19601f8201168201806040525081019061020691906106e0565b905090565b61021361015d565b73ffffffffffffffffffffffffffffffffffffffff163373ffffffffffffffffffffffffffffffffffffffff1614610280576040517f08c379a000000000000000000000000000000000000000000000000000000000815260040161027790610765565b60405180910390fd5b565b5f6102df8284806101000190610298919061078f565b8080601f0160208091040260200160405190810160405280939291908181526020018383808284375f81840152601f19601f82011690508083019250505050505050610390565b6102ec57600190506102f0565b5f90505b92915050565b50565b5f811461038d575f3373ffffffffffffffffffffffffffffffffffffffff16827fffffffffffffffffffffffffffffffffffffffffffffffffffffffffffffffff906040516103479061081e565b5f60405180830381858888f193505050503d805f8114610382576040519150601f19603f3d011682016040523d82523d5f602084013e610387565b606091505b50509050505b50565b5f5f5f5f848060200190518101906103a8919061087c565b9250925092505f6001878585856040515f81526020016040526040516103d194939291906108ea565b6020604051602081039080840390855afa1580156103f1573d5f5f3e3d5ffd5b5050506020604051035190505f5f9054906101000a900473ffffffffffffffffffffffffffffffffffffffff1673ffffffffffffffffffffffffffffffffffffffff168173ffffffffffffffffffffffffffffffffffffffff161494505050505092915050565b5f5ffd5b5f5ffd5b5f5ffd5b5f610120828403121561047a57610479610460565b5b81905092915050565b5f819050919050565b61049581610483565b811461049f575f5ffd5b50565b5f813590506104b08161048c565b92915050565b5f819050919050565b6104c8816104b6565b81146104d2575f5ffd5b50565b5f813590506104e3816104bf565b92915050565b5f5f5f60608486031215610500576104ff610458565b5b5f84013567ffffffffffffffff81111561051d5761051c61045c565b5b61052986828701610464565b935050602061053a868287016104a2565b925050604061054b868287016104d5565b9150509250925092565b61055e816104b6565b82525050565b5f6020820190506105775f830184610555565b92915050565b5f73ffffffffffffffffffffffffffffffffffffffff82169050919050565b5f6105a68261057d565b9050919050565b6105b68161059c565b82525050565b5f6020820190506105cf5f8301846105ad565b92915050565b5f819050919050565b5f6105f86105f36105ee8461057d565b6105d5565b61057d565b9050919050565b5f610609826105de565b9050919050565b5f61061a826105ff565b9050919050565b61062a81610610565b82525050565b5f6020820190506106435f830184610621565b92915050565b5f819050919050565b5f77ffffffffffffffffffffffffffffffffffffffffffffffff82169050919050565b5f61068f61068a61068584610649565b6105d5565b610652565b9050919050565b61069f81610675565b82525050565b5f6040820190506106b85f8301856105ad565b6106c56020830184610696565b9392505050565b5f815190506106da816104bf565b92915050565b5f602082840312156106f5576106f4610458565b5b5f610702848285016106cc565b91505092915050565b5f82825260208201905092915050565b7f6163636f756e743a206e6f742066726f6d20456e747279506f696e74000000005f82015250565b5f61074f601c8361070b565b915061075a8261071b565b602082019050919050565b5f6020820190508181035f83015261077c81610743565b9050919050565b5f5ffd5b5f5ffd5b5f5ffd5b5f5f833560016020038436030381126107ab576107aa610783565b5b80840192508235915067ffffffffffffffff8211156107cd576107cc610787565b5b6020830192506001820236038313156107e9576107e861078b565b5b509250929050565b5f81905092915050565b50565b5f6108095f836107f1565b9150610814826107fb565b5f82019050919050565b5f610828826107fe565b9150819050919050565b5f60ff82169050919050565b61084781610832565b8114610851575f5ffd5b50565b5f815190506108628161083e565b92915050565b5f815190506108768161048c565b92915050565b5f5f5f6060848603121561089357610892610458565b5b5f6108a086828701610854565b93505060206108b186828701610868565b92505060406108c286828701610868565b9150509250925092565b6108d581610483565b82525050565b6108e481610832565b82525050565b5f6080820190506108fd5f8301876108cc565b61090a60208301866108db565b61091760408301856108cc565b61092460608301846108cc565b9594505050505056fea26469706673582212209146a2de6e7925d5f7063b3553bbc35676e155456da1bfd1575da3db009e0fbc64736f6c634300081c0033a2646970667358221220423440d38b0847f54d7c66ec1c62e6281ab30a0bbcf2c0c77f023f8c059c41f564736f6c634300081c0033","linkReferences":{}},"methodIdentifiers":{"entryPoint()":"b0d691fe","mintWallet(uint256[2],uint256[2][2],uint256[2],uint256[7],address)":"fda39a32","verifier()":"2b7ac3f3","walletOf(address)":"1982640c"},"id":4}