{"abi":[{"type":"constructor","inputs":[{"name":"_entryPoint","type":"address","internalType":"contract EntryPoint"},{"name":"_verifier","type":"address","internalType":"contract Verifier"}],"stateMutability":"nonpayable"},{"type":"function","name":"entryPoint","inputs":[],"outputs":[{"name":"","type":"address","internalType":"contract EntryPoint"}],"stateMutability":"view"},{"type":"function","name":"mintWallet","inputs":[{"name":"a","type":"uint256[2]","internalType":"uint256[2]"},{"name":"b","type":"uint256[2][2]","internalType":"uint256[2][2]"},{"name":"c","type":"uint256[2]","internalType":"uint256[2]"},{"name":"pubSignals","type":"uint256[]","internalType":"uint256[]"},{"name":"owner","type":"address","internalType":"address"}],"outputs":[{"name":"wallet","type":"address","internalType":"address"}],"stateMutability":"nonpayable"},{"type":"function","name":"verifier","inputs":[],"outputs":[{"name":"","type":"address","internalType":"contract Verifier"}],"stateMutability":"view"},{"type":"function","name":"walletOf","inputs":[{"name":"","type":"address","internalType":"address"}],"outputs":[{"name":"","type":"address","internalType":"address"}],"stateMutability":"view"},{"type":"event","name":"WalletMinted","inputs":[{"name":"owner","type":"address","indexed":true,"internalType":"address"},{"name":"wallet","type":"address","indexed":true,"internalType":"address"}],"anonymous":false}],"bytecode":{"object":"0x60c060405234801561000f575f5ffd5b506040516117ab3803806117ab8339818101604052810190610031919061015b565b8173ffffffffffffffffffffffffffffffffffffffff1660808173ffffffffffffffffffffffffffffffffffffffff16815250508073ffffffffffffffffffffffffffffffffffffffff1660a08173ffffffffffffffffffffffffffffffffffffffff16815250505050610199565b5f5ffd5b5f73ffffffffffffffffffffffffffffffffffffffff82169050919050565b5f6100cd826100a4565b9050919050565b5f6100de826100c3565b9050919050565b6100ee816100d4565b81146100f8575f5ffd5b50565b5f81519050610109816100e5565b92915050565b5f610119826100a4565b9050919050565b5f61012a8261010f565b9050919050565b61013a81610120565b8114610144575f5ffd5b50565b5f8151905061015581610131565b92915050565b5f5f60408385031215610171576101706100a0565b5b5f61017e858286016100fb565b925050602061018f85828601610147565b9150509250929050565b60805160a0516115e36101c85f395f818161011b015261020901525f8181610315015261044d01526115e35ff3fe608060405234801561000f575f5ffd5b506004361061004a575f3560e01c80631982640c1461004e5780632b7ac3f31461007e5780636fd63b591461009c578063b0d691fe146100cc575b5f5ffd5b610068600480360381019061006391906104de565b6100ea565b6040516100759190610518565b60405180910390f35b610086610119565b604051610093919061058c565b60405180910390f35b6100b660048036038101906100b19190610648565b61013d565b6040516100c39190610518565b60405180910390f35b6100d461044b565b6040516100e19190610712565b60405180910390f35b5f602052805f5260405f205f915054906101000a900473ffffffffffffffffffffffffffffffffffffffff1681565b7f000000000000000000000000000000000000000000000000000000000000000081565b5f5f73ffffffffffffffffffffffffffffffffffffffff165f5f3373ffffffffffffffffffffffffffffffffffffffff1673ffffffffffffffffffffffffffffffffffffffff1681526020019081526020015f205f9054906101000a900473ffffffffffffffffffffffffffffffffffffffff1673ffffffffffffffffffffffffffffffffffffffff1614610207576040517f08c379a00000000000000000000000000000000000000000000000000000000081526004016101fe90610785565b60405180910390fd5b7f000000000000000000000000000000000000000000000000000000000000000073ffffffffffffffffffffffffffffffffffffffff1663c32e370e88888888886040518663ffffffff1660e01b81526004016102689594939291906108e3565b602060405180830381865afa158015610283573d5f5f3e3d5ffd5b505050506040513d601f19601f820116820180604052508101906102a79190610966565b6102e6576040517f08c379a00000000000000000000000000000000000000000000000000000000081526004016102dd906109db565b60405180910390fd5b5f82336040516020016102fa929190610a3e565b604051602081830303815290604052805190602001209050807f0000000000000000000000000000000000000000000000000000000000000000846040516103419061046f565b61034c929190610a89565b8190604051809103905ff5905080158015610369573d5f5f3e3d5ffd5b509150815f5f3373ffffffffffffffffffffffffffffffffffffffff1673ffffffffffffffffffffffffffffffffffffffff1681526020019081526020015f205f6101000a81548173ffffffffffffffffffffffffffffffffffffffff021916908373ffffffffffffffffffffffffffffffffffffffff1602179055508173ffffffffffffffffffffffffffffffffffffffff168373ffffffffffffffffffffffffffffffffffffffff167f73e8e01c6120c8daad5aa83307027ad4145ebd31d1a4e04c41404a0e2f3102ac60405160405180910390a3509695505050505050565b7f000000000000000000000000000000000000000000000000000000000000000081565b610afd80610ab183390190565b5f5ffd5b5f5ffd5b5f73ffffffffffffffffffffffffffffffffffffffff82169050919050565b5f6104ad82610484565b9050919050565b6104bd816104a3565b81146104c7575f5ffd5b50565b5f813590506104d8816104b4565b92915050565b5f602082840312156104f3576104f261047c565b5b5f610500848285016104ca565b91505092915050565b610512816104a3565b82525050565b5f60208201905061052b5f830184610509565b92915050565b5f819050919050565b5f61055461054f61054a84610484565b610531565b610484565b9050919050565b5f6105658261053a565b9050919050565b5f6105768261055b565b9050919050565b6105868161056c565b82525050565b5f60208201905061059f5f83018461057d565b92915050565b5f5ffd5b5f819050826020600202820111156105c4576105c36105a5565b5b92915050565b5f819050826040600202820111156105e5576105e46105a5565b5b92915050565b5f5ffd5b5f5ffd5b5f5f83601f840112610608576106076105eb565b5b8235905067ffffffffffffffff811115610625576106246105ef565b5b602083019150836020820283011115610641576106406105a5565b5b9250929050565b5f5f5f5f5f5f61014087890312156106635761066261047c565b5b5f61067089828a016105a9565b965050604061068189828a016105ca565b95505060c061069289828a016105a9565b94505061010087013567ffffffffffffffff8111156106b4576106b3610480565b5b6106c089828a016105f3565b93509350506101206106d489828a016104ca565b9150509295509295509295565b5f6106eb8261053a565b9050919050565b5f6106fc826106e1565b9050919050565b61070c816106f2565b82525050565b5f6020820190506107255f830184610703565b92915050565b5f82825260208201905092915050565b7f466163746f72793a20616c7265616479206d696e7465640000000000000000005f82015250565b5f61076f60178361072b565b915061077a8261073b565b602082019050919050565b5f6020820190508181035f83015261079c81610763565b9050919050565b82818337505050565b6107b8604083836107a3565b5050565b5f60029050919050565b5f81905092915050565b5f819050919050565b6107e5604083836107a3565b5050565b5f6107f483836107d9565b60408301905092915050565b5f82905092915050565b5f604082019050919050565b61081f816107bc565b61082981846107c6565b9250610834826107d0565b805f5b8381101561086c576108498284610800565b61085387826107e9565b965061085e8361080a565b925050600181019050610837565b505050505050565b5f82825260208201905092915050565b5f5ffd5b5f6108938385610874565b93507f07ffffffffffffffffffffffffffffffffffffffffffffffffffffffffffffff8311156108c6576108c5610884565b5b6020830292506108d78385846107a3565b82840190509392505050565b5f610120820190506108f75f8301886107ac565b6109046040830187610816565b61091160c08301866107ac565b818103610100830152610925818486610888565b90509695505050505050565b5f8115159050919050565b61094581610931565b811461094f575f5ffd5b50565b5f815190506109608161093c565b92915050565b5f6020828403121561097b5761097a61047c565b5b5f61098884828501610952565b91505092915050565b7f466163746f72793a20696e76616c69642070726f6f66000000000000000000005f82015250565b5f6109c560168361072b565b91506109d082610991565b602082019050919050565b5f6020820190508181035f8301526109f2816109b9565b9050919050565b5f8160601b9050919050565b5f610a0f826109f9565b9050919050565b5f610a2082610a05565b9050919050565b610a38610a33826104a3565b610a16565b82525050565b5f610a498285610a27565b601482019150610a598284610a27565b6014820191508190509392505050565b5f610a738261055b565b9050919050565b610a8381610a69565b82525050565b5f604082019050610a9c5f830185610a7a565b610aa96020830184610509565b939250505056fe60a060405234801561000f575f5ffd5b50604051610afd380380610afd83398181016040528101906100319190610144565b8173ffffffffffffffffffffffffffffffffffffffff1660808173ffffffffffffffffffffffffffffffffffffffff1681525050805f5f6101000a81548173ffffffffffffffffffffffffffffffffffffffff021916908373ffffffffffffffffffffffffffffffffffffffff1602179055505050610182565b5f5ffd5b5f73ffffffffffffffffffffffffffffffffffffffff82169050919050565b5f6100d8826100af565b9050919050565b5f6100e9826100ce565b9050919050565b6100f9816100df565b8114610103575f5ffd5b50565b5f81519050610114816100f0565b92915050565b610123816100ce565b811461012d575f5ffd5b50565b5f8151905061013e8161011a565b92915050565b5f5f6040838503121561015a576101596100ab565b5b5f61016785828601610106565b925050602061017885828601610130565b9150509250929050565b60805161096361019a5f395f61016001526109635ff3fe608060405260043610610042575f3560e01c806319822f7c1461004d5780638da5cb5b14610089578063b0d691fe146100b3578063d087d288146100dd57610049565b3661004957005b5f5ffd5b348015610058575f5ffd5b50610073600480360381019061006e91906104e9565b610107565b6040516100809190610564565b60405180910390f35b348015610094575f5ffd5b5061009d610139565b6040516100aa91906105bc565b60405180910390f35b3480156100be575f5ffd5b506100c761015d565b6040516100d49190610630565b60405180910390f35b3480156100e8575f5ffd5b506100f1610184565b6040516100fe9190610564565b60405180910390f35b5f61011061020b565b61011a8484610282565b905061012984602001356102f6565b610132826102f9565b9392505050565b5f5f9054906101000a900473ffffffffffffffffffffffffffffffffffffffff1681565b5f7f0000000000000000000000000000000000000000000000000000000000000000905090565b5f61018d61015d565b73ffffffffffffffffffffffffffffffffffffffff166335567e1a305f6040518363ffffffff1660e01b81526004016101c79291906106a5565b602060405180830381865afa1580156101e2573d5f5f3e3d5ffd5b505050506040513d601f19601f8201168201806040525081019061020691906106e0565b905090565b61021361015d565b73ffffffffffffffffffffffffffffffffffffffff163373ffffffffffffffffffffffffffffffffffffffff1614610280576040517f08c379a000000000000000000000000000000000000000000000000000000000815260040161027790610765565b60405180910390fd5b565b5f6102df8284806101000190610298919061078f565b8080601f0160208091040260200160405190810160405280939291908181526020018383808284375f81840152601f19601f82011690508083019250505050505050610390565b6102ec57600190506102f0565b5f90505b92915050565b50565b5f811461038d575f3373ffffffffffffffffffffffffffffffffffffffff16827fffffffffffffffffffffffffffffffffffffffffffffffffffffffffffffffff906040516103479061081e565b5f60405180830381858888f193505050503d805f8114610382576040519150601f19603f3d011682016040523d82523d5f602084013e610387565b606091505b50509050505b50565b5f5f5f5f848060200190518101906103a8919061087c565b9250925092505f6001878585856040515f81526020016040526040516103d194939291906108ea565b6020604051602081039080840390855afa1580156103f1573d5f5f3e3d5ffd5b5050506020604051035190505f5f9054906101000a900473ffffffffffffffffffffffffffffffffffffffff1673ffffffffffffffffffffffffffffffffffffffff168173ffffffffffffffffffffffffffffffffffffffff161494505050505092915050565b5f5ffd5b5f5ffd5b5f5ffd5b5f610120828403121561047a57610479610460565b5b81905092915050565b5f819050919050565b61049581610483565b811461049f575f5ffd5b50565b5f813590506104b08161048c565b92915050565b5f819050919050565b6104c8816104b6565b81146104d2575f5ffd5b50565b5f813590506104e3816104bf565b92915050565b5f5f5f60608486031215610500576104ff610458565b5b5f84013567ffffffffffffffff81111561051d5761051c61045c565b5b61052986828701610464565b935050602061053a868287016104a2565b925050604061054b868287016104d5565b9150509250925092565b61055e816104b6565b82525050565b5f6020820190506105775f830184610555565b92915050565b5f73ffffffffffffffffffffffffffffffffffffffff82169050919050565b5f6105a68261057d565b9050919050565b6105b68161059c565b82525050565b5f6020820190506105cf5f8301846105ad565b92915050565b5f819050919050565b5f6105f86105f36105ee8461057d565b6105d5565b61057d565b9050919050565b5f610609826105de565b9050919050565b5f61061a826105ff565b9050919050565b61062a81610610565b82525050565b5f6020820190506106435f830184610621565b92915050565b5f819050919050565b5f77ffffffffffffffffffffffffffffffffffffffffffffffff82169050919050565b5f61068f61068a61068584610649565b6105d5565b610652565b9050919050565b61069f81610675565b82525050565b5f6040820190506106b85f8301856105ad565b6106c56020830184610696565b9392505050565b5f815190506106da816104bf565b92915050565b5f602082840312156106f5576106f4610458565b5b5f610702848285016106cc565b91505092915050565b5f82825260208201905092915050565b7f6163636f756e743a206e6f742066726f6d20456e747279506f696e74000000005f82015250565b5f61074f601c8361070b565b915061075a8261071b565b602082019050919050565b5f6020820190508181035f83015261077c81610743565b9050919050565b5f5ffd5b5f5ffd5b5f5ffd5b5f5f833560016020038436030381126107ab576107aa610783565b5b80840192508235915067ffffffffffffffff8211156107cd576107cc610787565b5b6020830192506001820236038313156107e9576107e861078b565b5b509250929050565b5f81905092915050565b50565b5f6108095f836107f1565b9150610814826107fb565b5f82019050919050565b5f610828826107fe565b9150819050919050565b5f60ff82169050919050565b61084781610832565b8114610851575f5ffd5b50565b5f815190506108628161083e565b92915050565b5f815190506108768161048c565b92915050565b5f5f5f6060848603121561089357610892610458565b5b5f6108a086828701610854565b93505060206108b186828701610868565b92505060406108c286828701610868565b9150509250925092565b6108d581610483565b82525050565b6108e481610832565b82525050565b5f6080820190506108fd5f8301876108cc565b61090a60208301866108db565b61091760408301856108cc565b61092460608301846108cc565b9594505050505056fea26469706673582212209146a2de6e7925d5f7063b3553bbc35676e155456da1bfd1575da3db009e0fbc64736f6c634300081c0033a2646970667358221220123e08b32c9530850572d6109fd6ba549b60c4ba6dabc0207a6c2a8ff69f172264736f6c634300081c0033","linkReferences":{}},"methodIdentifiers":{"entryPoint()":"b0d691fe","mintWallet(uint256[2],uint256[2][2],uint256[2],uint256[],address)":"6fd63b59","verifier()":"2b7ac3f3","walletOf(address)":"1982640c"},"id":4}