{"abi":[{"type":"constructor","inputs":[{"name":"_entryPoint","type":"address","internalType":"contract EntryPoint"},{"name":"_verifier","type":"address","internalType":"contract Verifier"}],"stateMutability":"nonpayable"},{"type":"function","name":"createAccount","inputs":[{"name":"data","type":"bytes","internalType":"bytes"}],"outputs":[{"name":"wallet","type":"address","internalType":"address"}],"stateMutability":"nonpayable"},{"type":"function","name":"entryPoint","inputs":[],"outputs":[{"name":"","type":"address","internalType":"contract EntryPoint"}],"stateMutability":"view"},{"type":"function","name":"mintWallet","inputs":[{"name":"a","type":"uint256[2]","internalType":"uint256[2]"},{"name":"b","type":"uint256[2][2]","internalType":"uint256[2][2]"},{"name":"c","type":"uint256[2]","internalType":"uint256[2]"},{"name":"pubSignals","type":"uint256[7]","internalType":"uint256[7]"},{"name":"owner","type":"address","internalType":"address"},{"name":"salt","type":"uint256","internalType":"uint256"}],"outputs":[{"name":"wallet","type":"address","internalType":"address"}],"stateMutability":"nonpayable"},{"type":"function","name":"verifier","inputs":[],"outputs":[{"name":"","type":"address","internalType":"contract Verifier"}],"stateMutability":"view"},{"type":"function","name":"walletOf","inputs":[{"name":"","type":"address","internalType":"address"}],"outputs":[{"name":"","type":"address","internalType":"address"}],"stateMutability":"view"},{"type":"event","name":"WalletMinted","inputs":[{"name":"owner","type":"address","indexed":true,"internalType":"address"},{"name":"wallet","type":"address","indexed":true,"internalType":"address"}],"anonymous":false}],"bytecode":{"object":"0x60c03461009257601f61126138819003918201601f19168301916001600160401b038311848410176100965780849260409485528339810103126100925780516001600160a01b03918282168203610092576020015191821682036100925760805260a0526040516111b690816100ab8239608051818181609e01526106cf015260a0518181816103d6015261061f0152f35b5f80fd5b634e487b7160e01b5f52604160045260245ffdfe60806040908082526004361015610014575f80fd5b5f3560e01c9081631982640c146103fa575080632b7ac3f31461038c5780636e36d3a714610229578063a9ea858f146100c65763b0d691fe14610055575f80fd5b346100c2575f7ffffffffffffffffffffffffffffffffffffffffffffffffffffffffffffffffc3601126100c2576020905173ffffffffffffffffffffffffffffffffffffffff7f0000000000000000000000000000000000000000000000000000000000000000168152f35b5f80fd5b50346100c25760209060207ffffffffffffffffffffffffffffffffffffffffffffffffffffffffffffffffc3601126100c25760043567ffffffffffffffff8082116100c257366023830112156100c25781600401359081116100c25781019060248201913683116100c257816102209103126100c25761014a82602483016104c4565b826083830112156100c2578351946101618661045f565b60e48301868582116100c2578590878460648801925b85841061020d575050505061018b916104c4565b9380610143850112156100c2578551916101a4836104a8565b8261020486019283116100c2576101248601905b8382106101fe57505050359073ffffffffffffffffffffffffffffffffffffffff948583168093036100c2576020976102246101f696013594610530565b915191168152f35b813581529082019082016101b8565b9091929361021b90856104c4565b815201910187848893610177565b50346100c2576102207ffffffffffffffffffffffffffffffffffffffffffffffffffffffffffffffffc3601126100c25736602312156100c25780519061026f8261045f565b6044823682116100c2576004905b82821061037c5750505036606312156100c25780519161029c8361045f565b60c4833682116100c257836044915b83831061036257505050503660e312156100c2578151926102cb8461045f565b61010491843684116100c25760c4905b8482106103525750503661012312156100c2578351926102fa846104a8565b836101e4913683116100c257905b8282106103425750503573ffffffffffffffffffffffffffffffffffffffff9384821682036100c2576020966101f6946102043594610530565b8135815260209182019101610308565b81358152602091820191016102db565b60209061036f36856104c4565b81520191019084906102ab565b813581526020918201910161027d565b50346100c2575f7ffffffffffffffffffffffffffffffffffffffffffffffffffffffffffffffffc3601126100c2576020905173ffffffffffffffffffffffffffffffffffffffff7f0000000000000000000000000000000000000000000000000000000000000000168152f35b9050346100c25760207ffffffffffffffffffffffffffffffffffffffffffffffffffffffffffffffffc3601126100c2576004359173ffffffffffffffffffffffffffffffffffffffff908184168094036100c2576020935f525f84525f2054168152f35b6040810190811067ffffffffffffffff82111761047b57604052565b7f4e487b71000000000000000000000000000000000000000000000000000000005f52604160045260245ffd5b60e0810190811067ffffffffffffffff82111761047b57604052565b9080601f830112156100c257604051916104dd8361045f565b8290604081019283116100c257905b8282106104f95750505090565b81358152602091820191016104ec565b5f915b6002831061051957505050565b60019082518152602080910192019201919061050c565b9294939173ffffffffffffffffffffffffffffffffffffffff96878416805f526020965f88526040958a875f20541661084d5786517fc894e7570000000000000000000000000000000000000000000000000000000081529597610598906004880190610509565b5f9795604481015b6002808b10156105eb57898c918a51845f905b8382106105cd5750505050600192019801990198966105a0565b82945094809193956001935181520193019101908e93918d936105b3565b505093999297509361060391955060c4840190610509565b5f61010483015b88600783106108395792505050816101e4818b7f0000000000000000000000000000000000000000000000000000000000000000165afa90811561082f575f916107c4575b5015610767578251917fffffffffffffffffffffffffffffffffffffffff0000000000000000000000008684019260601b168252603483015260348252606082019067ffffffffffffffff908383108284111761047b5782855283519020926108d69182820190606082019081118582101761047b5786936108ab86398a7f00000000000000000000000000000000000000000000000000000000000000001690528660808201520301905ff594851561075d575f9516948593838252525f20827fffffffffffffffffffffffff00000000000000000000000000000000000000008254161790557f73e8e01c6120c8daad5aa83307027ad4145ebd31d1a4e04c41404a0e2f3102ac5f80a3565b50513d5f823e3d90fd5b6064858451907f08c379a00000000000000000000000000000000000000000000000000000000082526004820152601660248201527f466163746f72793a20696e76616c69642070726f6f66000000000000000000006044820152fd5b9050853d8711610828575b7fffffffffffffffffffffffffffffffffffffffffffffffffffffffffffffffe0601f820116820182811067ffffffffffffffff82111761047b57879183918752810103126100c2575180151581036100c2575f61064f565b503d6107cf565b84513d5f823e3d90fd5b80600192855181520193019101909161060a565b6064898851907f08c379a00000000000000000000000000000000000000000000000000000000082526004820152601760248201527f466163746f72793a20616c7265616479206d696e7465640000000000000000006044820152fdfe60a03461009b57601f6108d638819003918201601f19168301916001600160401b0383118484101761009f57808492604094855283398101031261009b5780516001600160a01b0391828216820361009b576020015191821680920361009b576080525f80546001600160a01b03191691909117905560405161082290816100b482396080518181816101720152818161021301526102a10152f35b5f80fd5b634e487b7160e01b5f52604160045260245ffdfe6080604052600436101561001a575b3615610018575f80fd5b005b5f3560e01c80633a871cdd146100595780638da5cb5b14610054578063b0d691fe1461004f5763d087d2880361000e57610196565b610128565b6100d8565b346100d4577ffffffffffffffffffffffffffffffffffffffffffffffffffffffffffffffffc6060813601126100d4576004359067ffffffffffffffff82116100d4576101609082360301126100d4576100c06100d0916044359060243590600401610286565b6040519081529081906020820190565b0390f35b5f80fd5b346100d4575f7ffffffffffffffffffffffffffffffffffffffffffffffffffffffffffffffffc3601126100d457602073ffffffffffffffffffffffffffffffffffffffff5f5416604051908152f35b346100d4575f7ffffffffffffffffffffffffffffffffffffffffffffffffffffffffffffffffc3601126100d457602060405173ffffffffffffffffffffffffffffffffffffffff7f0000000000000000000000000000000000000000000000000000000000000000168152f35b346100d4575f7ffffffffffffffffffffffffffffffffffffffffffffffffffffffffffffffffc3601126100d4576040517f35567e1a0000000000000000000000000000000000000000000000000000000081523060048201525f602482015260208160448173ffffffffffffffffffffffffffffffffffffffff7f0000000000000000000000000000000000000000000000000000000000000000165afa8015610281575f9061024d575b604051908152602090f35b506020813d602011610279575b81610267602093836103b8565b810103126100d4576100d09051610242565b3d915061025a565b6103fe565b9092919273ffffffffffffffffffffffffffffffffffffffff7f000000000000000000000000000000000000000000000000000000000000000016330361032d576102d091610443565b91806102d95750565b5f80808093337ffffffffffffffffffffffffffffffffffffffffffffffffffffffffffffffffff1503d1561032b573d61031281610409565b9061032060405192836103b8565b81525f60203d92013e565b565b60646040517f08c379a000000000000000000000000000000000000000000000000000000000815260206004820152601c60248201527f6163636f756e743a206e6f742066726f6d20456e747279506f696e74000000006044820152fd5b7f4e487b71000000000000000000000000000000000000000000000000000000005f52604160045260245ffd5b90601f7fffffffffffffffffffffffffffffffffffffffffffffffffffffffffffffffe0910116810190811067ffffffffffffffff8211176103f957604052565b61038b565b6040513d5f823e3d90fd5b67ffffffffffffffff81116103f957601f017fffffffffffffffffffffffffffffffffffffffffffffffffffffffffffffffe01660200190565b610140810135907fffffffffffffffffffffffffffffffffffffffffffffffffffffffffffffffe1813603018212156100d457019081359167ffffffffffffffff83116100d457602081019183360383136100d4576104a184610409565b916104af60405193846103b8565b84835260208536920101116100d4575f6020856104db966104d7968387013784010152610511565b1590565b6104e3575f90565b600190565b908151915f5b8381106104fe575050015f815290565b80602080928401015181850152016104ee565b60418251146106065760608251146105295750505f90565b60205f6105ed6105b56105e1610553845473ffffffffffffffffffffffffffffffffffffffff1690565b956040519283917fffffffffffffffffffffffffffffffffffffffff0000000000000000000000008960601b1688840190917fffffffffffffffffffffffffffffffffffffffff00000000000000000000000060349316825260148201520190565b037fffffffffffffffffffffffffffffffffffffffffffffffffffffffffffffffe081018352826103b8565b604051918280926104e8565b039060025afa1561028157610603915f51610698565b90565b60208281015160408085015160609586015182519586525f90811a868601529185019290925293830152828052919060809060015afa15610281575f5173ffffffffffffffffffffffffffffffffffffffff6106926106795f5473ffffffffffffffffffffffffffffffffffffffff1690565b73ffffffffffffffffffffffffffffffffffffffff1690565b91161490565b909160608351036107e5576020830151917fffffffffffffffffffffffffffffffffffffffff000000000000000000000000606060408601519501519260601b169060405160205f6107508361071e868886840190917fffffffffffffffffffffffffffffffffffffffff00000000000000000000000060349316825260148201520190565b03936105e17fffffffffffffffffffffffffffffffffffffffffffffffffffffffffffffffe0958681018352826103b8565b039060025afa15610281575f6107b36107a76105e160209484519760405193849189898401906034927fffffffffffffffffffffffffffffffffffffffff0000000000000000000000009183521660208201520190565b039081018352826103b8565b039060025afa15610281575f51931493846107db575b5050826107d557505090565b14919050565b1492505f806107c9565b5050505f9056fea2646970667358221220af47068a4b27ce5b0617927d4091ef1c6fbc5c6d15435f4b4ad0023ccbff7a0b64736f6c63430008180033a2646970667358221220f56432e14672bf22bbf0af0db0a41c70ab3c6649a16be0fcffbca31b22b7140d64736f6c63430008180033","linkReferences":{}},"methodIdentifiers":{"createAccount(bytes)":"a9ea858f","entryPoint()":"b0d691fe","mintWallet(uint256[2],uint256[2][2],uint256[2],uint256[7],address,uint256)":"6e36d3a7","verifier()":"2b7ac3f3","walletOf(address)":"1982640c"},"id":8}