{"abi":[{"type":"constructor","inputs":[{"name":"_entryPoint","type":"address","internalType":"contract EntryPoint"},{"name":"_verifier","type":"address","internalType":"contract Verifier"}],"stateMutability":"nonpayable"},{"type":"function","name":"entryPoint","inputs":[],"outputs":[{"name":"","type":"address","internalType":"contract EntryPoint"}],"stateMutability":"view"},{"type":"function","name":"getAddress","inputs":[{"name":"owner","type":"address","internalType":"address"}],"outputs":[{"name":"","type":"address","internalType":"address"}],"stateMutability":"view"},{"type":"function","name":"mintWallet","inputs":[{"name":"a","type":"uint256[2]","internalType":"uint256[2]"},{"name":"b","type":"uint256[2][2]","internalType":"uint256[2][2]"},{"name":"c","type":"uint256[2]","internalType":"uint256[2]"},{"name":"pubSignals","type":"uint256[7]","internalType":"uint256[7]"},{"name":"owner","type":"address","internalType":"address"}],"outputs":[{"name":"wallet","type":"address","internalType":"address"}],"stateMutability":"nonpayable"},{"type":"function","name":"verifier","inputs":[],"outputs":[{"name":"","type":"address","internalType":"contract Verifier"}],"stateMutability":"view"},{"type":"function","name":"walletOf","inputs":[{"name":"","type":"address","internalType":"address"}],"outputs":[{"name":"","type":"address","internalType":"address"}],"stateMutability":"view"},{"type":"event","name":"WalletMinted","inputs":[{"name":"owner","type":"address","indexed":true,"internalType":"address"},{"name":"wallet","type":"address","indexed":true,"internalType":"address"}],"anonymous":false}],"bytecode":{"object":"0x60c03461009a57601f61113738819003918201601f19168301916001600160401b0383118484101761009e57808492604094855283398101031261009a5780516001600160a01b0391828216820361009a5760200151918216820361009a5760805260a05260405161108490816100b382396080518181816101d70152818161040401526104df015260a05181818161013901526106460152f35b5f80fd5b634e487b7160e01b5f52604160045260245ffdfe6080604081815260049182361015610015575f80fd5b5f3560e01c9081631982640c1461066a575080632b7ac3f3146105fc578063ae22c57d14610428578063b0d691fe146103ba5763fda39a3214610056575f80fd5b34610328576102007ffffffffffffffffffffffffffffffffffffffffffffffffffffffffffffffffc3601126103285736604411610328573660c4116103285761010490368211610328576101e4923684116103285783359073ffffffffffffffffffffffffffffffffffffffff918281169485820361032857855f526020965f885284865f20541661035e5785517fc894e757000000000000000000000000000000000000000000000000000000008152918891839188878085013760445f8a8583015b6002831061033d5750905060e092915060c4808601378084013781877f0000000000000000000000000000000000000000000000000000000000000000165afa908115610333575f916102f9575b501561029d5783517fffffffffffffffffffffffffffffffffffffffff0000000000000000000000008782019260601b168252601481526101a9816106ee565b519020908351906108d68083019183831067ffffffffffffffff8411176102715750859183916107798339857f000000000000000000000000000000000000000000000000000000000000000016815287898201520301905ff5801561026757168091835f525f8552805f20827fffffffffffffffffffffffff000000000000000000000000000000000000000082541617905551927f73e8e01c6120c8daad5aa83307027ad4145ebd31d1a4e04c41404a0e2f3102ac5f80a38152f35b82513d5f823e3d90fd5b6041907f4e487b71000000000000000000000000000000000000000000000000000000005f525260245ffd5b606482878651917f08c379a0000000000000000000000000000000000000000000000000000000008352820152601660248201527f466163746f72793a20696e76616c69642070726f6f66000000000000000000006044820152fd5b90508681813d831161032c575b6103108183610737565b8101031261032857518015158103610328575f610169565b5f80fd5b503d610306565b85513d5f823e3d90fd5b8395975081809395975060019482370193019101908593918a8d969461011b565b606484898851917f08c379a0000000000000000000000000000000000000000000000000000000008352820152601760248201527f466163746f72793a20616c7265616479206d696e7465640000000000000000006044820152fd5b5034610328575f7ffffffffffffffffffffffffffffffffffffffffffffffffffffffffffffffffc360112610328576020905173ffffffffffffffffffffffffffffffffffffffff7f0000000000000000000000000000000000000000000000000000000000000000168152f35b503461032857602091827ffffffffffffffffffffffffffffffffffffffffffffffffffffffffffffffffc360112610328576104626106cb565b9180519184830173ffffffffffffffffffffffffffffffffffffffff937fffffffffffffffffffffffffffffffffffffffff0000000000000000000000008660601b168252601481526104b4816106ee565b519020916108d681516104c988830182610737565b81815287810191610779833951902084825196817f0000000000000000000000000000000000000000000000000000000000000000168989015216828701528186526060860167ffffffffffffffff96808210888311176105d057818452608081019283528381518a5f5b8281106105b8575050916105579281015f60a0820152038a810184520182610737565b51902091815192878401947fff0000000000000000000000000000000000000000000000000000000000000086523060601b602186015260358501526055840152605583526080830195838710908711176102715750849052519020168152f35b8481018083015160a0909101528793508c9101610534565b6041857f4e487b71000000000000000000000000000000000000000000000000000000005f525260245ffd5b5034610328575f7ffffffffffffffffffffffffffffffffffffffffffffffffffffffffffffffffc360112610328576020905173ffffffffffffffffffffffffffffffffffffffff7f0000000000000000000000000000000000000000000000000000000000000000168152f35b9050346103285760207ffffffffffffffffffffffffffffffffffffffffffffffffffffffffffffffffc3601126103285760209173ffffffffffffffffffffffffffffffffffffffff90816106bd6106cb565b165f525f84525f2054168152f35b6004359073ffffffffffffffffffffffffffffffffffffffff8216820361032857565b6040810190811067ffffffffffffffff82111761070a57604052565b7f4e487b71000000000000000000000000000000000000000000000000000000005f52604160045260245ffd5b90601f7fffffffffffffffffffffffffffffffffffffffffffffffffffffffffffffffe0910116810190811067ffffffffffffffff82111761070a5760405256fe60a03461009b57601f6108d638819003918201601f19168301916001600160401b0383118484101761009f57808492604094855283398101031261009b5780516001600160a01b0391828216820361009b576020015191821680920361009b576080525f80546001600160a01b03191691909117905560405161082290816100b482396080518181816101720152818161021301526102a10152f35b5f80fd5b634e487b7160e01b5f52604160045260245ffdfe6080604052600436101561001a575b3615610018575f80fd5b005b5f3560e01c80633a871cdd146100595780638da5cb5b14610054578063b0d691fe1461004f5763d087d2880361000e57610196565b610128565b6100d8565b346100d4577ffffffffffffffffffffffffffffffffffffffffffffffffffffffffffffffffc6060813601126100d4576004359067ffffffffffffffff82116100d4576101609082360301126100d4576100c06100d0916044359060243590600401610286565b6040519081529081906020820190565b0390f35b5f80fd5b346100d4575f7ffffffffffffffffffffffffffffffffffffffffffffffffffffffffffffffffc3601126100d457602073ffffffffffffffffffffffffffffffffffffffff5f5416604051908152f35b346100d4575f7ffffffffffffffffffffffffffffffffffffffffffffffffffffffffffffffffc3601126100d457602060405173ffffffffffffffffffffffffffffffffffffffff7f0000000000000000000000000000000000000000000000000000000000000000168152f35b346100d4575f7ffffffffffffffffffffffffffffffffffffffffffffffffffffffffffffffffc3601126100d4576040517f35567e1a0000000000000000000000000000000000000000000000000000000081523060048201525f602482015260208160448173ffffffffffffffffffffffffffffffffffffffff7f0000000000000000000000000000000000000000000000000000000000000000165afa8015610281575f9061024d575b604051908152602090f35b506020813d602011610279575b81610267602093836103b8565b810103126100d4576100d09051610242565b3d915061025a565b6103fe565b9092919273ffffffffffffffffffffffffffffffffffffffff7f000000000000000000000000000000000000000000000000000000000000000016330361032d576102d091610443565b91806102d95750565b5f80808093337ffffffffffffffffffffffffffffffffffffffffffffffffffffffffffffffffff1503d1561032b573d61031281610409565b9061032060405192836103b8565b81525f60203d92013e565b565b60646040517f08c379a000000000000000000000000000000000000000000000000000000000815260206004820152601c60248201527f6163636f756e743a206e6f742066726f6d20456e747279506f696e74000000006044820152fd5b7f4e487b71000000000000000000000000000000000000000000000000000000005f52604160045260245ffd5b90601f7fffffffffffffffffffffffffffffffffffffffffffffffffffffffffffffffe0910116810190811067ffffffffffffffff8211176103f957604052565b61038b565b6040513d5f823e3d90fd5b67ffffffffffffffff81116103f957601f017fffffffffffffffffffffffffffffffffffffffffffffffffffffffffffffffe01660200190565b610140810135907fffffffffffffffffffffffffffffffffffffffffffffffffffffffffffffffe1813603018212156100d457019081359167ffffffffffffffff83116100d457602081019183360383136100d4576104a184610409565b916104af60405193846103b8565b84835260208536920101116100d4575f6020856104db966104d7968387013784010152610511565b1590565b6104e3575f90565b600190565b908151915f5b8381106104fe575050015f815290565b80602080928401015181850152016104ee565b60418251146106065760608251146105295750505f90565b60205f6105ed6105b56105e1610553845473ffffffffffffffffffffffffffffffffffffffff1690565b956040519283917fffffffffffffffffffffffffffffffffffffffff0000000000000000000000008960601b1688840190917fffffffffffffffffffffffffffffffffffffffff00000000000000000000000060349316825260148201520190565b037fffffffffffffffffffffffffffffffffffffffffffffffffffffffffffffffe081018352826103b8565b604051918280926104e8565b039060025afa1561028157610603915f51610698565b90565b60208281015160408085015160609586015182519586525f90811a868601529185019290925293830152828052919060809060015afa15610281575f5173ffffffffffffffffffffffffffffffffffffffff6106926106795f5473ffffffffffffffffffffffffffffffffffffffff1690565b73ffffffffffffffffffffffffffffffffffffffff1690565b91161490565b909160608351036107e5576020830151917fffffffffffffffffffffffffffffffffffffffff000000000000000000000000606060408601519501519260601b169060405160205f6107508361071e868886840190917fffffffffffffffffffffffffffffffffffffffff00000000000000000000000060349316825260148201520190565b03936105e17fffffffffffffffffffffffffffffffffffffffffffffffffffffffffffffffe0958681018352826103b8565b039060025afa15610281575f6107b36107a76105e160209484519760405193849189898401906034927fffffffffffffffffffffffffffffffffffffffff0000000000000000000000009183521660208201520190565b039081018352826103b8565b039060025afa15610281575f51931493846107db575b5050826107d557505090565b14919050565b1492505f806107c9565b5050505f9056fea2646970667358221220af47068a4b27ce5b0617927d4091ef1c6fbc5c6d15435f4b4ad0023ccbff7a0b64736f6c63430008180033a2646970667358221220d61780d805a93e2685ac1637544327aa787648c7e565bc549fbb6067ea1d5d1464736f6c63430008180033","linkReferences":{}},"methodIdentifiers":{"entryPoint()":"b0d691fe","getAddress(address)":"ae22c57d","mintWallet(uint256[2],uint256[2][2],uint256[2],uint256[7],address)":"fda39a32","verifier()":"2b7ac3f3","walletOf(address)":"1982640c"},"id":8}