{"abi":[{"type":"function","name":"verifyProof","inputs":[{"name":"_pA","type":"uint256[2]","internalType":"uint256[2]"},{"name":"_pB","type":"uint256[2][2]","internalType":"uint256[2][2]"},{"name":"_pC","type":"uint256[2]","internalType":"uint256[2]"},{"name":"_pubSignals","type":"uint256[7]","internalType":"uint256[7]"}],"outputs":[{"name":"","type":"bool","internalType":"bool"}],"stateMutability":"view"}],"bytecode":{"object":"0x6080604052348015600e575f5ffd5b506108108061001c5f395ff3fe608060405234801561000f575f5ffd5b5060043610610029575f3560e01c8063c894e7571461002d575b5f5ffd5b61004760048036038101906100429190610741565b61005d565b60405161005491906107c1565b60405180910390f35b5f61065c565b7f30644e72e131a029b85045b68181585d2833e84879b9709143e1f593f00000018110610092575f5f5260205ff35b50565b5f60405183815284602082015285604082015260408160608360076107d05a03fa9150816100c5575f5f5260205ff35b825160408201526020830151606082015260408360808360066107d05a03fa9150816100f3575f5f5260205ff35b505050505050565b5f608086015f87017f050b4dfb58acd62992e7697ad58adaf1d0fb46600400292c4b84e6e11135d28c81527f2cc57767e4736efe69b7acf82b09c7c7ca9dfbd4d4277697ac7ea3ad4332da79602082015261019b5f8801357f0d5402012629f02a67f724b730e8113827eb958bb82677ac5192783bcceb98e37f22e4ecb08fb4acfcf287e0f57f7a979bd1be36bdf1d42a2cbce694418b2c2b7984610095565b6101ea60208801357e93503f0332c74db6b1f656773354f996e4243fc0e0b254ffd9b030479dc03d7f0ac88bd19a2e1ebe3afe452e4e0f81ef563371fa1e30f9daaa8ee55458156f7384610095565b61023a60408801357f0817304192f98a1f701d9ffa552a267711f47d1eed073ec9c48f80f71b9773d37f265a0c9f23ccf2160b09d9b88ae92b0a5c1865e947868e935ca7a82fa2baf96484610095565b61028a60608801357f131bcddbca32c1b95d302229f37e0f6fd6c75f506e5293dc9f0ed78ca59031ff7f28ab5c5ff9eba7cfc102b88301ce499f322d150460d4736e00bee6bacdd1059a84610095565b6102da60808801357f01c48af995e5dfbf2effbdce463ab70169060853a9d138dce9e5aeebb6b61aa27f2a2a0f22050665a0bf1a0c3ebf5c15e5fb420e840e3f3a966c7ccac37d25c67284610095565b61032a60a08801357f137eccfcac6e029906bd14f7bbb61b4a0fffb061e90ad89be9fbd47b64f52e137f02e6b571d4750945f302b0f377aec26654d51d3f0dd8a8b0cc8ce5762275a4f684610095565b61037a60c08801357f13d21ea78f1b1c4cbe78ecb4e514e86f0b8d4274478e660da466f67a2e08fcfe7f2d0c08be706e75f6c7aaef04d96771e34c9c0017a481aa774bcae1c15de8257784610095565b833582527f30644e72e131a029b85045b68181585d97816a916871ca8d3c208c16d87cfd4760208501357f30644e72e131a029b85045b68181585d97816a916871ca8d3c208c16d87cfd4703066020830152843560408301526020850135606083015260408501356080830152606085013560a08301527f2e650f037ef9f24e0a036b492f614dcd520205bda50a392193beb6f4b0bc7e3860c08301527f1de17b3439e814180c6dc7ba92855a209673c1313b48ce8699293154ab0419d960e08301527f07403099845413435d7b11b929b92cc3e743b7cdeba68b9ecddac1c6f75e0a3a6101008301527f2531e907d6b137d0492122e582e70e2f33b7f468bf822868a990ab973e14fefd6101208301527f13ffd0c29ccdcc28acfdd2416599581475ef4a12b54b5c9125c089862968cf846101408301527f0f78e8f71652e2503a59549c4fafe44cfeec713e495a5e88b6012a5be40129606101608301525f88015161018083015260205f018801516101a08301527f198e9393920d483a7260bfb731fb5d25f1aa493335a9e71297e485b7aef312c26101c08301527f1800deef121f1e76426a00665e5c4479674322d4f75edadd46debd5cd992f6ed6101e08301527f090689d0585ff075ec9e99ad690c3395bc4b313370b38ef355acdadcd122975b6102008301527f12c85ea5db8c6deb4aab71808dcb408fe3d1e7690c43d37b4ce6cc0166fa7daa610220830152853561024083015260208601356102608301527f1d15522ccfc873ab5735d67b7d2e290cd514a2ba8252e7566db4c2da95c6eed36102808301527f03279d6e9927eca48e17d4c61488218e56805f306bc3d505ca5d9476f5ba04646102a08301527f028860f187f08d3c5f63c6181385cba1ef01b9d50112583aa0b6c53f9fe1798d6102c08301527f206ee340ec2520b379482eb38cd948c8a0f79b10fa02a808a06f402a37855ac66102e08301526020826103008460086107d05a03fa82518116935050505095945050505050565b60405161038081016040526106735f840135610063565b6106806020840135610063565b61068d6040840135610063565b61069a6060840135610063565b6106a76080840135610063565b6106b460a0840135610063565b6106c160c0840135610063565b6106ce818486888a6100fb565b805f5260205ff35b5f5ffd5b5f5ffd5b5f819050826020600202820111156106f9576106f86106da565b5b92915050565b5f8190508260406002028201111561071a576107196106da565b5b92915050565b5f8190508260206007028201111561073b5761073a6106da565b5b92915050565b5f5f5f5f6101e0858703121561075a576107596106d6565b5b5f610767878288016106de565b9450506040610778878288016106ff565b93505060c0610789878288016106de565b92505061010061079b87828801610720565b91505092959194509250565b5f8115159050919050565b6107bb816107a7565b82525050565b5f6020820190506107d45f8301846107b2565b9291505056fea264697066735822122053f645743a4f8b11c1d9cf0417d4b8e7a1be26e277205df6607a65a6dfa305bd64736f6c634300081c0033","linkReferences":{}},"methodIdentifiers":{"verifyProof(uint256[2],uint256[2][2],uint256[2],uint256[7])":"c894e757"},"id":2}