{"abi":[{"type":"function","name":"verifyProof","inputs":[{"name":"_pA","type":"uint256[2]","internalType":"uint256[2]"},{"name":"_pB","type":"uint256[2][2]","internalType":"uint256[2][2]"},{"name":"_pC","type":"uint256[2]","internalType":"uint256[2]"},{"name":"_pubSignals","type":"uint256[7]","internalType":"uint256[7]"}],"outputs":[{"name":"","type":"bool","internalType":"bool"}],"stateMutability":"view"}],"bytecode":{"object":"0x6080806040523461001657610919908161001b8239f35b5f80fdfe60806040526004361015610011575f80fd5b5f3560e01c63c894e75714610024575f80fd5b34610403576101e0807ffffffffffffffffffffffffffffffffffffffffffffffffffffffffffffffffc3601126104035761005e36610407565b3660c4116104035761006f36610414565b90366101e411610403576020916104006040526101606101043561009281610422565b61015b610124356100a281610422565b610156610144356100b281610422565b610151610164356100c281610422565b61014c61018435936100d385610422565b6101476101a435976100e489610422565b6101426101c4359b6100f58d610422565b7f050b4dfb58acd62992e7697ad58adaf1d0fb46600400292c4b84e6e11135d28c6080527f2cc57767e4736efe69b7acf82b09c7c7ca9dfbd4d4277697ac7ea3ad4332da7960a052610453565b6104fa565b6105a0565b610647565b6106ee565b610795565b61083c565b7f1de17b3439e814180c6dc7ba92855a209673c1313b48ce8699293154ab0419d961010094838694358552857f30644e72e131a029b85045b68181585d97816a916871ca8d3c208c16d87cfd479101358103066101205260443561014052606435610160526084356101805260a4356101a0527f2e650f037ef9f24e0a036b492f614dcd520205bda50a392193beb6f4b0bc7e386101c052527f07403099845413435d7b11b929b92cc3e743b7cdeba68b9ecddac1c6f75e0a3a610200527f2531e907d6b137d0492122e582e70e2f33b7f468bf822868a990ab973e14fefd610220527f13ffd0c29ccdcc28acfdd2416599581475ef4a12b54b5c9125c089862968cf84610240527f0f78e8f71652e2503a59549c4fafe44cfeec713e495a5e88b6012a5be4012960610260526080516102805260a0516102a0527f198e9393920d483a7260bfb731fb5d25f1aa493335a9e71297e485b7aef312c26102c0527f1800deef121f1e76426a00665e5c4479674322d4f75edadd46debd5cd992f6ed6102e05282610300917f090689d0585ff075ec9e99ad690c3395bc4b313370b38ef355acdadcd122975b83527f12c85ea5db8c6deb4aab71808dcb408fe3d1e7690c43d37b4ce6cc0166fa7daa610320528035610340520135610360527f1d15522ccfc873ab5735d67b7d2e290cd514a2ba8252e7566db4c2da95c6eed3610380527f03279d6e9927eca48e17d4c61488218e56805f306bc3d505ca5d9476f5ba04646103a0527f028860f187f08d3c5f63c6181385cba1ef01b9d50112583aa0b6c53f9fe1798d6103c0527f206ee340ec2520b379482eb38cd948c8a0f79b10fa02a808a06f402a37855ac66103e0528160087ffffffffffffffffffffffffffffffffffffffffffffffffffffffffffffff8305a01fa9051165f5260205ff35b5f80fd5b9060049160441161040357565b9060c4916101041161040357565b7f30644e72e131a029b85045b68181585d2833e84879b9709143e1f593f0000001111561044b57565b5f805260205ff35b604051907f22e4ecb08fb4acfcf287e0f57f7a979bd1be36bdf1d42a2cbce694418b2c2b7982527f0d5402012629f02a67f724b730e8113827eb958bb82677ac5192783bcceb98e36020830152604082019081527ffffffffffffffffffffffffffffffffffffffffffffffffffffffffffffff8306040836060816007855a01fa1561044b5760409260066080939284938451905260a05160608401525a01fa1561044b57565b604051907f0ac88bd19a2e1ebe3afe452e4e0f81ef563371fa1e30f9daaa8ee55458156f7382527e93503f0332c74db6b1f656773354f996e4243fc0e0b254ffd9b030479dc03d6020830152604082019081527ffffffffffffffffffffffffffffffffffffffffffffffffffffffffffffff8306040836060816007855a01fa1561044b5760409260066080939284938451905260a05160608401525a01fa1561044b57565b604051907f265a0c9f23ccf2160b09d9b88ae92b0a5c1865e947868e935ca7a82fa2baf96482527f0817304192f98a1f701d9ffa552a267711f47d1eed073ec9c48f80f71b9773d36020830152604082019081527ffffffffffffffffffffffffffffffffffffffffffffffffffffffffffffff8306040836060816007855a01fa1561044b5760409260066080939284938451905260a05160608401525a01fa1561044b57565b604051907f28ab5c5ff9eba7cfc102b88301ce499f322d150460d4736e00bee6bacdd1059a82527f131bcddbca32c1b95d302229f37e0f6fd6c75f506e5293dc9f0ed78ca59031ff6020830152604082019081527ffffffffffffffffffffffffffffffffffffffffffffffffffffffffffffff8306040836060816007855a01fa1561044b5760409260066080939284938451905260a05160608401525a01fa1561044b57565b604051907f2a2a0f22050665a0bf1a0c3ebf5c15e5fb420e840e3f3a966c7ccac37d25c67282527f01c48af995e5dfbf2effbdce463ab70169060853a9d138dce9e5aeebb6b61aa26020830152604082019081527ffffffffffffffffffffffffffffffffffffffffffffffffffffffffffffff8306040836060816007855a01fa1561044b5760409260066080939284938451905260a05160608401525a01fa1561044b57565b604051907f02e6b571d4750945f302b0f377aec26654d51d3f0dd8a8b0cc8ce5762275a4f682527f137eccfcac6e029906bd14f7bbb61b4a0fffb061e90ad89be9fbd47b64f52e136020830152604082019081527ffffffffffffffffffffffffffffffffffffffffffffffffffffffffffffff8306040836060816007855a01fa1561044b5760409260066080939284938451905260a05160608401525a01fa1561044b57565b604051907f2d0c08be706e75f6c7aaef04d96771e34c9c0017a481aa774bcae1c15de8257782527f13d21ea78f1b1c4cbe78ecb4e514e86f0b8d4274478e660da466f67a2e08fcfe6020830152604082019081527ffffffffffffffffffffffffffffffffffffffffffffffffffffffffffffff8306040836060816007855a01fa1561044b5760409260066080939284938451905260a05160608401525a01fa1561044b5756fea2646970667358221220cc655d5cd570304b581c8197a6270f09336e2595315543245702f536dc3d74e764736f6c63430008180033","linkReferences":{}},"methodIdentifiers":{"verifyProof(uint256[2],uint256[2][2],uint256[2],uint256[7])":"c894e757"},"id":6}