{"abi":[{"type":"function","name":"verifyProof","inputs":[{"name":"a","type":"uint256[2]","internalType":"uint256[2]"},{"name":"b","type":"uint256[2][2]","internalType":"uint256[2][2]"},{"name":"c","type":"uint256[2]","internalType":"uint256[2]"},{"name":"input","type":"uint256[]","internalType":"uint256[]"}],"outputs":[{"name":"","type":"bool","internalType":"bool"}],"stateMutability":"view"}],"bytecode":{"object":"0x6080604052348015600e575f5ffd5b506104458061001c5f395ff3fe608060405234801561000f575f5ffd5b5060043610610029575f3560e01c8063c32e370e1461002d575b5f5ffd5b6100476004803603810190610042919061035a565b61005d565b60405161005491906103f6565b60405180910390f35b5f60019050949350505050565b5f604051905090565b5f5ffd5b5f5ffd5b5f5ffd5b5f601f19601f8301169050919050565b7f4e487b71000000000000000000000000000000000000000000000000000000005f52604160045260245ffd5b6100c58261007f565b810181811067ffffffffffffffff821117156100e4576100e361008f565b5b80604052505050565b5f6100f661006a565b905061010282826100bc565b919050565b5f67ffffffffffffffff8211156101215761012061008f565b5b602082029050919050565b5f5ffd5b5f819050919050565b61014281610130565b811461014c575f5ffd5b50565b5f8135905061015d81610139565b92915050565b5f61017561017084610107565b6100ed565b9050806020840283018581111561018f5761018e61012c565b5b835b818110156101b857806101a4888261014f565b845260208401935050602081019050610191565b5050509392505050565b5f82601f8301126101d6576101d561007b565b5b60026101e3848285610163565b91505092915050565b5f67ffffffffffffffff8211156102065761020561008f565b5b602082029050919050565b5f61022361021e846101ec565b6100ed565b9050806040840283018581111561023d5761023c61012c565b5b835b81811015610266578061025288826101c2565b84526020840193505060408101905061023f565b5050509392505050565b5f82601f8301126102845761028361007b565b5b6002610291848285610211565b91505092915050565b5f67ffffffffffffffff8211156102b4576102b361008f565b5b602082029050602081019050919050565b5f6102d76102d28461029a565b6100ed565b905080838252602082019050602084028301858111156102fa576102f961012c565b5b835b81811015610323578061030f888261014f565b8452602084019350506020810190506102fc565b5050509392505050565b5f82601f8301126103415761034061007b565b5b81356103518482602086016102c5565b91505092915050565b5f5f5f5f610120858703121561037357610372610073565b5b5f610380878288016101c2565b945050604061039187828801610270565b93505060c06103a2878288016101c2565b92505061010085013567ffffffffffffffff8111156103c4576103c3610077565b5b6103d08782880161032d565b91505092959194509250565b5f8115159050919050565b6103f0816103dc565b82525050565b5f6020820190506104095f8301846103e7565b9291505056fea2646970667358221220dfffcccee029604d24459d025376299b155b3e4172b835a2c6d1722288da78bb64736f6c634300081c0033","linkReferences":{}},"methodIdentifiers":{"verifyProof(uint256[2],uint256[2][2],uint256[2],uint256[])":"c32e370e"},"id":2}