{"abi":[{"type":"constructor","inputs":[{"name":"_m","type":"address","internalType":"contract IMACI"}],"stateMutability":"nonpayable"},{"type":"function","name":"createElection","inputs":[{"name":"meta","type":"bytes32","internalType":"bytes32"}],"outputs":[],"stateMutability":"nonpayable"},{"type":"function","name":"elections","inputs":[{"name":"","type":"uint256","internalType":"uint256"}],"outputs":[{"name":"start","type":"uint256","internalType":"uint256"},{"name":"end","type":"uint256","internalType":"uint256"}],"stateMutability":"view"},{"type":"function","name":"enqueueMessage","inputs":[{"name":"vote","type":"uint256","internalType":"uint256"},{"name":"nonce","type":"uint256","internalType":"uint256"},{"name":"vcProof","type":"bytes","internalType":"bytes"}],"outputs":[],"stateMutability":"nonpayable"},{"type":"function","name":"maci","inputs":[],"outputs":[{"name":"","type":"address","internalType":"contract IMACI"}],"stateMutability":"view"},{"type":"function","name":"nextId","inputs":[],"outputs":[{"name":"","type":"uint256","internalType":"uint256"}],"stateMutability":"view"},{"type":"function","name":"tallied","inputs":[],"outputs":[{"name":"","type":"bool","internalType":"bool"}],"stateMutability":"view"},{"type":"function","name":"tallyVerifier","inputs":[],"outputs":[{"name":"","type":"address","internalType":"contract TallyVerifier"}],"stateMutability":"view"},{"type":"function","name":"tallyVotes","inputs":[{"name":"a","type":"uint256[2]","internalType":"uint256[2]"},{"name":"b","type":"uint256[2][2]","internalType":"uint256[2][2]"},{"name":"c","type":"uint256[2]","internalType":"uint256[2]"},{"name":"pubSignals","type":"uint256[]","internalType":"uint256[]"}],"outputs":[],"stateMutability":"nonpayable"},{"type":"event","name":"ElectionCreated","inputs":[{"name":"id","type":"uint256","indexed":false,"internalType":"uint256"},{"name":"meta","type":"bytes32","indexed":false,"internalType":"bytes32"}],"anonymous":false},{"type":"event","name":"Tally","inputs":[{"name":"A","type":"uint256","indexed":false,"internalType":"uint256"},{"name":"B","type":"uint256","indexed":false,"internalType":"uint256"}],"anonymous":false}],"bytecode":{"object":"0x60a060405234801561000f575f5ffd5b5060405161107a38038061107a83398181016040528101906100319190610119565b8073ffffffffffffffffffffffffffffffffffffffff1660808173ffffffffffffffffffffffffffffffffffffffff16815250505f5f5f6101000a81548173ffffffffffffffffffffffffffffffffffffffff021916908373ffffffffffffffffffffffffffffffffffffffff16021790555050610144565b5f5ffd5b5f73ffffffffffffffffffffffffffffffffffffffff82169050919050565b5f6100d7826100ae565b9050919050565b5f6100e8826100cd565b9050919050565b6100f8816100de565b8114610102575f5ffd5b50565b5f81519050610113816100ef565b92915050565b5f6020828403121561012e5761012d6100aa565b5b5f61013b84828501610105565b91505092915050565b608051610f176101635f395f818161019b01526104c40152610f175ff3fe608060405234801561000f575f5ffd5b5060043610610086575f3560e01c80636d931a78116100595780636d931a78146101155780639aec686714610131578063aa7f08691461014d578063ef851d951461016b57610086565b8063178e10ca1461008a57806334a0922c146100a85780635e6fef01146100c657806361b8ce8c146100f7575b5f5ffd5b610092610187565b60405161009f919061058f565b60405180910390f35b6100b0610199565b6040516100bd9190610622565b60405180910390f35b6100e060048036038101906100db9190610676565b6101bd565b6040516100ee9291906106b0565b60405180910390f35b6100ff6101dd565b60405161010c91906106d7565b60405180910390f35b61012f600480360381019061012a9190610793565b6101e3565b005b61014b6004803603810190610146919061084c565b6103a8565b005b610155610447565b6040516101629190610897565b60405180910390f35b61018560048036038101906101809190610905565b61046b565b005b5f60149054906101000a900460ff1681565b7f000000000000000000000000000000000000000000000000000000000000000081565b6001602052805f5260405f205f91509050805f0154908060010154905082565b60025481565b5f60149054906101000a900460ff1615610232576040517f08c379a0000000000000000000000000000000000000000000000000000000008152600401610229906109d0565b60405180910390fd5b5f5f9054906101000a900473ffffffffffffffffffffffffffffffffffffffff1673ffffffffffffffffffffffffffffffffffffffff1663c32e370e86868686866040518663ffffffff1660e01b8152600401610293959493929190610b2e565b602060405180830381865afa1580156102ae573d5f5f3e3d5ffd5b505050506040513d601f19601f820116820180604052508101906102d29190610ba6565b610311576040517f08c379a000000000000000000000000000000000000000000000000000000000815260040161030890610c1b565b60405180910390fd5b5f5f83835f81811061032657610325610c39565b5b905060200201358484600181811061034157610340610c39565b5b90506020020135915091507ff6455e323dbf05e2ea3f088f72e2de0236f9aa7cd006756ca9ec70ed758e733a828260405161037d9291906106b0565b60405180910390a160015f60146101000a81548160ff02191690831515021790555050505050505050565b6040518060400160405280438152602001611c20436103c79190610c93565b81525060015f60025481526020019081526020015f205f820151815f0155602082015181600101559050507fe2363988d6ce7eff8c526836fec08ee2162d5dd2ce672d06748c6dde5bf9986a60025482604051610425929190610cd5565b60405180910390a160025f81548092919061043f90610cfc565b919050555050565b5f5f9054906101000a900473ffffffffffffffffffffffffffffffffffffffff1681565b60015f5f81526020019081526020015f20600101544311156104c2576040517f08c379a00000000000000000000000000000000000000000000000000000000081526004016104b990610d8d565b60405180910390fd5b7f000000000000000000000000000000000000000000000000000000000000000073ffffffffffffffffffffffffffffffffffffffff1663ce29e0af3386868686604051602001610517959493929190610e25565b6040516020818303038152906040526040518263ffffffff1660e01b81526004016105429190610ec1565b5f604051808303815f87803b158015610559575f5ffd5b505af115801561056b573d5f5f3e3d5ffd5b5050505050505050565b5f8115159050919050565b61058981610575565b82525050565b5f6020820190506105a25f830184610580565b92915050565b5f73ffffffffffffffffffffffffffffffffffffffff82169050919050565b5f819050919050565b5f6105ea6105e56105e0846105a8565b6105c7565b6105a8565b9050919050565b5f6105fb826105d0565b9050919050565b5f61060c826105f1565b9050919050565b61061c81610602565b82525050565b5f6020820190506106355f830184610613565b92915050565b5f5ffd5b5f5ffd5b5f819050919050565b61065581610643565b811461065f575f5ffd5b50565b5f813590506106708161064c565b92915050565b5f6020828403121561068b5761068a61063b565b5b5f61069884828501610662565b91505092915050565b6106aa81610643565b82525050565b5f6040820190506106c35f8301856106a1565b6106d060208301846106a1565b9392505050565b5f6020820190506106ea5f8301846106a1565b92915050565b5f5ffd5b5f8190508260206002028201111561070f5761070e6106f0565b5b92915050565b5f819050826040600202820111156107305761072f6106f0565b5b92915050565b5f5ffd5b5f5ffd5b5f5f83601f84011261075357610752610736565b5b8235905067ffffffffffffffff8111156107705761076f61073a565b5b60208301915083602082028301111561078c5761078b6106f0565b5b9250929050565b5f5f5f5f5f61012086880312156107ad576107ac61063b565b5b5f6107ba888289016106f4565b95505060406107cb88828901610715565b94505060c06107dc888289016106f4565b93505061010086013567ffffffffffffffff8111156107fe576107fd61063f565b5b61080a8882890161073e565b92509250509295509295909350565b5f819050919050565b61082b81610819565b8114610835575f5ffd5b50565b5f8135905061084681610822565b92915050565b5f602082840312156108615761086061063b565b5b5f61086e84828501610838565b91505092915050565b5f610881826105f1565b9050919050565b61089181610877565b82525050565b5f6020820190506108aa5f830184610888565b92915050565b5f5f83601f8401126108c5576108c4610736565b5b8235905067ffffffffffffffff8111156108e2576108e161073a565b5b6020830191508360018202830111156108fe576108fd6106f0565b5b9250929050565b5f5f5f5f6060858703121561091d5761091c61063b565b5b5f61092a87828801610662565b945050602061093b87828801610662565b935050604085013567ffffffffffffffff81111561095c5761095b61063f565b5b610968878288016108b0565b925092505092959194509250565b5f82825260208201905092915050565b7f616c72656164792074616c6c69656400000000000000000000000000000000005f82015250565b5f6109ba600f83610976565b91506109c582610986565b602082019050919050565b5f6020820190508181035f8301526109e7816109ae565b9050919050565b82818337505050565b610a03604083836109ee565b5050565b5f60029050919050565b5f81905092915050565b5f819050919050565b610a30604083836109ee565b5050565b5f610a3f8383610a24565b60408301905092915050565b5f82905092915050565b5f604082019050919050565b610a6a81610a07565b610a748184610a11565b9250610a7f82610a1b565b805f5b83811015610ab757610a948284610a4b565b610a9e8782610a34565b9650610aa983610a55565b925050600181019050610a82565b505050505050565b5f82825260208201905092915050565b5f5ffd5b5f610ade8385610abf565b93507f07ffffffffffffffffffffffffffffffffffffffffffffffffffffffffffffff831115610b1157610b10610acf565b5b602083029250610b228385846109ee565b82840190509392505050565b5f61012082019050610b425f8301886109f7565b610b4f6040830187610a61565b610b5c60c08301866109f7565b818103610100830152610b70818486610ad3565b90509695505050505050565b610b8581610575565b8114610b8f575f5ffd5b50565b5f81519050610ba081610b7c565b92915050565b5f60208284031215610bbb57610bba61063b565b5b5f610bc884828501610b92565b91505092915050565b7f696e76616c69642074616c6c792070726f6f66000000000000000000000000005f82015250565b5f610c05601383610976565b9150610c1082610bd1565b602082019050919050565b5f6020820190508181035f830152610c3281610bf9565b9050919050565b7f4e487b71000000000000000000000000000000000000000000000000000000005f52603260045260245ffd5b7f4e487b71000000000000000000000000000000000000000000000000000000005f52601160045260245ffd5b5f610c9d82610643565b9150610ca883610643565b9250828201905080821115610cc057610cbf610c66565b5b92915050565b610ccf81610819565b82525050565b5f604082019050610ce85f8301856106a1565b610cf56020830184610cc6565b9392505050565b5f610d0682610643565b91507fffffffffffffffffffffffffffffffffffffffffffffffffffffffffffffffff8203610d3857610d37610c66565b5b600182019050919050565b7f636c6f73656400000000000000000000000000000000000000000000000000005f82015250565b5f610d77600683610976565b9150610d8282610d43565b602082019050919050565b5f6020820190508181035f830152610da481610d6b565b9050919050565b5f610db5826105a8565b9050919050565b610dc581610dab565b82525050565b5f82825260208201905092915050565b828183375f83830152505050565b5f601f19601f8301169050919050565b5f610e048385610dcb565b9350610e11838584610ddb565b610e1a83610de9565b840190509392505050565b5f608082019050610e385f830188610dbc565b610e4560208301876106a1565b610e5260408301866106a1565b8181036060830152610e65818486610df9565b90509695505050505050565b5f81519050919050565b8281835e5f83830152505050565b5f610e9382610e71565b610e9d8185610dcb565b9350610ead818560208601610e7b565b610eb681610de9565b840191505092915050565b5f6020820190508181035f830152610ed98184610e89565b90509291505056fea2646970667358221220bef1613ae775a6460429a3a5dc48ec254a85736c88b93a964212f3aea380e6a964736f6c634300081c0033","linkReferences":{}},"methodIdentifiers":{"createElection(bytes32)":"9aec6867","elections(uint256)":"5e6fef01","enqueueMessage(uint256,uint256,bytes)":"ef851d95","maci()":"34a0922c","nextId()":"61b8ce8c","tallied()":"178e10ca","tallyVerifier()":"aa7f0869","tallyVotes(uint256[2],uint256[2][2],uint256[2],uint256[])":"6d931a78"},"id":0}