{"abi":[{"type":"constructor","inputs":[{"name":"_m","type":"address","internalType":"contract IMACI"}],"stateMutability":"nonpayable"},{"type":"function","name":"createElection","inputs":[{"name":"meta","type":"bytes32","internalType":"bytes32"}],"outputs":[],"stateMutability":"nonpayable"},{"type":"function","name":"elections","inputs":[{"name":"","type":"uint256","internalType":"uint256"}],"outputs":[{"name":"start","type":"uint256","internalType":"uint256"},{"name":"end","type":"uint256","internalType":"uint256"}],"stateMutability":"view"},{"type":"function","name":"enqueueMessage","inputs":[{"name":"vote","type":"uint256","internalType":"uint256"},{"name":"nonce","type":"uint256","internalType":"uint256"},{"name":"vcProof","type":"bytes","internalType":"bytes"}],"outputs":[],"stateMutability":"nonpayable"},{"type":"function","name":"nextId","inputs":[],"outputs":[{"name":"","type":"uint256","internalType":"uint256"}],"stateMutability":"view"},{"type":"event","name":"ElectionCreated","inputs":[{"name":"id","type":"uint256","indexed":false,"internalType":"uint256"},{"name":"meta","type":"bytes32","indexed":false,"internalType":"bytes32"}],"anonymous":false}],"bytecode":{"object":"0x60a060405234801561000f575f5ffd5b5060405161087f38038061087f833981810160405281019061003191906100da565b8073ffffffffffffffffffffffffffffffffffffffff1660808173ffffffffffffffffffffffffffffffffffffffff168152505050610105565b5f5ffd5b5f73ffffffffffffffffffffffffffffffffffffffff82169050919050565b5f6100988261006f565b9050919050565b5f6100a98261008e565b9050919050565b6100b98161009f565b81146100c3575f5ffd5b50565b5f815190506100d4816100b0565b92915050565b5f602082840312156100ef576100ee61006b565b5b5f6100fc848285016100c6565b91505092915050565b60805161076261011d5f395f6101ec01526107625ff3fe608060405234801561000f575f5ffd5b506004361061004a575f3560e01c80635e6fef011461004e57806361b8ce8c1461007f5780639aec68671461009d578063ef851d95146100b9575b5f5ffd5b610068600480360381019061006391906102d8565b6100d5565b604051610076929190610312565b60405180910390f35b6100876100f4565b6040516100949190610339565b60405180910390f35b6100b760048036038101906100b29190610385565b6100fa565b005b6100d360048036038101906100ce9190610411565b610194565b005b5f602052805f5260405f205f91509050805f0154908060010154905082565b60015481565b6040518060400160405280438152602001611c204361011991906104af565b8152505f5f60015481526020019081526020015f205f820151815f0155602082015181600101559050507fe2363988d6ce7eff8c526836fec08ee2162d5dd2ce672d06748c6dde5bf9986a60015f815480929190610176906104e2565b9190505582604051610189929190610538565b60405180910390a150565b5f5f5f81526020019081526020015f20600101544311156101ea576040517f08c379a00000000000000000000000000000000000000000000000000000000081526004016101e1906105b9565b60405180910390fd5b7f000000000000000000000000000000000000000000000000000000000000000073ffffffffffffffffffffffffffffffffffffffff1663ce29e0af338686868660405160200161023f959493929190610670565b6040516020818303038152906040526040518263ffffffff1660e01b815260040161026a919061070c565b5f604051808303815f87803b158015610281575f5ffd5b505af1158015610293573d5f5f3e3d5ffd5b5050505050505050565b5f5ffd5b5f5ffd5b5f819050919050565b6102b7816102a5565b81146102c1575f5ffd5b50565b5f813590506102d2816102ae565b92915050565b5f602082840312156102ed576102ec61029d565b5b5f6102fa848285016102c4565b91505092915050565b61030c816102a5565b82525050565b5f6040820190506103255f830185610303565b6103326020830184610303565b9392505050565b5f60208201905061034c5f830184610303565b92915050565b5f819050919050565b61036481610352565b811461036e575f5ffd5b50565b5f8135905061037f8161035b565b92915050565b5f6020828403121561039a5761039961029d565b5b5f6103a784828501610371565b91505092915050565b5f5ffd5b5f5ffd5b5f5ffd5b5f5f83601f8401126103d1576103d06103b0565b5b8235905067ffffffffffffffff8111156103ee576103ed6103b4565b5b60208301915083600182028301111561040a576104096103b8565b5b9250929050565b5f5f5f5f606085870312156104295761042861029d565b5b5f610436878288016102c4565b9450506020610447878288016102c4565b935050604085013567ffffffffffffffff811115610468576104676102a1565b5b610474878288016103bc565b925092505092959194509250565b7f4e487b71000000000000000000000000000000000000000000000000000000005f52601160045260245ffd5b5f6104b9826102a5565b91506104c4836102a5565b92508282019050808211156104dc576104db610482565b5b92915050565b5f6104ec826102a5565b91507fffffffffffffffffffffffffffffffffffffffffffffffffffffffffffffffff820361051e5761051d610482565b5b600182019050919050565b61053281610352565b82525050565b5f60408201905061054b5f830185610303565b6105586020830184610529565b9392505050565b5f82825260208201905092915050565b7f636c6f73656400000000000000000000000000000000000000000000000000005f82015250565b5f6105a360068361055f565b91506105ae8261056f565b602082019050919050565b5f6020820190508181035f8301526105d081610597565b9050919050565b5f73ffffffffffffffffffffffffffffffffffffffff82169050919050565b5f610600826105d7565b9050919050565b610610816105f6565b82525050565b5f82825260208201905092915050565b828183375f83830152505050565b5f601f19601f8301169050919050565b5f61064f8385610616565b935061065c838584610626565b61066583610634565b840190509392505050565b5f6080820190506106835f830188610607565b6106906020830187610303565b61069d6040830186610303565b81810360608301526106b0818486610644565b90509695505050505050565b5f81519050919050565b8281835e5f83830152505050565b5f6106de826106bc565b6106e88185610616565b93506106f88185602086016106c6565b61070181610634565b840191505092915050565b5f6020820190508181035f83015261072481846106d4565b90509291505056fea26469706673582212205bd0eb25d6e9789b42274afefe79ad7af46b10949395c0abf6094bed5d744e0c64736f6c634300081c0033","linkReferences":{}},"methodIdentifiers":{"createElection(bytes32)":"9aec6867","elections(uint256)":"5e6fef01","enqueueMessage(uint256,uint256,bytes)":"ef851d95","nextId()":"61b8ce8c"},"id":0}