{"abi":[{"type":"constructor","inputs":[{"name":"_m","type":"address","internalType":"contract IMACI"}],"stateMutability":"nonpayable"},{"type":"function","name":"createElection","inputs":[{"name":"meta","type":"bytes32","internalType":"bytes32"}],"outputs":[],"stateMutability":"nonpayable"},{"type":"function","name":"elections","inputs":[{"name":"","type":"uint256","internalType":"uint256"}],"outputs":[{"name":"start","type":"uint256","internalType":"uint256"},{"name":"end","type":"uint256","internalType":"uint256"}],"stateMutability":"view"},{"type":"function","name":"enqueueMessage","inputs":[{"name":"vote","type":"uint256","internalType":"uint256"},{"name":"nonce","type":"uint256","internalType":"uint256"},{"name":"vcProof","type":"bytes","internalType":"bytes"}],"outputs":[],"stateMutability":"nonpayable"},{"type":"function","name":"maci","inputs":[],"outputs":[{"name":"","type":"address","internalType":"contract IMACI"}],"stateMutability":"view"},{"type":"function","name":"nextId","inputs":[],"outputs":[{"name":"","type":"uint256","internalType":"uint256"}],"stateMutability":"view"},{"type":"function","name":"tallied","inputs":[],"outputs":[{"name":"","type":"bool","internalType":"bool"}],"stateMutability":"view"},{"type":"function","name":"tallyVerifier","inputs":[],"outputs":[{"name":"","type":"address","internalType":"contract TallyVerifier"}],"stateMutability":"view"},{"type":"function","name":"tallyVotes","inputs":[{"name":"a","type":"uint256[2]","internalType":"uint256[2]"},{"name":"b","type":"uint256[2][2]","internalType":"uint256[2][2]"},{"name":"c","type":"uint256[2]","internalType":"uint256[2]"},{"name":"pubSignals","type":"uint256[7]","internalType":"uint256[7]"}],"outputs":[],"stateMutability":"nonpayable"},{"type":"event","name":"ElectionCreated","inputs":[{"name":"id","type":"uint256","indexed":false,"internalType":"uint256"},{"name":"meta","type":"bytes32","indexed":false,"internalType":"bytes32"}],"anonymous":false},{"type":"event","name":"Tally","inputs":[{"name":"A","type":"uint256","indexed":false,"internalType":"uint256"},{"name":"B","type":"uint256","indexed":false,"internalType":"uint256"}],"anonymous":false}],"bytecode":{"object":"0x60a060405234801561000f575f5ffd5b50604051610fb7380380610fb783398181016040528101906100319190610119565b8073ffffffffffffffffffffffffffffffffffffffff1660808173ffffffffffffffffffffffffffffffffffffffff16815250505f5f5f6101000a81548173ffffffffffffffffffffffffffffffffffffffff021916908373ffffffffffffffffffffffffffffffffffffffff16021790555050610144565b5f5ffd5b5f73ffffffffffffffffffffffffffffffffffffffff82169050919050565b5f6100d7826100ae565b9050919050565b5f6100e8826100cd565b9050919050565b6100f8816100de565b8114610102575f5ffd5b50565b5f81519050610113816100ef565b92915050565b5f6020828403121561012e5761012d6100aa565b5b5f61013b84828501610105565b91505092915050565b608051610e546101635f395f818161019b01526104bd0152610e545ff3fe608060405234801561000f575f5ffd5b5060043610610086575f3560e01c806361b8ce8c1161005957806361b8ce8c146101135780639aec686714610131578063aa7f08691461014d578063ef851d951461016b57610086565b8063178e10ca1461008a57806334a0922c146100a857806336878f14146100c65780635e6fef01146100e2575b5f5ffd5b610092610187565b60405161009f9190610588565b60405180910390f35b6100b0610199565b6040516100bd919061061b565b60405180910390f35b6100e060048036038101906100db91906106a3565b6101bd565b005b6100fc60048036038101906100f7919061073c565b61037b565b60405161010a929190610776565b60405180910390f35b61011b61039b565b604051610128919061079d565b60405180910390f35b61014b600480360381019061014691906107e9565b6103a1565b005b610155610440565b6040516101629190610834565b60405180910390f35b610185600480360381019061018091906108aa565b610464565b005b5f60149054906101000a900460ff1681565b7f000000000000000000000000000000000000000000000000000000000000000081565b5f60149054906101000a900460ff161561020c576040517f08c379a000000000000000000000000000000000000000000000000000000000815260040161020390610975565b60405180910390fd5b5f5f9054906101000a900473ffffffffffffffffffffffffffffffffffffffff1673ffffffffffffffffffffffffffffffffffffffff1663c894e757858585856040518563ffffffff1660e01b815260040161026b9493929190610a74565b602060405180830381865afa158015610286573d5f5f3e3d5ffd5b505050506040513d601f19601f820116820180604052508101906102aa9190610ae3565b6102e9576040517f08c379a00000000000000000000000000000000000000000000000000000000081526004016102e090610b58565b60405180910390fd5b5f5f825f600781106102fe576102fd610b76565b5b60200201358360016007811061031757610316610b76565b5b6020020135915091507ff6455e323dbf05e2ea3f088f72e2de0236f9aa7cd006756ca9ec70ed758e733a8282604051610351929190610776565b60405180910390a160015f60146101000a81548160ff021916908315150217905550505050505050565b6001602052805f5260405f205f91509050805f0154908060010154905082565b60025481565b6040518060400160405280438152602001611c20436103c09190610bd0565b81525060015f60025481526020019081526020015f205f820151815f0155602082015181600101559050507fe2363988d6ce7eff8c526836fec08ee2162d5dd2ce672d06748c6dde5bf9986a6002548260405161041e929190610c12565b60405180910390a160025f81548092919061043890610c39565b919050555050565b5f5f9054906101000a900473ffffffffffffffffffffffffffffffffffffffff1681565b60015f5f81526020019081526020015f20600101544311156104bb576040517f08c379a00000000000000000000000000000000000000000000000000000000081526004016104b290610cca565b60405180910390fd5b7f000000000000000000000000000000000000000000000000000000000000000073ffffffffffffffffffffffffffffffffffffffff1663ce29e0af3386868686604051602001610510959493929190610d62565b6040516020818303038152906040526040518263ffffffff1660e01b815260040161053b9190610dfe565b5f604051808303815f87803b158015610552575f5ffd5b505af1158015610564573d5f5f3e3d5ffd5b5050505050505050565b5f8115159050919050565b6105828161056e565b82525050565b5f60208201905061059b5f830184610579565b92915050565b5f73ffffffffffffffffffffffffffffffffffffffff82169050919050565b5f819050919050565b5f6105e36105de6105d9846105a1565b6105c0565b6105a1565b9050919050565b5f6105f4826105c9565b9050919050565b5f610605826105ea565b9050919050565b610615816105fb565b82525050565b5f60208201905061062e5f83018461060c565b92915050565b5f5ffd5b5f5ffd5b5f5ffd5b5f8190508260206002028201111561065b5761065a61063c565b5b92915050565b5f8190508260406002028201111561067c5761067b61063c565b5b92915050565b5f8190508260206007028201111561069d5761069c61063c565b5b92915050565b5f5f5f5f6101e085870312156106bc576106bb610634565b5b5f6106c987828801610640565b94505060406106da87828801610661565b93505060c06106eb87828801610640565b9250506101006106fd87828801610682565b91505092959194509250565b5f819050919050565b61071b81610709565b8114610725575f5ffd5b50565b5f8135905061073681610712565b92915050565b5f6020828403121561075157610750610634565b5b5f61075e84828501610728565b91505092915050565b61077081610709565b82525050565b5f6040820190506107895f830185610767565b6107966020830184610767565b9392505050565b5f6020820190506107b05f830184610767565b92915050565b5f819050919050565b6107c8816107b6565b81146107d2575f5ffd5b50565b5f813590506107e3816107bf565b92915050565b5f602082840312156107fe576107fd610634565b5b5f61080b848285016107d5565b91505092915050565b5f61081e826105ea565b9050919050565b61082e81610814565b82525050565b5f6020820190506108475f830184610825565b92915050565b5f5ffd5b5f5ffd5b5f5f83601f84011261086a5761086961084d565b5b8235905067ffffffffffffffff81111561088757610886610851565b5b6020830191508360018202830111156108a3576108a261063c565b5b9250929050565b5f5f5f5f606085870312156108c2576108c1610634565b5b5f6108cf87828801610728565b94505060206108e087828801610728565b935050604085013567ffffffffffffffff81111561090157610900610638565b5b61090d87828801610855565b925092505092959194509250565b5f82825260208201905092915050565b7f616c72656164792074616c6c69656400000000000000000000000000000000005f82015250565b5f61095f600f8361091b565b915061096a8261092b565b602082019050919050565b5f6020820190508181035f83015261098c81610953565b9050919050565b82818337505050565b6109a860408383610993565b5050565b5f60029050919050565b5f81905092915050565b5f819050919050565b6109d560408383610993565b5050565b5f6109e483836109c9565b60408301905092915050565b5f82905092915050565b5f604082019050919050565b610a0f816109ac565b610a1981846109b6565b9250610a24826109c0565b805f5b83811015610a5c57610a3982846109f0565b610a4387826109d9565b9650610a4e836109fa565b925050600181019050610a27565b505050505050565b610a7060e08383610993565b5050565b5f6101e082019050610a885f83018761099c565b610a956040830186610a06565b610aa260c083018561099c565b610ab0610100830184610a64565b95945050505050565b610ac28161056e565b8114610acc575f5ffd5b50565b5f81519050610add81610ab9565b92915050565b5f60208284031215610af857610af7610634565b5b5f610b0584828501610acf565b91505092915050565b7f696e76616c69642074616c6c792070726f6f66000000000000000000000000005f82015250565b5f610b4260138361091b565b9150610b4d82610b0e565b602082019050919050565b5f6020820190508181035f830152610b6f81610b36565b9050919050565b7f4e487b71000000000000000000000000000000000000000000000000000000005f52603260045260245ffd5b7f4e487b71000000000000000000000000000000000000000000000000000000005f52601160045260245ffd5b5f610bda82610709565b9150610be583610709565b9250828201905080821115610bfd57610bfc610ba3565b5b92915050565b610c0c816107b6565b82525050565b5f604082019050610c255f830185610767565b610c326020830184610c03565b9392505050565b5f610c4382610709565b91507fffffffffffffffffffffffffffffffffffffffffffffffffffffffffffffffff8203610c7557610c74610ba3565b5b600182019050919050565b7f636c6f73656400000000000000000000000000000000000000000000000000005f82015250565b5f610cb460068361091b565b9150610cbf82610c80565b602082019050919050565b5f6020820190508181035f830152610ce181610ca8565b9050919050565b5f610cf2826105a1565b9050919050565b610d0281610ce8565b82525050565b5f82825260208201905092915050565b828183375f83830152505050565b5f601f19601f8301169050919050565b5f610d418385610d08565b9350610d4e838584610d18565b610d5783610d26565b840190509392505050565b5f608082019050610d755f830188610cf9565b610d826020830187610767565b610d8f6040830186610767565b8181036060830152610da2818486610d36565b90509695505050505050565b5f81519050919050565b8281835e5f83830152505050565b5f610dd082610dae565b610dda8185610d08565b9350610dea818560208601610db8565b610df381610d26565b840191505092915050565b5f6020820190508181035f830152610e168184610dc6565b90509291505056fea264697066735822122073e6febbb29838a1d398ea5e3a998f8aa9d5a97a4a86717b71b47eacae19424264736f6c634300081c0033","linkReferences":{}},"methodIdentifiers":{"createElection(bytes32)":"9aec6867","elections(uint256)":"5e6fef01","enqueueMessage(uint256,uint256,bytes)":"ef851d95","maci()":"34a0922c","nextId()":"61b8ce8c","tallied()":"178e10ca","tallyVerifier()":"aa7f0869","tallyVotes(uint256[2],uint256[2][2],uint256[2],uint256[7])":"36878f14"},"id":0}