{"abi":[{"type":"constructor","inputs":[{"name":"_m","type":"address","internalType":"contract IMACI"}],"stateMutability":"nonpayable"},{"type":"function","name":"createElection","inputs":[{"name":"meta","type":"bytes32","internalType":"bytes32"}],"outputs":[],"stateMutability":"nonpayable"},{"type":"function","name":"elections","inputs":[{"name":"","type":"uint256","internalType":"uint256"}],"outputs":[{"name":"start","type":"uint128","internalType":"uint128"},{"name":"end","type":"uint128","internalType":"uint128"}],"stateMutability":"view"},{"type":"function","name":"enqueueMessage","inputs":[{"name":"id","type":"uint256","internalType":"uint256"},{"name":"vote","type":"uint256","internalType":"uint256"},{"name":"nonce","type":"uint256","internalType":"uint256"},{"name":"vcProof","type":"bytes","internalType":"bytes"}],"outputs":[],"stateMutability":"nonpayable"},{"type":"function","name":"maci","inputs":[],"outputs":[{"name":"","type":"address","internalType":"contract IMACI"}],"stateMutability":"view"},{"type":"function","name":"nextId","inputs":[],"outputs":[{"name":"","type":"uint256","internalType":"uint256"}],"stateMutability":"view"},{"type":"function","name":"tallies","inputs":[{"name":"","type":"uint256","internalType":"uint256"}],"outputs":[{"name":"tallied","type":"bool","internalType":"bool"}],"stateMutability":"view"},{"type":"function","name":"tallyVerifier","inputs":[],"outputs":[{"name":"","type":"address","internalType":"contract TallyVerifier"}],"stateMutability":"view"},{"type":"function","name":"tallyVotes","inputs":[{"name":"id","type":"uint256","internalType":"uint256"},{"name":"a","type":"uint256[2]","internalType":"uint256[2]"},{"name":"b","type":"uint256[2][2]","internalType":"uint256[2][2]"},{"name":"c","type":"uint256[2]","internalType":"uint256[2]"},{"name":"pubSignals","type":"uint256[7]","internalType":"uint256[7]"}],"outputs":[],"stateMutability":"nonpayable"},{"type":"event","name":"ElectionCreated","inputs":[{"name":"id","type":"uint256","indexed":false,"internalType":"uint256"},{"name":"meta","type":"bytes32","indexed":true,"internalType":"bytes32"}],"anonymous":false},{"type":"event","name":"Tally","inputs":[{"name":"id","type":"uint256","indexed":false,"internalType":"uint256"},{"name":"A","type":"uint256","indexed":false,"internalType":"uint256"},{"name":"B","type":"uint256","indexed":false,"internalType":"uint256"}],"anonymous":false}],"bytecode":{"object":"0x60a03461008057601f6109ba38819003918201601f19168301916001600160401b038311848410176100845780849260209460405283398101031261008057516001600160a01b0381168103610080576080525f80546001600160a01b0319169055604051610921908161009982396080518181816102b5015261055f0152f35b5f80fd5b634e487b7160e01b5f52604160045260245ffdfe6080604081815260049182361015610015575f80fd5b5f925f3560e01c9182631a32b23714610819575081632b8b8ddf1461058357816334a0922c146105155781635e6fef01146104b657816361b8ce8c1461047a5781637cb85bf8146101dc5781639aec6867146100cd575063aa7f08691461007a575f80fd5b346100c957817ffffffffffffffffffffffffffffffffffffffffffffffffffffffffffffffffc3601126100c95773ffffffffffffffffffffffffffffffffffffffff60209254169051908152f35b5080fd5b8383346100c95760207ffffffffffffffffffffffffffffffffffffffffffffffffffffffffffffffffc3601126100c9576fffffffffffffffffffffffffffffffff92611c204301938443116101b0576001939483519161012d83610861565b8043168352806020840192168252600354875285602052848720925116867fffffffffffffffffffffffffffffffff000000000000000000000000000000008454935160801b169216171790557fe2363988d6ce7eff8c526836fec08ee2162d5dd2ce672d06748c6dde5bf9986a60206003549351928484523592a20160035580f35b6024846011847f4e487b7100000000000000000000000000000000000000000000000000000000835252fd5b919050346104105760807ffffffffffffffffffffffffffffffffffffffffffffffffffffffffffffffffc360112610410576064359160249067ffffffffffffffff6044818611610410573660238701121561041057858301359082821161041057368583890101116104105783355f5260206001815280875f2088519061026382610861565b54906fffffffffffffffffffffffffffffffff82169182825260801c9283910152431015908161046f575b50156104145790601f9161033e60c08973ffffffffffffffffffffffffffffffffffffffff7f00000000000000000000000000000000000000000000000000000000000000001696808b83519e8f94338987015282359086015260443560608601526080808601528260a086015201848401375f8382840101527fffffffffffffffffffffffffffffffffffffffffffffffffffffffffffffffe0968791011681010360a081018c52018a6108aa565b833b156104105797919087519889937fce29e0af0000000000000000000000000000000000000000000000000000000085528188860152805192838a8701525f5b8481106103f857505050505f604484829694601f858585859886010152011681010301925af180156103ee576103b3578580f35b90919293809550116103c457505052005b6041907f4e487b71000000000000000000000000000000000000000000000000000000005f52525ffd5b84513d5f823e3d90fd5b8281018401519681018201969096528b95830161037f565b5f80fd5b846006876064938a51937f08c379a00000000000000000000000000000000000000000000000000000000085528401528201527f636c6f73656400000000000000000000000000000000000000000000000000006044820152fd5b90504311155f61028e565b8234610410575f7ffffffffffffffffffffffffffffffffffffffffffffffffffffffffffffffffc360112610410576020906003549051908152f35b9050346104105760207ffffffffffffffffffffffffffffffffffffffffffffffffffffffffffffffffc36011261041057355f526001602052805f20548151906fffffffffffffffffffffffffffffffff8116825260801c6020820152f35b8234610410575f7ffffffffffffffffffffffffffffffffffffffffffffffffffffffffffffffffc360112610410576020905173ffffffffffffffffffffffffffffffffffffffff7f0000000000000000000000000000000000000000000000000000000000000000168152f35b8234610410576102007ffffffffffffffffffffffffffffffffffffffffffffffffffffffffffffffffc3601126104105781359136606411610410573660e411610410576101249236841161041057366102041161041057805f526002916020926002845260ff855f2054166107bd578373ffffffffffffffffffffffffffffffffffffffff5f54169186519283917fc894e757000000000000000000000000000000000000000000000000000000008352886024878501375f60648a604486015b84841061079d575090508492506101e493915060e460c484013760e08b6101048401375afa908115610793575f9161075d575b501561070157507fe455590a10a592942106a7101b113b909a9750dcb045d140c8fafc2ffb6e573960606002949535835f5285855285875f208260018201556101443591829101558751918583528683015287820152a15f52525f2060017fffffffffffffffffffffffffffffffffffffffffffffffffffffffffffffff008254161790555f80f35b606490838551917f08c379a0000000000000000000000000000000000000000000000000000000008352820152601360248201527f696e76616c69642074616c6c792070726f6f66000000000000000000000000006044820152fd5b90508381813d831161078c575b61077481836108aa565b81010312610410575180151581036104105786610678565b503d61076a565b85513d5f823e3d90fd5b60019395975082949650818093823701920192018894928a879593610645565b606482858751917f08c379a0000000000000000000000000000000000000000000000000000000008352820152600f60248201527f616c72656164792074616c6c69656400000000000000000000000000000000006044820152fd5b9150346104105760207ffffffffffffffffffffffffffffffffffffffffffffffffffffffffffffffffc3601126104105760209260ff91355f52600284525f20541615158152f35b6040810190811067ffffffffffffffff82111761087d57604052565b7f4e487b71000000000000000000000000000000000000000000000000000000005f52604160045260245ffd5b90601f7fffffffffffffffffffffffffffffffffffffffffffffffffffffffffffffffe0910116810190811067ffffffffffffffff82111761087d5760405256fea26469706673582212201ac909412b1cc3a65e1552bcdb53f573ccfa49bbd18e1d91cb49c4a0e624627c64736f6c63430008180033","linkReferences":{}},"methodIdentifiers":{"createElection(bytes32)":"9aec6867","elections(uint256)":"5e6fef01","enqueueMessage(uint256,uint256,uint256,bytes)":"7cb85bf8","maci()":"34a0922c","nextId()":"61b8ce8c","tallies(uint256)":"1a32b237","tallyVerifier()":"aa7f0869","tallyVotes(uint256,uint256[2],uint256[2][2],uint256[2],uint256[7])":"2b8b8ddf"},"id":0}