{"abi":[{"type":"constructor","inputs":[],"stateMutability":"nonpayable"},{"type":"function","name":"UPGRADE_INTERFACE_VERSION","inputs":[],"outputs":[{"name":"","type":"string","internalType":"string"}],"stateMutability":"view"},{"type":"function","name":"createElection","inputs":[{"name":"meta","type":"bytes32","internalType":"bytes32"}],"outputs":[],"stateMutability":"nonpayable"},{"type":"function","name":"elections","inputs":[{"name":"","type":"uint256","internalType":"uint256"}],"outputs":[{"name":"start","type":"uint128","internalType":"uint128"},{"name":"end","type":"uint128","internalType":"uint128"}],"stateMutability":"view"},{"type":"function","name":"enqueueMessage","inputs":[{"name":"id","type":"uint256","internalType":"uint256"},{"name":"vote","type":"uint256","internalType":"uint256"},{"name":"nonce","type":"uint256","internalType":"uint256"},{"name":"vcProof","type":"bytes","internalType":"bytes"}],"outputs":[],"stateMutability":"nonpayable"},{"type":"function","name":"initialize","inputs":[{"name":"_maci","type":"address","internalType":"contract IMACI"},{"name":"initialOwner","type":"address","internalType":"address"}],"outputs":[],"stateMutability":"nonpayable"},{"type":"function","name":"maci","inputs":[],"outputs":[{"name":"","type":"address","internalType":"contract IMACI"}],"stateMutability":"view"},{"type":"function","name":"nextId","inputs":[],"outputs":[{"name":"","type":"uint256","internalType":"uint256"}],"stateMutability":"view"},{"type":"function","name":"owner","inputs":[],"outputs":[{"name":"","type":"address","internalType":"address"}],"stateMutability":"view"},{"type":"function","name":"proxiableUUID","inputs":[],"outputs":[{"name":"","type":"bytes32","internalType":"bytes32"}],"stateMutability":"view"},{"type":"function","name":"result","inputs":[{"name":"","type":"uint256","internalType":"uint256"}],"outputs":[{"name":"","type":"uint256","internalType":"uint256"}],"stateMutability":"view"},{"type":"function","name":"tallied","inputs":[],"outputs":[{"name":"","type":"bool","internalType":"bool"}],"stateMutability":"view"},{"type":"function","name":"tallies","inputs":[{"name":"","type":"uint256","internalType":"uint256"}],"outputs":[{"name":"tallied","type":"bool","internalType":"bool"}],"stateMutability":"view"},{"type":"function","name":"tallyVerifier","inputs":[],"outputs":[{"name":"","type":"address","internalType":"contract TallyVerifier"}],"stateMutability":"view"},{"type":"function","name":"tallyVotes","inputs":[{"name":"id","type":"uint256","internalType":"uint256"},{"name":"a","type":"uint256[2]","internalType":"uint256[2]"},{"name":"b","type":"uint256[2][2]","internalType":"uint256[2][2]"},{"name":"c","type":"uint256[2]","internalType":"uint256[2]"},{"name":"pubSignals","type":"uint256[7]","internalType":"uint256[7]"}],"outputs":[],"stateMutability":"nonpayable"},{"type":"function","name":"transferOwnership","inputs":[{"name":"newOwner","type":"address","internalType":"address"}],"outputs":[],"stateMutability":"nonpayable"},{"type":"function","name":"upgradeTo","inputs":[{"name":"newImplementation","type":"address","internalType":"address"}],"outputs":[],"stateMutability":"nonpayable"},{"type":"function","name":"upgradeToAndCall","inputs":[{"name":"newImplementation","type":"address","internalType":"address"},{"name":"data","type":"bytes","internalType":"bytes"}],"outputs":[],"stateMutability":"payable"},{"type":"event","name":"ElectionCreated","inputs":[{"name":"id","type":"uint256","indexed":true,"internalType":"uint256"},{"name":"meta","type":"bytes32","indexed":false,"internalType":"bytes32"}],"anonymous":false},{"type":"event","name":"Initialized","inputs":[{"name":"version","type":"uint64","indexed":false,"internalType":"uint64"}],"anonymous":false},{"type":"event","name":"OwnershipTransferred","inputs":[{"name":"previousOwner","type":"address","indexed":true,"internalType":"address"},{"name":"newOwner","type":"address","indexed":true,"internalType":"address"}],"anonymous":false},{"type":"event","name":"Tally","inputs":[{"name":"id","type":"uint256","indexed":true,"internalType":"uint256"},{"name":"A","type":"uint256","indexed":false,"internalType":"uint256"},{"name":"B","type":"uint256","indexed":false,"internalType":"uint256"}],"anonymous":false},{"type":"event","name":"Upgraded","inputs":[{"name":"implementation","type":"address","indexed":true,"internalType":"address"}],"anonymous":false},{"type":"error","name":"AddressEmptyCode","inputs":[{"name":"target","type":"address","internalType":"address"}]},{"type":"error","name":"ERC1967InvalidImplementation","inputs":[{"name":"implementation","type":"address","internalType":"address"}]},{"type":"error","name":"ERC1967NonPayable","inputs":[]},{"type":"error","name":"FailedCall","inputs":[]},{"type":"error","name":"InvalidInitialization","inputs":[]},{"type":"error","name":"NotInitializing","inputs":[]},{"type":"error","name":"UUPSUnauthorizedCallContext","inputs":[]},{"type":"error","name":"UUPSUnsupportedProxiableUUID","inputs":[{"name":"slot","type":"bytes32","internalType":"bytes32"}]}],"bytecode":{"object":"0x60a080604052346100c257306080525f516020611b255f395f51905f525460ff8160401c166100b3576002600160401b03196001600160401b03821601610060575b604051611a5e90816100c7823960805181818161073f01526118f30152f35b6001600160401b0319166001600160401b039081175f516020611b255f395f51905f525581527fc7f505b2f371ae2175ee4913f4499e1f2633a7b5936321eed1cdaeb6115181d290602090a15f80610041565b63f92ee8a960e01b5f5260045ffd5b5f80fdfe6080806040526004361015610012575f80fd5b5f905f3560e01c908163178e10ca146116a8575080631a32b2371461165b5780632b8b8ddf1461135057806334a0922c146112ff5780633659cfe6146110665780633c5940591461101a578063485cc95514610abf5780634f1ef286146107b757806352d1902d146106f95780635e6fef011461069757806361b8ce8c1461065b5780637cb85bf8146104055780638da5cb5b146103b45780639aec686714610268578063aa7f086914610216578063ad3cb1cc146101935763f2fde38b146100d9575f80fd5b346101905760207ffffffffffffffffffffffffffffffffffffffffffffffffffffffffffffffffc360112610190576101106116e8565b7fffffffffffffffffffffffff0000000000000000000000000000000000000000825473ffffffffffffffffffffffffffffffffffffffff80821693610157853314611812565b168093610165821515611877565b7f8be0079c531659141344cd1fd0a4f28419497f9722a3daafe3b4186f6b6457e08680a31617815580f35b80fd5b503461019057807ffffffffffffffffffffffffffffffffffffffffffffffffffffffffffffffffc36011261019057506102126040516101d4604082611754565b600581527f352e302e3000000000000000000000000000000000000000000000000000000060208201526040519182916020835260208301906117cf565b0390f35b503461019057807ffffffffffffffffffffffffffffffffffffffffffffffffffffffffffffffffc36011261019057602073ffffffffffffffffffffffffffffffffffffffff60025416604051908152f35b50346101905760207ffffffffffffffffffffffffffffffffffffffffffffffffffffffffffffffffc360112610190576102ba73ffffffffffffffffffffffffffffffffffffffff8254163314611812565b620f4240430180431161038757604051906102d48261170b565b6fffffffffffffffffffffffffffffffff431682526fffffffffffffffffffffffffffffffff6020830191168152600554835260036020527fffffffffffffffffffffffffffffffff000000000000000000000000000000006fffffffffffffffffffffffffffffffff60408520935116915160801b161790556001600554807fe2363988d6ce7eff8c526836fec08ee2162d5dd2ce672d06748c6dde5bf9986a60206040516004358152a20160055580f35b6024827f4e487b710000000000000000000000000000000000000000000000000000000081526011600452fd5b503461019057807ffffffffffffffffffffffffffffffffffffffffffffffffffffffffffffffffc3601126101905773ffffffffffffffffffffffffffffffffffffffff6020915416604051908152f35b50346101905760807ffffffffffffffffffffffffffffffffffffffffffffffffffffffffffffffffc3601126101905760643567ffffffffffffffff811161065757366023820112156106575780600401359067ffffffffffffffff82116106535736602483830101116106535760043583526003602052602060408420604051906104908261170b565b54906fffffffffffffffffffffffffffffffff82169182825260801c92839101524310159081610648575b50156105ea57829161056d60c06024937fffffffffffffffffffffffffffffffffffffffffffffffffffffffffffffffe0601f73ffffffffffffffffffffffffffffffffffffffff6001541695806040519889953360208801528135604088015260443560608801526080808801528260a08801520186860137888582860101520116810103017fffffffffffffffffffffffffffffffffffffffffffffffffffffffffffffffe08101845283611754565b803b156105e6576105b983929183926040519485809481937fce29e0af0000000000000000000000000000000000000000000000000000000083526020600484015260248301906117cf565b03925af180156105db576105ca5750f35b816105d491611754565b6101905780f35b6040513d84823e3d90fd5b5050fd5b60646040517f08c379a000000000000000000000000000000000000000000000000000000000815260206004820152600660248201527f636c6f73656400000000000000000000000000000000000000000000000000006044820152fd5b90504311155f6104bb565b8280fd5b5080fd5b503461019057807ffffffffffffffffffffffffffffffffffffffffffffffffffffffffffffffffc360112610190576020600554604051908152f35b50346101905760207ffffffffffffffffffffffffffffffffffffffffffffffffffffffffffffffffc36011261019057604080916004358152600360205220548151906fffffffffffffffffffffffffffffffff8116825260801c6020820152f35b503461019057807ffffffffffffffffffffffffffffffffffffffffffffffffffffffffffffffffc3601126101905773ffffffffffffffffffffffffffffffffffffffff7f000000000000000000000000000000000000000000000000000000000000000016300361078f5760206040517f360894a13ba1a3210667c828492db98dca3e2076cc3735a920a3ca505d382bbc8152f35b807fe07c8dba0000000000000000000000000000000000000000000000000000000060049252fd5b5060407ffffffffffffffffffffffffffffffffffffffffffffffffffffffffffffffffc360112610190576107ea6116e8565b6024359067ffffffffffffffff82116106535736602383011215610653578160040135908361081883611795565b936108266040519586611754565b83855260208501933660248284010111610653578060246020930186378501015261084f6118dc565b61087173ffffffffffffffffffffffffffffffffffffffff8554163314611812565b73ffffffffffffffffffffffffffffffffffffffff8116926040517f52d1902d000000000000000000000000000000000000000000000000000000008152602081600481885afa869181610a87575b506108f157602486867f4c9c8ce3000000000000000000000000000000000000000000000000000000008252600452fd5b93847f360894a13ba1a3210667c828492db98dca3e2076cc3735a920a3ca505d382bbc879603610a5c5750823b15610a3157908185927fffffffffffffffffffffffff00000000000000000000000000000000000000007f360894a13ba1a3210667c828492db98dca3e2076cc3735a920a3ca505d382bbc5416177f360894a13ba1a3210667c828492db98dca3e2076cc3735a920a3ca505d382bbc557fbc7cd75a20ee27fd9adebab32041f755214dbc6bffa90cc0225b39da2e5c2d3b8380a28051156109fd576109f19382915190845af43d156109f5573d916109d583611795565b926109e36040519485611754565b83523d85602085013e61198f565b5080f35b60609161198f565b5050505034610a095780f35b807fb398979f0000000000000000000000000000000000000000000000000000000060049252fd5b7f4c9c8ce3000000000000000000000000000000000000000000000000000000008552600452602484fd5b7faa1d49a4000000000000000000000000000000000000000000000000000000008652600452602485fd5b9091506020813d602011610ab7575b81610aa360209383611754565b81010312610ab35751905f6108c0565b8680fd5b3d9150610a96565b50346101905760407ffffffffffffffffffffffffffffffffffffffffffffffffffffffffffffffffc3601126101905760043573ffffffffffffffffffffffffffffffffffffffff8116809103610657576024359073ffffffffffffffffffffffffffffffffffffffff8216809203610653577ff0c57e16840df040f15088dc2f81fe391c3923bec73e23a9662efc9c229c6a00549167ffffffffffffffff60ff8460401c1615931680159081611012575b6001149081611008575b159081610fff575b50610fd75782610bf760017fffffffffffffffffffffffffffffffffffffffffffffffff00000000000000007ff0c57e16840df040f15088dc2f81fe391c3923bec73e23a9662efc9c229c6a005416177ff0c57e16840df040f15088dc2f81fe391c3923bec73e23a9662efc9c229c6a0055565b610f61575b7ff0c57e16840df040f15088dc2f81fe391c3923bec73e23a9662efc9c229c6a005467ffffffffffffffff60ff8260401c1615911680159081610f59575b6001149081610f4f575b159081610f46575b50610f1e5780610cc060017fffffffffffffffffffffffffffffffffffffffffffffffff00000000000000007ff0c57e16840df040f15088dc2f81fe391c3923bec73e23a9662efc9c229c6a005416177ff0c57e16840df040f15088dc2f81fe391c3923bec73e23a9662efc9c229c6a0055565b610ea8575b610cd0821515611877565b817fffffffffffffffffffffffff000000000000000000000000000000000000000086541617855560405191857f8be0079c531659141344cd1fd0a4f28419497f9722a3daafe3b4186f6b6457e08180a3610e13575b507fffffffffffffffffffffffff000000000000000000000000000000000000000060015416176001557fffffffffffffffffffffffff000000000000000000000000000000000000000060025416600255610d7f5780f35b7fffffffffffffffffffffffffffffffffffffffffffffff00ffffffffffffffff7ff0c57e16840df040f15088dc2f81fe391c3923bec73e23a9662efc9c229c6a0054167ff0c57e16840df040f15088dc2f81fe391c3923bec73e23a9662efc9c229c6a00557fc7f505b2f371ae2175ee4913f4499e1f2633a7b5936321eed1cdaeb6115181d2602060405160018152a180f35b60207fc7f505b2f371ae2175ee4913f4499e1f2633a7b5936321eed1cdaeb6115181d2917fffffffffffffffffffffffffffffffffffffffffffffff00ffffffffffffffff7ff0c57e16840df040f15088dc2f81fe391c3923bec73e23a9662efc9c229c6a0054167ff0c57e16840df040f15088dc2f81fe391c3923bec73e23a9662efc9c229c6a005560018152a15f610d26565b680100000000000000007fffffffffffffffffffffffffffffffffffffffffffffff00ffffffffffffffff7ff0c57e16840df040f15088dc2f81fe391c3923bec73e23a9662efc9c229c6a005416177ff0c57e16840df040f15088dc2f81fe391c3923bec73e23a9662efc9c229c6a0055610cc5565b6004857ff92ee8a9000000000000000000000000000000000000000000000000000000008152fd5b9050155f610c4c565b303b159150610c44565b829150610c3a565b680100000000000000007fffffffffffffffffffffffffffffffffffffffffffffff00ffffffffffffffff7ff0c57e16840df040f15088dc2f81fe391c3923bec73e23a9662efc9c229c6a005416177ff0c57e16840df040f15088dc2f81fe391c3923bec73e23a9662efc9c229c6a0055610bfc565b6004847ff92ee8a9000000000000000000000000000000000000000000000000000000008152fd5b9050155f610b83565b303b159150610b7b565b849150610b71565b50346101905760207ffffffffffffffffffffffffffffffffffffffffffffffffffffffffffffffffc360112610190576004356002811015610657576020915060060154604051908152f35b50346112f45760207ffffffffffffffffffffffffffffffffffffffffffffffffffffffffffffffffc3601126112f45761109e6116e8565b73ffffffffffffffffffffffffffffffffffffffff5f541633146110c181611812565b6110c96118dc565b60206110ec604051926110dc8385611754565b5f84526110e76118dc565b611812565b73ffffffffffffffffffffffffffffffffffffffff8316926040517f52d1902d0000000000000000000000000000000000000000000000000000000081528281600481885afa5f91816112cc575b5061116b57602486867f4c9c8ce3000000000000000000000000000000000000000000000000000000008252600452fd5b93847f360894a13ba1a3210667c828492db98dca3e2076cc3735a920a3ca505d382bbc8796036112a15750813b1561127657807fffffffffffffffffffffffff00000000000000000000000000000000000000007f360894a13ba1a3210667c828492db98dca3e2076cc3735a920a3ca505d382bbc5416177f360894a13ba1a3210667c828492db98dca3e2076cc3735a920a3ca505d382bbc557fbc7cd75a20ee27fd9adebab32041f755214dbc6bffa90cc0225b39da2e5c2d3b5f80a282511561127457838084846109f196519101845af4903d1561126b573d61124f81611795565b9061125d6040519283611754565b81528581943d92013e61198f565b6060925061198f565b005b7f4c9c8ce3000000000000000000000000000000000000000000000000000000005f5260045260245ffd5b7faa1d49a4000000000000000000000000000000000000000000000000000000005f5260045260245ffd5b9091508381813d83116112f8575b6112e48183611754565b810103126112f45751905f61113a565b5f80fd5b503d6112da565b346112f4575f7ffffffffffffffffffffffffffffffffffffffffffffffffffffffffffffffffc3601126112f457602073ffffffffffffffffffffffffffffffffffffffff60015416604051908152f35b346112f4576102007ffffffffffffffffffffffffffffffffffffffffffffffffffffffffffffffffc3601126112f457600435366064116112f4573660e4116112f45736610124116112f45736610204116112f4576113c773ffffffffffffffffffffffffffffffffffffffff5f54163314611812565b805f52600460205260ff60405f2054166115fd5773ffffffffffffffffffffffffffffffffffffffff60025416604051907fc894e7570000000000000000000000000000000000000000000000000000000082526040602460048401378160645f604483015b600282106115e3575050506101e481602093604060e460c484013760e06101246101048401375afa9081156115d8575f9161159d575b501561153f57807fe455590a10a592942106a7101b113b909a9750dcb045d140c8fafc2ffb6e5739604061012435806006556101443580600755845f526004602052816001845f200155845f526004602052806002845f20015582519182526020820152a25f52600460205260405f2060017fffffffffffffffffffffffffffffffffffffffffffffffffffffffffffffff00825416179055740100000000000000000000000000000000000000007fffffffffffffffffffffff00ffffffffffffffffffffffffffffffffffffffff60025416176002555f80f35b60646040517f08c379a000000000000000000000000000000000000000000000000000000000815260206004820152601360248201527f696e76616c69642074616c6c792070726f6f66000000000000000000000000006044820152fd5b90506020813d6020116115d0575b816115b860209383611754565b810103126112f4575180151581036112f45782611463565b3d91506115ab565b6040513d5f823e3d90fd5b82935060408181600194958194370193019101849261142d565b60646040517f08c379a000000000000000000000000000000000000000000000000000000000815260206004820152600f60248201527f616c72656164792074616c6c69656400000000000000000000000000000000006044820152fd5b346112f45760207ffffffffffffffffffffffffffffffffffffffffffffffffffffffffffffffffc3601126112f4576004355f526004602052602060ff60405f2054166040519015158152f35b346112f4575f7ffffffffffffffffffffffffffffffffffffffffffffffffffffffffffffffffc3601126112f45760209060ff60025460a01c1615158152f35b6004359073ffffffffffffffffffffffffffffffffffffffff821682036112f457565b6040810190811067ffffffffffffffff82111761172757604052565b7f4e487b71000000000000000000000000000000000000000000000000000000005f52604160045260245ffd5b90601f7fffffffffffffffffffffffffffffffffffffffffffffffffffffffffffffffe0910116810190811067ffffffffffffffff82111761172757604052565b67ffffffffffffffff811161172757601f017fffffffffffffffffffffffffffffffffffffffffffffffffffffffffffffffe01660200190565b907fffffffffffffffffffffffffffffffffffffffffffffffffffffffffffffffe0601f602080948051918291828752018686015e5f8582860101520116010190565b1561181957565b60646040517f08c379a000000000000000000000000000000000000000000000000000000000815260206004820152600960248201527f6e6f74206f776e657200000000000000000000000000000000000000000000006044820152fd5b1561187e57565b60646040517f08c379a000000000000000000000000000000000000000000000000000000000815260206004820152600a60248201527f6f776e6572207a65726f000000000000000000000000000000000000000000006044820152fd5b73ffffffffffffffffffffffffffffffffffffffff7f00000000000000000000000000000000000000000000000000000000000000001680301490811561194d575b5061192557565b7fe07c8dba000000000000000000000000000000000000000000000000000000005f5260045ffd5b905073ffffffffffffffffffffffffffffffffffffffff7f360894a13ba1a3210667c828492db98dca3e2076cc3735a920a3ca505d382bbc541614155f61191e565b906119cc57508051156119a457805190602001fd5b7fd6bda275000000000000000000000000000000000000000000000000000000005f5260045ffd5b81511580611a1f575b6119dd575090565b73ffffffffffffffffffffffffffffffffffffffff907f9996b315000000000000000000000000000000000000000000000000000000005f521660045260245ffd5b50803b156119d556fea26469706673582212201150337ed52a7cb7def921bd739eb93c2e2a21787dcc1401ec3af918902ffff064736f6c634300081d0033f0c57e16840df040f15088dc2f81fe391c3923bec73e23a9662efc9c229c6a00","linkReferences":{}},"methodIdentifiers":{"UPGRADE_INTERFACE_VERSION()":"ad3cb1cc","createElection(bytes32)":"9aec6867","elections(uint256)":"5e6fef01","enqueueMessage(uint256,uint256,uint256,bytes)":"7cb85bf8","initialize(address,address)":"485cc955","maci()":"34a0922c","nextId()":"61b8ce8c","owner()":"8da5cb5b","proxiableUUID()":"52d1902d","result(uint256)":"3c594059","tallied()":"178e10ca","tallies(uint256)":"1a32b237","tallyVerifier()":"aa7f0869","tallyVotes(uint256,uint256[2],uint256[2][2],uint256[2],uint256[7])":"2b8b8ddf","transferOwnership(address)":"f2fde38b","upgradeTo(address)":"3659cfe6","upgradeToAndCall(address,bytes)":"4f1ef286"},"id":1}