{"abi":[{"type":"constructor","inputs":[],"stateMutability":"nonpayable"},{"type":"function","name":"createElection","inputs":[{"name":"meta","type":"bytes32","internalType":"bytes32"}],"outputs":[],"stateMutability":"nonpayable"},{"type":"function","name":"elections","inputs":[{"name":"","type":"uint256","internalType":"uint256"}],"outputs":[{"name":"start","type":"uint128","internalType":"uint128"},{"name":"end","type":"uint128","internalType":"uint128"}],"stateMutability":"view"},{"type":"function","name":"enqueueMessage","inputs":[{"name":"id","type":"uint256","internalType":"uint256"},{"name":"vote","type":"uint256","internalType":"uint256"},{"name":"nonce","type":"uint256","internalType":"uint256"},{"name":"vcProof","type":"bytes","internalType":"bytes"}],"outputs":[],"stateMutability":"nonpayable"},{"type":"function","name":"initialize","inputs":[{"name":"_maci","type":"address","internalType":"contract IMACI"},{"name":"initialOwner","type":"address","internalType":"address"}],"outputs":[],"stateMutability":"nonpayable"},{"type":"function","name":"maci","inputs":[],"outputs":[{"name":"","type":"address","internalType":"contract IMACI"}],"stateMutability":"view"},{"type":"function","name":"nextId","inputs":[],"outputs":[{"name":"","type":"uint256","internalType":"uint256"}],"stateMutability":"view"},{"type":"function","name":"owner","inputs":[],"outputs":[{"name":"","type":"address","internalType":"address"}],"stateMutability":"view"},{"type":"function","name":"proxiableUUID","inputs":[],"outputs":[{"name":"","type":"bytes32","internalType":"bytes32"}],"stateMutability":"view"},{"type":"function","name":"result","inputs":[{"name":"","type":"uint256","internalType":"uint256"}],"outputs":[{"name":"","type":"uint256","internalType":"uint256"}],"stateMutability":"view"},{"type":"function","name":"tallied","inputs":[],"outputs":[{"name":"","type":"bool","internalType":"bool"}],"stateMutability":"view"},{"type":"function","name":"tallies","inputs":[{"name":"","type":"uint256","internalType":"uint256"}],"outputs":[{"name":"tallied","type":"bool","internalType":"bool"}],"stateMutability":"view"},{"type":"function","name":"tallyVerifier","inputs":[],"outputs":[{"name":"","type":"address","internalType":"contract TallyVerifier"}],"stateMutability":"view"},{"type":"function","name":"tallyVotes","inputs":[{"name":"id","type":"uint256","internalType":"uint256"},{"name":"a","type":"uint256[2]","internalType":"uint256[2]"},{"name":"b","type":"uint256[2][2]","internalType":"uint256[2][2]"},{"name":"c","type":"uint256[2]","internalType":"uint256[2]"},{"name":"pubSignals","type":"uint256[7]","internalType":"uint256[7]"}],"outputs":[],"stateMutability":"nonpayable"},{"type":"function","name":"transferOwnership","inputs":[{"name":"newOwner","type":"address","internalType":"address"}],"outputs":[],"stateMutability":"nonpayable"},{"type":"function","name":"upgradeTo","inputs":[{"name":"newImplementation","type":"address","internalType":"address"}],"outputs":[],"stateMutability":"nonpayable"},{"type":"function","name":"upgradeToAndCall","inputs":[{"name":"newImplementation","type":"address","internalType":"address"},{"name":"data","type":"bytes","internalType":"bytes"}],"outputs":[],"stateMutability":"payable"},{"type":"event","name":"AdminChanged","inputs":[{"name":"previousAdmin","type":"address","indexed":false,"internalType":"address"},{"name":"newAdmin","type":"address","indexed":false,"internalType":"address"}],"anonymous":false},{"type":"event","name":"BeaconUpgraded","inputs":[{"name":"beacon","type":"address","indexed":true,"internalType":"address"}],"anonymous":false},{"type":"event","name":"ElectionCreated","inputs":[{"name":"id","type":"uint256","indexed":true,"internalType":"uint256"},{"name":"meta","type":"bytes32","indexed":false,"internalType":"bytes32"}],"anonymous":false},{"type":"event","name":"Initialized","inputs":[{"name":"version","type":"uint8","indexed":false,"internalType":"uint8"}],"anonymous":false},{"type":"event","name":"OwnershipTransferred","inputs":[{"name":"previousOwner","type":"address","indexed":true,"internalType":"address"},{"name":"newOwner","type":"address","indexed":true,"internalType":"address"}],"anonymous":false},{"type":"event","name":"Tally","inputs":[{"name":"id","type":"uint256","indexed":true,"internalType":"uint256"},{"name":"A","type":"uint256","indexed":false,"internalType":"uint256"},{"name":"B","type":"uint256","indexed":false,"internalType":"uint256"}],"anonymous":false},{"type":"event","name":"Upgraded","inputs":[{"name":"implementation","type":"address","indexed":true,"internalType":"address"}],"anonymous":false}],"bytecode":{"object":"0x60a080604052346100da57306080525f549060ff8260081c16610088575060ff8082160361004e575b6040516119df90816100df82396080518181816106d60152818161084e0152610e970152f35b60ff90811916175f557f7f26b83ff96e1f2b6a682f133852f6798a09c465da95921460cefb3847402498602060405160ff8152a15f610028565b62461bcd60e51b815260206004820152602760248201527f496e697469616c697a61626c653a20636f6e747261637420697320696e697469604482015266616c697a696e6760c81b6064820152608490fd5b5f80fdfe60806040818152600480361015610014575f80fd5b5f925f3560e01c908163178e10ca1461144b575080631a32b237146114015780632b8b8ddf1461111c57806334a0922c146110ca5780633659cfe614610e435780633c59405914610dfa578063485cc95514610b565780634f1ef286146107a757806352d1902d146106905780635e6fef011461063257806361b8ce8c146105f65780637cb85bf8146103ab5780638da5cb5b146103575780639aec686714610220578063aa7f0869146101c95763f2fde38b146100d0575f80fd5b346101c55760207ffffffffffffffffffffffffffffffffffffffffffffffffffffffffffffffffc3601126101c55761010761148b565b9173ffffffffffffffffffffffffffffffffffffffff61012e81865460101c16331461158e565b831615610142578361013f84611765565b80f35b90602060849251917f08c379a0000000000000000000000000000000000000000000000000000000008352820152602660248201527f4f776e61626c653a206e6577206f776e657220697320746865207a65726f206160448201527f64647265737300000000000000000000000000000000000000000000000000006064820152fd5b8280fd5b50503461021c57817ffffffffffffffffffffffffffffffffffffffffffffffffffffffffffffffffc36011261021c5760209073ffffffffffffffffffffffffffffffffffffffff600254169051908152f35b5080fd5b5082903461021c5760207ffffffffffffffffffffffffffffffffffffffffffffffffffffffffffffffffc36011261021c5761027773ffffffffffffffffffffffffffffffffffffffff835460101c16331461158e565b6fffffffffffffffffffffffffffffffff92620f424043019384431161032b57600193948251916102a7836114ae565b804316835280602084019216825260055487526003602052838720925116867fffffffffffffffffffffffffffffffff000000000000000000000000000000008454935160801b169216171790557fe2363988d6ce7eff8c526836fec08ee2162d5dd2ce672d06748c6dde5bf9986a60206005549384935190358152a20160055580f35b6024846011857f4e487b7100000000000000000000000000000000000000000000000000000000835252fd5b50503461021c57817ffffffffffffffffffffffffffffffffffffffffffffffffffffffffffffffffc36011261021c5773ffffffffffffffffffffffffffffffffffffffff6020925460101c169051908152f35b50903461058b5760807ffffffffffffffffffffffffffffffffffffffffffffffffffffffffffffffffc36011261058b5760249167ffffffffffffffff60643581811161058b573660238201121561058b57808301359082821161058b573686838301011161058b5783355f5260036020526020855f2086519061042e826114ae565b54906fffffffffffffffffffffffffffffffff82169182825260801c928391015243101590816105eb575b501561058f57906104eb60c0879594937fffffffffffffffffffffffffffffffffffffffffffffffffffffffffffffffe0601f73ffffffffffffffffffffffffffffffffffffffff6001541695808b519c8d953360208801528d82359088015260443560608801526080808801528260a088015201868601375f858286010152011681010360a0810189520187611513565b803b1561058b576105345f9691879287519889809481937fce29e0af00000000000000000000000000000000000000000000000000000000835260208a8401528a830190611709565b03925af1801561058157610546578580f35b909192938095501161055757505052005b6041907f4e487b71000000000000000000000000000000000000000000000000000000005f52525ffd5b84513d5f823e3d90fd5b5f80fd5b60648460068860208951937f08c379a00000000000000000000000000000000000000000000000000000000085528401528201527f636c6f73656400000000000000000000000000000000000000000000000000006044820152fd5b90504311155f610459565b823461058b575f7ffffffffffffffffffffffffffffffffffffffffffffffffffffffffffffffffc36011261058b576020906005549051908152f35b503461058b5760207ffffffffffffffffffffffffffffffffffffffffffffffffffffffffffffffffc36011261058b57355f526003602052805f20548151906fffffffffffffffffffffffffffffffff8116825260801c6020820152f35b503461058b575f7ffffffffffffffffffffffffffffffffffffffffffffffffffffffffffffffffc36011261058b5773ffffffffffffffffffffffffffffffffffffffff7f000000000000000000000000000000000000000000000000000000000000000016300361072557602082517f360894a13ba1a3210667c828492db98dca3e2076cc3735a920a3ca505d382bbc8152f35b602060849251917f08c379a0000000000000000000000000000000000000000000000000000000008352820152603860248201527f555550535570677261646561626c653a206d757374206e6f742062652063616c60448201527f6c6564207468726f7567682064656c656761746563616c6c00000000000000006064820152fd5b50817ffffffffffffffffffffffffffffffffffffffffffffffffffffffffffffffffc36011261058b576107d961148b565b906024359267ffffffffffffffff841161058b573660238501121561058b57838201359061080682611554565b61081282519182611513565b82815260209283820196366024838301011161058b57815f9260248793018a378301015273ffffffffffffffffffffffffffffffffffffffff807f0000000000000000000000000000000000000000000000000000000000000000169061087b823014156115f3565b6108aa7f360894a13ba1a3210667c828492db98dca3e2076cc3735a920a3ca505d382bbc92828454161461167e565b6108bb815f5460101c16331461158e565b7f4910fdfa16fed3260ed0e7147f7cc6da11a60208b5b9406d12a635614ffd91435460ff16156108f7575050505050506108f591506117ed565b005b869293949596169084517f52d1902d00000000000000000000000000000000000000000000000000000000815286818981865afa5f9181610b27575b506109ba57608488888851917f08c379a0000000000000000000000000000000000000000000000000000000008352820152602e60248201527f45524331393637557067726164653a206e657720696d706c656d656e7461746960448201527f6f6e206973206e6f7420555550530000000000000000000000000000000000006064820152fd5b969192939603610aa557506109ce826117ed565b7fbc7cd75a20ee27fd9adebab32041f755214dbc6bffa90cc0225b39da2e5c2d3b5f80a2835115801590610a9d575b610a0357005b5f806108f596845196610a15886114f7565b602788527f416464726573733a206c6f772d6c6576656c2064656c65676174652063616c6c878901527f206661696c656400000000000000000000000000000000000000000000000000868901525190845af4913d15610a93573d610a85610a7c82611554565b92519283611513565b81525f81943d92013e6118d9565b50606092506118d9565b5060016109fd565b608490858551917f08c379a0000000000000000000000000000000000000000000000000000000008352820152602960248201527f45524331393637557067726164653a20756e737570706f727465642070726f7860448201527f6961626c655555494400000000000000000000000000000000000000000000006064820152fd5b9091508781813d8311610b4f575b610b3f8183611513565b8101031261058b5751908a610933565b503d610b35565b503461058b57817ffffffffffffffffffffffffffffffffffffffffffffffffffffffffffffffffc36011261058b57803573ffffffffffffffffffffffffffffffffffffffff80821680920361058b57602435908116810361058b575f549260ff8460081c161593848095610ded575b8015610dd6575b15610d53578460017fffffffffffffffffffffffffffffffffffffffffffffffffffffffffffffff008316175f55610d25575b5060ff5f5460081c1615610ca25750610c1890611765565b7fffffffffffffffffffffffff00000000000000000000000000000000000000009081600154161760015560025416600255610c5057005b60207f7f26b83ff96e1f2b6a682f133852f6798a09c465da95921460cefb3847402498917fffffffffffffffffffffffffffffffffffffffffffffffffffffffffffff00ff5f54165f555160018152a1005b60849060208651917f08c379a0000000000000000000000000000000000000000000000000000000008352820152602b60248201527f496e697469616c697a61626c653a20636f6e7472616374206973206e6f74206960448201527f6e697469616c697a696e670000000000000000000000000000000000000000006064820152fd5b7fffffffffffffffffffffffffffffffffffffffffffffffffffffffffffff000016610101175f5585610c00565b60848260208851917f08c379a0000000000000000000000000000000000000000000000000000000008352820152602e60248201527f496e697469616c697a61626c653a20636f6e747261637420697320616c72656160448201527f647920696e697469616c697a65640000000000000000000000000000000000006064820152fd5b50303b158015610bcd5750600160ff821614610bcd565b50600160ff821610610bc6565b503461058b5760207ffffffffffffffffffffffffffffffffffffffffffffffffffffffffffffffffc36011261058b573590600282101561058b57602091600601549051908152f35b503461058b57602090817ffffffffffffffffffffffffffffffffffffffffffffffffffffffffffffffffc36011261058b57610e7d61148b565b9173ffffffffffffffffffffffffffffffffffffffff93847f000000000000000000000000000000000000000000000000000000000000000016610ec3813014156115f3565b610ef27f360894a13ba1a3210667c828492db98dca3e2076cc3735a920a3ca505d382bbc91878354161461167e565b610f03865f5460101c16331461158e565b8151908382019682881067ffffffffffffffff89111761109e578784525f83527f4910fdfa16fed3260ed0e7147f7cc6da11a60208b5b9406d12a635614ffd91435460ff1615610f5d575050505050506108f591506117ed565b869293949596169084517f52d1902d00000000000000000000000000000000000000000000000000000000815286818981865afa5f918161106f575b5061102057608488888851917f08c379a0000000000000000000000000000000000000000000000000000000008352820152602e60248201527f45524331393637557067726164653a206e657720696d706c656d656e7461746960448201527f6f6e206973206e6f7420555550530000000000000000000000000000000000006064820152fd5b969192939603610aa55750611034826117ed565b7fbc7cd75a20ee27fd9adebab32041f755214dbc6bffa90cc0225b39da2e5c2d3b5f80a283511580159061106857610a0357005b505f6109fd565b9091508781813d8311611097575b6110878183611513565b8101031261058b5751908a610f99565b503d61107d565b6041867f4e487b71000000000000000000000000000000000000000000000000000000005f525260245ffd5b823461058b575f7ffffffffffffffffffffffffffffffffffffffffffffffffffffffffffffffffc36011261058b5760209073ffffffffffffffffffffffffffffffffffffffff600154169051908152f35b503461058b576102007ffffffffffffffffffffffffffffffffffffffffffffffffffffffffffffffffc36011261058b5780353660641161058b573660e41161058b576101249036821161058b57366102041161058b5773ffffffffffffffffffffffffffffffffffffffff9161119a835f5460101c16331461158e565b815f5260209284845260ff865f2054166113a45783600291600254169187519283917fc894e7570000000000000000000000000000000000000000000000000000000083528960248a8501375f60648b604486015b848410611384575090508492506101e493915060e460c484013760e0876101048401375afa90811561137a575f91611344575b50156112e8577fe455590a10a592942106a7101b113b909a9750dcb045d140c8fafc2ffb6e573985839235806006556101443580600755845f52878752806002845f208460018201550155825191825286820152a25f52525f2060017fffffffffffffffffffffffffffffffffffffffffffffffffffffffffffffff00825416179055740100000000000000000000000000000000000000007fffffffffffffffffffffff00ffffffffffffffffffffffffffffffffffffffff60025416176002555f80f35b505060649251917f08c379a0000000000000000000000000000000000000000000000000000000008352820152601360248201527f696e76616c69642074616c6c792070726f6f66000000000000000000000000006044820152fd5b90508381813d8311611373575b61135b8183611513565b8101031261058b5751801515810361058b5786611222565b503d611351565b86513d5f823e3d90fd5b60019395975082949650818093823701920192018894928b8795936111ef565b50505060649251917f08c379a0000000000000000000000000000000000000000000000000000000008352820152600f60248201527f616c72656164792074616c6c69656400000000000000000000000000000000006044820152fd5b50903461058b5760207ffffffffffffffffffffffffffffffffffffffffffffffffffffffffffffffffc36011261058b5781602092355f52825260ff815f20541690519015158152f35b3461058b575f7ffffffffffffffffffffffffffffffffffffffffffffffffffffffffffffffffc36011261058b5760209060ff60025460a01c1615158152f35b6004359073ffffffffffffffffffffffffffffffffffffffff8216820361058b57565b6040810190811067ffffffffffffffff8211176114ca57604052565b7f4e487b71000000000000000000000000000000000000000000000000000000005f52604160045260245ffd5b6060810190811067ffffffffffffffff8211176114ca57604052565b90601f7fffffffffffffffffffffffffffffffffffffffffffffffffffffffffffffffe0910116810190811067ffffffffffffffff8211176114ca57604052565b67ffffffffffffffff81116114ca57601f017fffffffffffffffffffffffffffffffffffffffffffffffffffffffffffffffe01660200190565b1561159557565b60646040517f08c379a000000000000000000000000000000000000000000000000000000000815260206004820152602060248201527f4f776e61626c653a2063616c6c6572206973206e6f7420746865206f776e65726044820152fd5b156115fa57565b60846040517f08c379a000000000000000000000000000000000000000000000000000000000815260206004820152602c60248201527f46756e6374696f6e206d7573742062652063616c6c6564207468726f7567682060448201527f64656c656761746563616c6c00000000000000000000000000000000000000006064820152fd5b1561168557565b60846040517f08c379a000000000000000000000000000000000000000000000000000000000815260206004820152602c60248201527f46756e6374696f6e206d7573742062652063616c6c6564207468726f7567682060448201527f6163746976652070726f787900000000000000000000000000000000000000006064820152fd5b91908251928382525f5b8481106117515750507fffffffffffffffffffffffffffffffffffffffffffffffffffffffffffffffe0601f845f6020809697860101520116010190565b602081830181015184830182015201611713565b5f549073ffffffffffffffffffffffffffffffffffffffff8175ffffffffffffffffffffffffffffffffffffffff0000829360101b167fffffffffffffffffffff0000000000000000000000000000000000000000ffff8516175f55169160101c167f8be0079c531659141344cd1fd0a4f28419497f9722a3daafe3b4186f6b6457e05f80a3565b803b156118555773ffffffffffffffffffffffffffffffffffffffff7f360894a13ba1a3210667c828492db98dca3e2076cc3735a920a3ca505d382bbc91167fffffffffffffffffffffffff0000000000000000000000000000000000000000825416179055565b60846040517f08c379a000000000000000000000000000000000000000000000000000000000815260206004820152602d60248201527f455243313936373a206e657720696d706c656d656e746174696f6e206973206e60448201527f6f74206120636f6e7472616374000000000000000000000000000000000000006064820152fd5b9192901561195457508151156118ed575090565b3b156118f65790565b60646040517f08c379a000000000000000000000000000000000000000000000000000000000815260206004820152601d60248201527f416464726573733a2063616c6c20746f206e6f6e2d636f6e74726163740000006044820152fd5b8251909150156119675750805190602001fd5b6119a5906040519182917f08c379a0000000000000000000000000000000000000000000000000000000008352602060048401526024830190611709565b0390fdfea2646970667358221220c8f1b67155e058ef92f2365a960d4c5e1b178f1cd0a25f424e72fc7760a0b2c564736f6c63430008180033","linkReferences":{}},"methodIdentifiers":{"createElection(bytes32)":"9aec6867","elections(uint256)":"5e6fef01","enqueueMessage(uint256,uint256,uint256,bytes)":"7cb85bf8","initialize(address,address)":"485cc955","maci()":"34a0922c","nextId()":"61b8ce8c","owner()":"8da5cb5b","proxiableUUID()":"52d1902d","result(uint256)":"3c594059","tallied()":"178e10ca","tallies(uint256)":"1a32b237","tallyVerifier()":"aa7f0869","tallyVotes(uint256,uint256[2],uint256[2][2],uint256[2],uint256[7])":"2b8b8ddf","transferOwnership(address)":"f2fde38b","upgradeTo(address)":"3659cfe6","upgradeToAndCall(address,bytes)":"4f1ef286"},"id":1}