{"abi":[{"type":"constructor","inputs":[],"stateMutability":"nonpayable"},{"type":"function","name":"UPGRADE_INTERFACE_VERSION","inputs":[],"outputs":[{"name":"","type":"string","internalType":"string"}],"stateMutability":"view"},{"type":"function","name":"createElection","inputs":[{"name":"meta","type":"bytes32","internalType":"bytes32"}],"outputs":[],"stateMutability":"nonpayable"},{"type":"function","name":"elections","inputs":[{"name":"","type":"uint256","internalType":"uint256"}],"outputs":[{"name":"start","type":"uint128","internalType":"uint128"},{"name":"end","type":"uint128","internalType":"uint128"}],"stateMutability":"view"},{"type":"function","name":"enqueueMessage","inputs":[{"name":"id","type":"uint256","internalType":"uint256"},{"name":"vote","type":"uint256","internalType":"uint256"},{"name":"nonce","type":"uint256","internalType":"uint256"},{"name":"vcProof","type":"bytes","internalType":"bytes"}],"outputs":[],"stateMutability":"nonpayable"},{"type":"function","name":"initialize","inputs":[{"name":"_maci","type":"address","internalType":"contract IMACI"},{"name":"initialOwner","type":"address","internalType":"address"}],"outputs":[],"stateMutability":"nonpayable"},{"type":"function","name":"maci","inputs":[],"outputs":[{"name":"","type":"address","internalType":"contract IMACI"}],"stateMutability":"view"},{"type":"function","name":"nextId","inputs":[],"outputs":[{"name":"","type":"uint256","internalType":"uint256"}],"stateMutability":"view"},{"type":"function","name":"owner","inputs":[],"outputs":[{"name":"","type":"address","internalType":"address"}],"stateMutability":"view"},{"type":"function","name":"proxiableUUID","inputs":[],"outputs":[{"name":"","type":"bytes32","internalType":"bytes32"}],"stateMutability":"view"},{"type":"function","name":"result","inputs":[{"name":"","type":"uint256","internalType":"uint256"}],"outputs":[{"name":"","type":"uint256","internalType":"uint256"}],"stateMutability":"view"},{"type":"function","name":"tallied","inputs":[],"outputs":[{"name":"","type":"bool","internalType":"bool"}],"stateMutability":"view"},{"type":"function","name":"tallies","inputs":[{"name":"","type":"uint256","internalType":"uint256"}],"outputs":[{"name":"tallied","type":"bool","internalType":"bool"}],"stateMutability":"view"},{"type":"function","name":"tallyVerifier","inputs":[],"outputs":[{"name":"","type":"address","internalType":"contract TallyVerifier"}],"stateMutability":"view"},{"type":"function","name":"tallyVotes","inputs":[{"name":"id","type":"uint256","internalType":"uint256"},{"name":"a","type":"uint256[2]","internalType":"uint256[2]"},{"name":"b","type":"uint256[2][2]","internalType":"uint256[2][2]"},{"name":"c","type":"uint256[2]","internalType":"uint256[2]"},{"name":"pubSignals","type":"uint256[7]","internalType":"uint256[7]"}],"outputs":[],"stateMutability":"nonpayable"},{"type":"function","name":"transferOwnership","inputs":[{"name":"newOwner","type":"address","internalType":"address"}],"outputs":[],"stateMutability":"nonpayable"},{"type":"function","name":"upgradeTo","inputs":[{"name":"newImplementation","type":"address","internalType":"address"}],"outputs":[],"stateMutability":"nonpayable"},{"type":"function","name":"upgradeToAndCall","inputs":[{"name":"newImplementation","type":"address","internalType":"address"},{"name":"data","type":"bytes","internalType":"bytes"}],"outputs":[],"stateMutability":"payable"},{"type":"event","name":"ElectionCreated","inputs":[{"name":"id","type":"uint256","indexed":true,"internalType":"uint256"},{"name":"meta","type":"bytes32","indexed":false,"internalType":"bytes32"}],"anonymous":false},{"type":"event","name":"Initialized","inputs":[{"name":"version","type":"uint64","indexed":false,"internalType":"uint64"}],"anonymous":false},{"type":"event","name":"OwnershipTransferred","inputs":[{"name":"previousOwner","type":"address","indexed":true,"internalType":"address"},{"name":"newOwner","type":"address","indexed":true,"internalType":"address"}],"anonymous":false},{"type":"event","name":"Tally","inputs":[{"name":"id","type":"uint256","indexed":true,"internalType":"uint256"},{"name":"A","type":"uint256","indexed":false,"internalType":"uint256"},{"name":"B","type":"uint256","indexed":false,"internalType":"uint256"}],"anonymous":false},{"type":"event","name":"Upgraded","inputs":[{"name":"implementation","type":"address","indexed":true,"internalType":"address"}],"anonymous":false},{"type":"error","name":"AddressEmptyCode","inputs":[{"name":"target","type":"address","internalType":"address"}]},{"type":"error","name":"ERC1967InvalidImplementation","inputs":[{"name":"implementation","type":"address","internalType":"address"}]},{"type":"error","name":"ERC1967NonPayable","inputs":[]},{"type":"error","name":"FailedCall","inputs":[]},{"type":"error","name":"InvalidInitialization","inputs":[]},{"type":"error","name":"NotInitializing","inputs":[]},{"type":"error","name":"UUPSUnauthorizedCallContext","inputs":[]},{"type":"error","name":"UUPSUnsupportedProxiableUUID","inputs":[{"name":"slot","type":"bytes32","internalType":"bytes32"}]}],"bytecode":{"object":"0x60a080604052346100cc57306080527ff0c57e16840df040f15088dc2f81fe391c3923bec73e23a9662efc9c229c6a009081549060ff8260401c166100bd57506001600160401b036002600160401b031982821601610078575b60405161176190816100d1823960805181818161071d01526116000152f35b6001600160401b031990911681179091556040519081527fc7f505b2f371ae2175ee4913f4499e1f2633a7b5936321eed1cdaeb6115181d290602090a15f8080610059565b63f92ee8a960e01b8152600490fd5b5f80fdfe608060409080825260049182361015610016575f80fd5b5f925f3560e01c928363178e10ca1461139b575082631a32b237146113525782632b8b8ddf1461107157826334a0922c1461101f5782633659cfe614610db95782633c59405914610d71578263485cc95514610a445782634f1ef2861461079257826352d1902d146106d75782635e6fef011461067a57826361b8ce8c1461063e5782637cb85bf8146103f35782638da5cb5b146103a25782639aec68671461026f57508163aa7f08691461021c578163ad3cb1cc14610199575063f2fde38b146100df575f80fd5b346101965760207ffffffffffffffffffffffffffffffffffffffffffffffffffffffffffffffffc360112610196576101166113db565b7fffffffffffffffffffffffff0000000000000000000000000000000000000000825473ffffffffffffffffffffffffffffffffffffffff8082169361015d85331461151e565b16809361016b821515611583565b7f8be0079c531659141344cd1fd0a4f28419497f9722a3daafe3b4186f6b6457e08680a31617815580f35b80fd5b90503461021857817ffffffffffffffffffffffffffffffffffffffffffffffffffffffffffffffffc360112610218578051610214916101d8826113fe565b600582527f352e302e300000000000000000000000000000000000000000000000000000006020830152519182916020835260208301906114c2565b0390f35b5080fd5b90503461021857817ffffffffffffffffffffffffffffffffffffffffffffffffffffffffffffffffc3601126102185760209073ffffffffffffffffffffffffffffffffffffffff600254169051908152f35b8390346102185760207ffffffffffffffffffffffffffffffffffffffffffffffffffffffffffffffffc360112610218576102c273ffffffffffffffffffffffffffffffffffffffff835416331461151e565b6fffffffffffffffffffffffffffffffff92620f424043019384431161037657600193948251916102f2836113fe565b804316835280602084019216825260055487526003602052838720925116867fffffffffffffffffffffffffffffffff000000000000000000000000000000008454935160801b169216171790557fe2363988d6ce7eff8c526836fec08ee2162d5dd2ce672d06748c6dde5bf9986a60206005549384935190358152a20160055580f35b6024846011857f4e487b7100000000000000000000000000000000000000000000000000000000835252fd5b83823461021857817ffffffffffffffffffffffffffffffffffffffffffffffffffffffffffffffffc3601126102185773ffffffffffffffffffffffffffffffffffffffff60209254169051908152f35b9150346105d35760807ffffffffffffffffffffffffffffffffffffffffffffffffffffffffffffffffc3601126105d35760249167ffffffffffffffff6064358181116105d357366023820112156105d35780830135908282116105d357368683830101116105d35783355f5260036020526020855f20865190610476826113fe565b54906fffffffffffffffffffffffffffffffff82169182825260801c92839101524310159081610633575b50156105d7579061053360c0879594937fffffffffffffffffffffffffffffffffffffffffffffffffffffffffffffffe0601f73ffffffffffffffffffffffffffffffffffffffff6001541695808b519c8d953360208801528d82359088015260443560608801526080808801528260a088015201868601375f858286010152011681010360a0810189520187611447565b803b156105d35761057c5f9691879287519889809481937fce29e0af00000000000000000000000000000000000000000000000000000000835260208a8401528a8301906114c2565b03925af180156105c95761058e578580f35b909192938095501161059f57505052005b6041907f4e487b71000000000000000000000000000000000000000000000000000000005f52525ffd5b84513d5f823e3d90fd5b5f80fd5b60648460068860208951937f08c379a00000000000000000000000000000000000000000000000000000000085528401528201527f636c6f73656400000000000000000000000000000000000000000000000000006044820152fd5b90504311155f6104a1565b50346105d3575f7ffffffffffffffffffffffffffffffffffffffffffffffffffffffffffffffffc3601126105d3576020906005549051908152f35b346105d35760207ffffffffffffffffffffffffffffffffffffffffffffffffffffffffffffffffc3601126105d357355f526003602052805f20548151906fffffffffffffffffffffffffffffffff8116825260801c6020820152f35b90346105d3575f7ffffffffffffffffffffffffffffffffffffffffffffffffffffffffffffffffc3601126105d35773ffffffffffffffffffffffffffffffffffffffff7f000000000000000000000000000000000000000000000000000000000000000016300361076c57602090517f360894a13ba1a3210667c828492db98dca3e2076cc3735a920a3ca505d382bbc8152f35b517fe07c8dba000000000000000000000000000000000000000000000000000000008152fd5b817ffffffffffffffffffffffffffffffffffffffffffffffffffffffffffffffffc3601126105d3576107c36113db565b602492833567ffffffffffffffff81116105d357366023820112156105d357808401356107ef81611488565b936107fc84519586611447565b81855260209182860193368983830101116105d357815f928a8693018737870101526108266115e8565b73ffffffffffffffffffffffffffffffffffffffff610849815f5416331461151e565b81169484517f52d1902d000000000000000000000000000000000000000000000000000000008152838189818a5afa5f9181610a15575b506108b457505050505051917f4c9c8ce3000000000000000000000000000000000000000000000000000000008352820152fd5b9087878794938b7f360894a13ba1a3210667c828492db98dca3e2076cc3735a920a3ca505d382bbc918281036109e85750853b156109bb5750817fffffffffffffffffffffffff00000000000000000000000000000000000000008254161790558451907fbc7cd75a20ee27fd9adebab32041f755214dbc6bffa90cc0225b39da2e5c2d3b5f80a28251156109885750505f61097c9581925190845af4913d1561097e573d61096e61096582611488565b92519283611447565b81525f81943d92013e61168b565b005b506060925061168b565b945094505050503461099657005b7fb398979f000000000000000000000000000000000000000000000000000000008152fd5b83838851917f4c9c8ce3000000000000000000000000000000000000000000000000000000008352820152fd5b84908851917faa1d49a4000000000000000000000000000000000000000000000000000000008352820152fd5b9091508481813d8311610a3d575b610a2d8183611447565b810103126105d35751908a610880565b503d610a23565b346105d357817ffffffffffffffffffffffffffffffffffffffffffffffffffffffffffffffffc3601126105d357803573ffffffffffffffffffffffffffffffffffffffff8082168092036105d3576024359081168091036105d3577ff0c57e16840df040f15088dc2f81fe391c3923bec73e23a9662efc9c229c6a009283549260ff84871c16159267ffffffffffffffff9283861695861580610d6a575b60018098149081610d60575b159081610d57575b50610d2f577fffffffffffffffffffffffffffffffffffffffffffffffff0000000000000000908688838316178a55610cfa575b5087549160ff838b1c16159583168881159182610cf2575b149081610ce8575b159081610cdf575b50610cb8575081168617875583610c83575b50610b71811515611583565b7fffffffffffffffffffffffff00000000000000000000000000000000000000009281845f5416175f558751915f7f8be0079c531659141344cd1fd0a4f28419497f9722a3daafe3b4186f6b6457e08180a3610c2f575b508184541617835560025416600255610bdd57005b7fc7f505b2f371ae2175ee4913f4499e1f2633a7b5936321eed1cdaeb6115181d292827fffffffffffffffffffffffffffffffffffffffffffffff00ffffffffffffffff6020945416905551908152a1005b60207fc7f505b2f371ae2175ee4913f4499e1f2633a7b5936321eed1cdaeb6115181d2917fffffffffffffffffffffffffffffffffffffffffffffff00ffffffffffffffff8854168855868152a186610bc8565b7fffffffffffffffffffffffffffffffffffffffffffffff000000000000000000166801000000000000000117865587610b65565b89517ff92ee8a9000000000000000000000000000000000000000000000000000000008152fd5b9050158b610b53565b303b159150610b4b565b889250610b43565b7fffffffffffffffffffffffffffffffffffffffffffffff000000000000000000166801000000000000000117885589610b2b565b5087517ff92ee8a9000000000000000000000000000000000000000000000000000000008152fd5b9050158a610af7565b303b159150610aef565b5085610ae3565b346105d35760207ffffffffffffffffffffffffffffffffffffffffffffffffffffffffffffffffc3601126105d357359060028210156105d357602091600601549051908152f35b346105d3576020807ffffffffffffffffffffffffffffffffffffffffffffffffffffffffffffffffc3601126105d357610df16113db565b9273ffffffffffffffffffffffffffffffffffffffff91825f5416331494610e188661151e565b610e206115e8565b8251938285019685881067ffffffffffffffff891117610ff357610e51908886525f8752610e4c6115e8565b61151e565b81169383517f52d1902d00000000000000000000000000000000000000000000000000000000815283818881895afa5f9181610fc4575b50610ebc57602487878751917f4c9c8ce3000000000000000000000000000000000000000000000000000000008352820152fd5b9092957f360894a13ba1a3210667c828492db98dca3e2076cc3735a920a3ca505d382bbc9592949591828103610f955750843b15610f665750817fffffffffffffffffffffffff00000000000000000000000000000000000000008254161790557fbc7cd75a20ee27fd9adebab32041f755214dbc6bffa90cc0225b39da2e5c2d3b5f80a251801561097c575f809161097c96845af4913d1561097e573d61096e61096582611488565b602490838751917f4c9c8ce3000000000000000000000000000000000000000000000000000000008352820152fd5b602492508651917faa1d49a4000000000000000000000000000000000000000000000000000000008352820152fd5b9091508481813d8311610fec575b610fdc8183611447565b810103126105d357519089610e88565b503d610fd2565b6041877f4e487b71000000000000000000000000000000000000000000000000000000005f525260245ffd5b50346105d3575f7ffffffffffffffffffffffffffffffffffffffffffffffffffffffffffffffffc3601126105d35760209073ffffffffffffffffffffffffffffffffffffffff600154169051908152f35b346105d3576102007ffffffffffffffffffffffffffffffffffffffffffffffffffffffffffffffffc3601126105d3578035366064116105d3573660e4116105d357610124903682116105d35736610204116105d35773ffffffffffffffffffffffffffffffffffffffff916110eb835f5416331461151e565b815f5260209284845260ff865f2054166112f55783600291600254169187519283917fc894e7570000000000000000000000000000000000000000000000000000000083528960248a8501375f60648b604486015b8484106112d5575090508492506101e493915060e460c484013760e0876101048401375afa9081156112cb575f91611295575b5015611239577fe455590a10a592942106a7101b113b909a9750dcb045d140c8fafc2ffb6e573985839235806006556101443580600755845f52878752806002845f208460018201550155825191825286820152a25f52525f2060017fffffffffffffffffffffffffffffffffffffffffffffffffffffffffffffff00825416179055740100000000000000000000000000000000000000007fffffffffffffffffffffff00ffffffffffffffffffffffffffffffffffffffff60025416176002555f80f35b505060649251917f08c379a0000000000000000000000000000000000000000000000000000000008352820152601360248201527f696e76616c69642074616c6c792070726f6f66000000000000000000000000006044820152fd5b90508381813d83116112c4575b6112ac8183611447565b810103126105d3575180151581036105d35786611173565b503d6112a2565b86513d5f823e3d90fd5b60019395975082949650818093823701920192018894928b879593611140565b50505060649251917f08c379a0000000000000000000000000000000000000000000000000000000008352820152600f60248201527f616c72656164792074616c6c69656400000000000000000000000000000000006044820152fd5b90346105d35760207ffffffffffffffffffffffffffffffffffffffffffffffffffffffffffffffffc3601126105d35781602092355f52825260ff815f20541690519015158152f35b346105d3575f7ffffffffffffffffffffffffffffffffffffffffffffffffffffffffffffffffc3601126105d35760209060ff60025460a01c1615158152f35b6004359073ffffffffffffffffffffffffffffffffffffffff821682036105d357565b6040810190811067ffffffffffffffff82111761141a57604052565b7f4e487b71000000000000000000000000000000000000000000000000000000005f52604160045260245ffd5b90601f7fffffffffffffffffffffffffffffffffffffffffffffffffffffffffffffffe0910116810190811067ffffffffffffffff82111761141a57604052565b67ffffffffffffffff811161141a57601f017fffffffffffffffffffffffffffffffffffffffffffffffffffffffffffffffe01660200190565b91908251928382525f5b84811061150a5750507fffffffffffffffffffffffffffffffffffffffffffffffffffffffffffffffe0601f845f6020809697860101520116010190565b6020818301810151848301820152016114cc565b1561152557565b60646040517f08c379a000000000000000000000000000000000000000000000000000000000815260206004820152600960248201527f6e6f74206f776e657200000000000000000000000000000000000000000000006044820152fd5b1561158a57565b60646040517f08c379a000000000000000000000000000000000000000000000000000000000815260206004820152600a60248201527f6f776e6572207a65726f000000000000000000000000000000000000000000006044820152fd5b73ffffffffffffffffffffffffffffffffffffffff807f00000000000000000000000000000000000000000000000000000000000000001680301491821561165d575b505061163357565b60046040517fe07c8dba000000000000000000000000000000000000000000000000000000008152fd5b7f360894a13ba1a3210667c828492db98dca3e2076cc3735a920a3ca505d382bbc5416141590505f8061162b565b906116ca57508051156116a057805190602001fd5b60046040517fd6bda275000000000000000000000000000000000000000000000000000000008152fd5b81511580611722575b6116db575090565b60249073ffffffffffffffffffffffffffffffffffffffff604051917f9996b315000000000000000000000000000000000000000000000000000000008352166004820152fd5b50803b156116d356fea264697066735822122027d0ca2ec9e70e94664dd9cf170b6c74fcfe4078b8d3429cde0b6a543dbdc39864736f6c63430008180033","linkReferences":{}},"methodIdentifiers":{"UPGRADE_INTERFACE_VERSION()":"ad3cb1cc","createElection(bytes32)":"9aec6867","elections(uint256)":"5e6fef01","enqueueMessage(uint256,uint256,uint256,bytes)":"7cb85bf8","initialize(address,address)":"485cc955","maci()":"34a0922c","nextId()":"61b8ce8c","owner()":"8da5cb5b","proxiableUUID()":"52d1902d","result(uint256)":"3c594059","tallied()":"178e10ca","tallies(uint256)":"1a32b237","tallyVerifier()":"aa7f0869","tallyVotes(uint256,uint256[2],uint256[2][2],uint256[2],uint256[7])":"2b8b8ddf","transferOwnership(address)":"f2fde38b","upgradeTo(address)":"3659cfe6","upgradeToAndCall(address,bytes)":"4f1ef286"},"id":1}