{"abi":[{"type":"function","name":"getNonce","inputs":[{"name":"sender","type":"address","internalType":"address"},{"name":"key","type":"uint192","internalType":"uint192"}],"outputs":[{"name":"nonce","type":"uint256","internalType":"uint256"}],"stateMutability":"view"},{"type":"function","name":"incrementNonce","inputs":[{"name":"key","type":"uint192","internalType":"uint192"}],"outputs":[],"stateMutability":"nonpayable"},{"type":"function","name":"nonceSequenceNumber","inputs":[{"name":"","type":"address","internalType":"address"},{"name":"","type":"uint192","internalType":"uint192"}],"outputs":[{"name":"","type":"uint256","internalType":"uint256"}],"stateMutability":"view"}],"bytecode":{"object":"0x6080806040523461001657610285908161001b8239f35b5f80fdfe6040608081526004361015610012575f80fd5b5f3560e01c80630bd28e3b146101195780631b2e01b8146100be576335567e1a1461003b575f80fd5b346100ba5760209073ffffffffffffffffffffffffffffffffffffffff610061366101dd565b91165f525f8352815f2077ffffffffffffffffffffffffffffffffffffffffffffffff82165f5283527fffffffffffffffffffffffffffffffffffffffffffffffff0000000000000000825f2054918351931b16178152f35b5f80fd5b50346100ba5760209073ffffffffffffffffffffffffffffffffffffffff6100e5366101dd565b91165f525f835277ffffffffffffffffffffffffffffffffffffffffffffffff825f2091165f528252805f20549051908152f35b50346100ba5760207ffffffffffffffffffffffffffffffffffffffffffffffffffffffffffffffffc3601126100ba5760043577ffffffffffffffffffffffffffffffffffffffffffffffff81168091036100ba57335f525f602052815f20905f526020525f2080547fffffffffffffffffffffffffffffffffffffffffffffffffffffffffffffffff81146101b0576001019055005b7f4e487b71000000000000000000000000000000000000000000000000000000005f52601160045260245ffd5b7ffffffffffffffffffffffffffffffffffffffffffffffffffffffffffffffffc60409101126100ba5760043573ffffffffffffffffffffffffffffffffffffffff811681036100ba579060243577ffffffffffffffffffffffffffffffffffffffffffffffff811681036100ba579056fea26469706673582212208cd944386c9162d98c8ee1b15580ad3e3b52a6d3c564775133f5e3331d35ba7364736f6c63430008180033","linkReferences":{}},"methodIdentifiers":{"getNonce(address,uint192)":"35567e1a","incrementNonce(uint192)":"0bd28e3b","nonceSequenceNumber(address,uint192)":"1b2e01b8"},"id":15}