{"abi":[{"type":"receive","stateMutability":"payable"},{"type":"function","name":"addStake","inputs":[{"name":"unstakeDelaySec","type":"uint32","internalType":"uint32"}],"outputs":[],"stateMutability":"payable"},{"type":"function","name":"balanceOf","inputs":[{"name":"account","type":"address","internalType":"address"}],"outputs":[{"name":"","type":"uint256","internalType":"uint256"}],"stateMutability":"view"},{"type":"function","name":"delegateAndRevert","inputs":[{"name":"target","type":"address","internalType":"address"},{"name":"data","type":"bytes","internalType":"bytes"}],"outputs":[],"stateMutability":"nonpayable"},{"type":"function","name":"depositTo","inputs":[{"name":"account","type":"address","internalType":"address"}],"outputs":[],"stateMutability":"payable"},{"type":"function","name":"deposits","inputs":[{"name":"","type":"address","internalType":"address"}],"outputs":[{"name":"deposit","type":"uint256","internalType":"uint256"},{"name":"staked","type":"bool","internalType":"bool"},{"name":"stake","type":"uint112","internalType":"uint112"},{"name":"unstakeDelaySec","type":"uint32","internalType":"uint32"},{"name":"withdrawTime","type":"uint48","internalType":"uint48"}],"stateMutability":"view"},{"type":"function","name":"getDepositInfo","inputs":[{"name":"account","type":"address","internalType":"address"}],"outputs":[{"name":"info","type":"tuple","internalType":"struct IStakeManager.DepositInfo","components":[{"name":"deposit","type":"uint256","internalType":"uint256"},{"name":"staked","type":"bool","internalType":"bool"},{"name":"stake","type":"uint112","internalType":"uint112"},{"name":"unstakeDelaySec","type":"uint32","internalType":"uint32"},{"name":"withdrawTime","type":"uint48","internalType":"uint48"}]}],"stateMutability":"view"},{"type":"function","name":"getNonce","inputs":[{"name":"sender","type":"address","internalType":"address"},{"name":"key","type":"uint192","internalType":"uint192"}],"outputs":[{"name":"nonce","type":"uint256","internalType":"uint256"}],"stateMutability":"view"},{"type":"function","name":"getSenderAddress","inputs":[{"name":"initCode","type":"bytes","internalType":"bytes"}],"outputs":[],"stateMutability":"nonpayable"},{"type":"function","name":"getUserOpHash","inputs":[{"name":"userOp","type":"tuple","internalType":"struct PackedUserOperation","components":[{"name":"sender","type":"address","internalType":"address"},{"name":"nonce","type":"uint256","internalType":"uint256"},{"name":"initCode","type":"bytes","internalType":"bytes"},{"name":"callData","type":"bytes","internalType":"bytes"},{"name":"accountGasLimits","type":"bytes32","internalType":"bytes32"},{"name":"preVerificationGas","type":"uint256","internalType":"uint256"},{"name":"gasFees","type":"bytes32","internalType":"bytes32"},{"name":"paymasterAndData","type":"bytes","internalType":"bytes"},{"name":"signature","type":"bytes","internalType":"bytes"}]}],"outputs":[{"name":"","type":"bytes32","internalType":"bytes32"}],"stateMutability":"view"},{"type":"function","name":"handleAggregatedOps","inputs":[{"name":"opsPerAggregator","type":"tuple[]","internalType":"struct IEntryPoint.UserOpsPerAggregator[]","components":[{"name":"userOps","type":"tuple[]","internalType":"struct PackedUserOperation[]","components":[{"name":"sender","type":"address","internalType":"address"},{"name":"nonce","type":"uint256","internalType":"uint256"},{"name":"initCode","type":"bytes","internalType":"bytes"},{"name":"callData","type":"bytes","internalType":"bytes"},{"name":"accountGasLimits","type":"bytes32","internalType":"bytes32"},{"name":"preVerificationGas","type":"uint256","internalType":"uint256"},{"name":"gasFees","type":"bytes32","internalType":"bytes32"},{"name":"paymasterAndData","type":"bytes","internalType":"bytes"},{"name":"signature","type":"bytes","internalType":"bytes"}]},{"name":"aggregator","type":"address","internalType":"contract IAggregator"},{"name":"signature","type":"bytes","internalType":"bytes"}]},{"name":"beneficiary","type":"address","internalType":"address payable"}],"outputs":[],"stateMutability":"nonpayable"},{"type":"function","name":"handleOps","inputs":[{"name":"ops","type":"tuple[]","internalType":"struct PackedUserOperation[]","components":[{"name":"sender","type":"address","internalType":"address"},{"name":"nonce","type":"uint256","internalType":"uint256"},{"name":"initCode","type":"bytes","internalType":"bytes"},{"name":"callData","type":"bytes","internalType":"bytes"},{"name":"accountGasLimits","type":"bytes32","internalType":"bytes32"},{"name":"preVerificationGas","type":"uint256","internalType":"uint256"},{"name":"gasFees","type":"bytes32","internalType":"bytes32"},{"name":"paymasterAndData","type":"bytes","internalType":"bytes"},{"name":"signature","type":"bytes","internalType":"bytes"}]},{"name":"beneficiary","type":"address","internalType":"address payable"}],"outputs":[],"stateMutability":"nonpayable"},{"type":"function","name":"incrementNonce","inputs":[{"name":"key","type":"uint192","internalType":"uint192"}],"outputs":[],"stateMutability":"nonpayable"},{"type":"function","name":"innerHandleOp","inputs":[{"name":"callData","type":"bytes","internalType":"bytes"},{"name":"opInfo","type":"tuple","internalType":"struct EntryPoint.UserOpInfo","components":[{"name":"mUserOp","type":"tuple","internalType":"struct EntryPoint.MemoryUserOp","components":[{"name":"sender","type":"address","internalType":"address"},{"name":"nonce","type":"uint256","internalType":"uint256"},{"name":"verificationGasLimit","type":"uint256","internalType":"uint256"},{"name":"callGasLimit","type":"uint256","internalType":"uint256"},{"name":"paymasterVerificationGasLimit","type":"uint256","internalType":"uint256"},{"name":"paymasterPostOpGasLimit","type":"uint256","internalType":"uint256"},{"name":"preVerificationGas","type":"uint256","internalType":"uint256"},{"name":"paymaster","type":"address","internalType":"address"},{"name":"maxFeePerGas","type":"uint256","internalType":"uint256"},{"name":"maxPriorityFeePerGas","type":"uint256","internalType":"uint256"}]},{"name":"userOpHash","type":"bytes32","internalType":"bytes32"},{"name":"prefund","type":"uint256","internalType":"uint256"},{"name":"contextOffset","type":"uint256","internalType":"uint256"},{"name":"preOpGas","type":"uint256","internalType":"uint256"}]},{"name":"context","type":"bytes","internalType":"bytes"}],"outputs":[{"name":"actualGasCost","type":"uint256","internalType":"uint256"}],"stateMutability":"nonpayable"},{"type":"function","name":"nonceSequenceNumber","inputs":[{"name":"","type":"address","internalType":"address"},{"name":"","type":"uint192","internalType":"uint192"}],"outputs":[{"name":"","type":"uint256","internalType":"uint256"}],"stateMutability":"view"},{"type":"function","name":"supportsInterface","inputs":[{"name":"interfaceId","type":"bytes4","internalType":"bytes4"}],"outputs":[{"name":"","type":"bool","internalType":"bool"}],"stateMutability":"view"},{"type":"function","name":"unlockStake","inputs":[],"outputs":[],"stateMutability":"nonpayable"},{"type":"function","name":"withdrawStake","inputs":[{"name":"withdrawAddress","type":"address","internalType":"address payable"}],"outputs":[],"stateMutability":"nonpayable"},{"type":"function","name":"withdrawTo","inputs":[{"name":"withdrawAddress","type":"address","internalType":"address payable"},{"name":"withdrawAmount","type":"uint256","internalType":"uint256"}],"outputs":[],"stateMutability":"nonpayable"},{"type":"event","name":"AccountDeployed","inputs":[{"name":"userOpHash","type":"bytes32","indexed":true,"internalType":"bytes32"},{"name":"sender","type":"address","indexed":true,"internalType":"address"},{"name":"factory","type":"address","indexed":false,"internalType":"address"},{"name":"paymaster","type":"address","indexed":false,"internalType":"address"}],"anonymous":false},{"type":"event","name":"BeforeExecution","inputs":[],"anonymous":false},{"type":"event","name":"Deposited","inputs":[{"name":"account","type":"address","indexed":true,"internalType":"address"},{"name":"totalDeposit","type":"uint256","indexed":false,"internalType":"uint256"}],"anonymous":false},{"type":"event","name":"PostOpRevertReason","inputs":[{"name":"userOpHash","type":"bytes32","indexed":true,"internalType":"bytes32"},{"name":"sender","type":"address","indexed":true,"internalType":"address"},{"name":"nonce","type":"uint256","indexed":false,"internalType":"uint256"},{"name":"revertReason","type":"bytes","indexed":false,"internalType":"bytes"}],"anonymous":false},{"type":"event","name":"SignatureAggregatorChanged","inputs":[{"name":"aggregator","type":"address","indexed":true,"internalType":"address"}],"anonymous":false},{"type":"event","name":"StakeLocked","inputs":[{"name":"account","type":"address","indexed":true,"internalType":"address"},{"name":"totalStaked","type":"uint256","indexed":false,"internalType":"uint256"},{"name":"unstakeDelaySec","type":"uint256","indexed":false,"internalType":"uint256"}],"anonymous":false},{"type":"event","name":"StakeUnlocked","inputs":[{"name":"account","type":"address","indexed":true,"internalType":"address"},{"name":"withdrawTime","type":"uint256","indexed":false,"internalType":"uint256"}],"anonymous":false},{"type":"event","name":"StakeWithdrawn","inputs":[{"name":"account","type":"address","indexed":true,"internalType":"address"},{"name":"withdrawAddress","type":"address","indexed":false,"internalType":"address"},{"name":"amount","type":"uint256","indexed":false,"internalType":"uint256"}],"anonymous":false},{"type":"event","name":"UserOperationEvent","inputs":[{"name":"userOpHash","type":"bytes32","indexed":true,"internalType":"bytes32"},{"name":"sender","type":"address","indexed":true,"internalType":"address"},{"name":"paymaster","type":"address","indexed":true,"internalType":"address"},{"name":"nonce","type":"uint256","indexed":false,"internalType":"uint256"},{"name":"success","type":"bool","indexed":false,"internalType":"bool"},{"name":"actualGasCost","type":"uint256","indexed":false,"internalType":"uint256"},{"name":"actualGasUsed","type":"uint256","indexed":false,"internalType":"uint256"}],"anonymous":false},{"type":"event","name":"UserOperationPrefundTooLow","inputs":[{"name":"userOpHash","type":"bytes32","indexed":true,"internalType":"bytes32"},{"name":"sender","type":"address","indexed":true,"internalType":"address"},{"name":"nonce","type":"uint256","indexed":false,"internalType":"uint256"}],"anonymous":false},{"type":"event","name":"UserOperationRevertReason","inputs":[{"name":"userOpHash","type":"bytes32","indexed":true,"internalType":"bytes32"},{"name":"sender","type":"address","indexed":true,"internalType":"address"},{"name":"nonce","type":"uint256","indexed":false,"internalType":"uint256"},{"name":"revertReason","type":"bytes","indexed":false,"internalType":"bytes"}],"anonymous":false},{"type":"event","name":"Withdrawn","inputs":[{"name":"account","type":"address","indexed":true,"internalType":"address"},{"name":"withdrawAddress","type":"address","indexed":false,"internalType":"address"},{"name":"amount","type":"uint256","indexed":false,"internalType":"uint256"}],"anonymous":false},{"type":"error","name":"DelegateAndRevert","inputs":[{"name":"success","type":"bool","internalType":"bool"},{"name":"ret","type":"bytes","internalType":"bytes"}]},{"type":"error","name":"FailedOp","inputs":[{"name":"opIndex","type":"uint256","internalType":"uint256"},{"name":"reason","type":"string","internalType":"string"}]},{"type":"error","name":"FailedOpWithRevert","inputs":[{"name":"opIndex","type":"uint256","internalType":"uint256"},{"name":"reason","type":"string","internalType":"string"},{"name":"inner","type":"bytes","internalType":"bytes"}]},{"type":"error","name":"PostOpReverted","inputs":[{"name":"returnData","type":"bytes","internalType":"bytes"}]},{"type":"error","name":"ReentrancyGuardReentrantCall","inputs":[]},{"type":"error","name":"SenderAddressResult","inputs":[{"name":"sender","type":"address","internalType":"address"}]},{"type":"error","name":"SignatureValidationFailed","inputs":[{"name":"aggregator","type":"address","internalType":"address"}]}],"bytecode":{"object":"0x60a0604052604051600e906070565b604051809103905ff0801580156026573d5f5f3e3d5ffd5b5073ffffffffffffffffffffffffffffffffffffffff1660809073ffffffffffffffffffffffffffffffffffffffff168152503480156063575f5ffd5b506001600281905550607d565b61033f806164c083390190565b60805161642b6100955f395f6129cc015261642b5ff3fe60806040526004361061010b575f3560e01c806370a0823111610094578063b760faf911610063578063b760faf9146103a7578063bb9fe6bf146103c3578063c23a5cea146103d9578063dbed18e014610401578063fc7e286d146104295761011b565b806370a08231146102f3578063765e827f1461032f578063850aaf62146103575780639b249f691461037f5761011b565b80631b2e01b8116100db5780631b2e01b8146101db578063205c28781461021757806322cdde4c1461023f57806335567e1a1461027b5780635287ce12146102b75761011b565b806242dc531461011f57806301ffc9a71461015b5780630396cb60146101975780630bd28e3b146101b35761011b565b3661011b5761011933610469565b005b5f5ffd5b34801561012a575f5ffd5b5061014560048036038101906101409190613c63565b6104c8565b6040516101529190613d01565b60405180910390f35b348015610166575f5ffd5b50610181600480360381019061017c9190613d6f565b6106a2565b60405161018e9190613db4565b60405180910390f35b6101b160048036038101906101ac9190613e06565b610897565b005b3480156101be575f5ffd5b506101d960048036038101906101d49190613e7e565b610be6565b005b3480156101e6575f5ffd5b5061020160048036038101906101fc9190613ea9565b610c7e565b60405161020e9190613d01565b60405180910390f35b348015610222575f5ffd5b5061023d60048036038101906102389190613f22565b610c9e565b005b34801561024a575f5ffd5b5061026560048036038101906102609190613f83565b610e37565b6040516102729190613fd9565b60405180910390f35b348015610286575f5ffd5b506102a1600480360381019061029c9190613ea9565b610e72565b6040516102ae9190613d01565b60405180910390f35b3480156102c2575f5ffd5b506102dd60048036038101906102d89190613ff2565b610f1c565b6040516102ea91906140f8565b60405180910390f35b3480156102fe575f5ffd5b5061031960048036038101906103149190613ff2565b61102b565b6040516103269190613d01565b60405180910390f35b34801561033a575f5ffd5b5061035560048036038101906103509190614166565b611072565b005b348015610362575f5ffd5b5061037d600480360381019061037891906141c3565b611207565b005b34801561038a575f5ffd5b506103a560048036038101906103a09190614220565b6112b1565b005b6103c160048036038101906103bc9190613ff2565b610469565b005b3480156103ce575f5ffd5b506103d7611373565b005b3480156103e4575f5ffd5b506103ff60048036038101906103fa919061426b565b61151b565b005b34801561040c575f5ffd5b50610427600480360381019061042291906142eb565b61180e565b005b348015610434575f5ffd5b5061044f600480360381019061044a9190613ff2565b611d25565b604051610460959493929190614375565b60405180910390f35b5f6104748234611d9e565b90508173ffffffffffffffffffffffffffffffffffffffff167f2da466a7b24304f47e87fa2e1e5a81b9831ce54fec19055ce277ca2f39ba42c4826040516104bc9190613d01565b60405180910390a25050565b5f5f5a90503073ffffffffffffffffffffffffffffffffffffffff163373ffffffffffffffffffffffffffffffffffffffff161461053b576040517f08c379a000000000000000000000000000000000000000000000000000000000815260040161053290614420565b60405180910390fd5b5f855f015190505f816060015190506127108260a001518201016040603f5a02816105695761056861443e565b5b041015610598577fdeaddead000000000000000000000000000000000000000000000000000000005f5260205ffd5b5f5f90505f89511115610638575f6105b5845f01515f8c86611e03565b905080610636575f6105c8610800611e1a565b90505f8151111561063057845f015173ffffffffffffffffffffffffffffffffffffffff168a602001517f1c4fada7374c0a9ee8841fc38afe82932dc0f8e69012e927f061a8bae611a2018760200151846040516106279291906144cb565b60405180910390a35b60019250505b505b5f88608001515a8603019050610693828a8a8a8080601f0160208091040260200160405190810160405280939291908181526020018383808284375f81840152601f19601f8201169050808301925050505050505084611e49565b95505050505050949350505050565b5f7f3e84f021000000000000000000000000000000000000000000000000000000007fcf28ef97000000000000000000000000000000000000000000000000000000007f915074d80000000000000000000000000000000000000000000000000000000018187bffffffffffffffffffffffffffffffffffffffffffffffffffffffff1916827bffffffffffffffffffffffffffffffffffffffffffffffffffffffff191614806107b057507f915074d8000000000000000000000000000000000000000000000000000000007bffffffffffffffffffffffffffffffffffffffffffffffffffffffff1916827bffffffffffffffffffffffffffffffffffffffffffffffffffffffff1916145b8061081857507fcf28ef97000000000000000000000000000000000000000000000000000000007bffffffffffffffffffffffffffffffffffffffffffffffffffffffff1916827bffffffffffffffffffffffffffffffffffffffffffffffffffffffff1916145b8061088057507f3e84f021000000000000000000000000000000000000000000000000000000007bffffffffffffffffffffffffffffffffffffffffffffffffffffffff1916827bffffffffffffffffffffffffffffffffffffffffffffffffffffffff1916145b80610890575061088f826120d4565b5b9050919050565b5f5f5f3373ffffffffffffffffffffffffffffffffffffffff1673ffffffffffffffffffffffffffffffffffffffff1681526020019081526020015f2090505f8263ffffffff161161091e576040517f08c379a000000000000000000000000000000000000000000000000000000000815260040161091590614543565b60405180910390fd5b80600101600f9054906101000a900463ffffffff1663ffffffff168263ffffffff161015610981576040517f08c379a0000000000000000000000000000000000000000000000000000000008152600401610978906145ab565b60405180910390fd5b5f348260010160019054906101000a90046dffffffffffffffffffffffffffff166dffffffffffffffffffffffffffff166109bc91906145f6565b90505f8111610a00576040517f08c379a00000000000000000000000000000000000000000000000000000000081526004016109f790614673565b60405180910390fd5b6dffffffffffffffffffffffffffff8016811115610a53576040517f08c379a0000000000000000000000000000000000000000000000000000000008152600401610a4a906146db565b60405180910390fd5b6040518060a00160405280835f01548152602001600115158152602001826dffffffffffffffffffffffffffff1681526020018463ffffffff1681526020015f65ffffffffffff168152505f5f3373ffffffffffffffffffffffffffffffffffffffff1673ffffffffffffffffffffffffffffffffffffffff1681526020019081526020015f205f820151815f01556020820151816001015f6101000a81548160ff02191690831515021790555060408201518160010160016101000a8154816dffffffffffffffffffffffffffff02191690836dffffffffffffffffffffffffffff160217905550606082015181600101600f6101000a81548163ffffffff021916908363ffffffff16021790555060808201518160010160136101000a81548165ffffffffffff021916908365ffffffffffff1602179055509050503373ffffffffffffffffffffffffffffffffffffffff167fa5ae833d0bb1dcd632d98a8b70973e8516812898e19bf27b70071ebc8dc52c018285604051610bd9929190614732565b60405180910390a2505050565b60015f3373ffffffffffffffffffffffffffffffffffffffff1673ffffffffffffffffffffffffffffffffffffffff1681526020019081526020015f205f8277ffffffffffffffffffffffffffffffffffffffffffffffff1677ffffffffffffffffffffffffffffffffffffffffffffffff1681526020019081526020015f205f815480929190610c7690614759565b919050555050565b6001602052815f5260405f20602052805f5260405f205f91509150505481565b5f5f5f3373ffffffffffffffffffffffffffffffffffffffff1673ffffffffffffffffffffffffffffffffffffffff1681526020019081526020015f209050805f0154821115610d23576040517f08c379a0000000000000000000000000000000000000000000000000000000008152600401610d1a906147ea565b60405180910390fd5b81815f0154610d329190614808565b815f01819055503373ffffffffffffffffffffffffffffffffffffffff167fd1c19fbcd4551a5edfb66d43d2e337c04837afda3482b42bdf569a8fccdae5fb8484604051610d8192919061488d565b60405180910390a25f8373ffffffffffffffffffffffffffffffffffffffff1683604051610dae906148e1565b5f6040518083038185875af1925050503d805f8114610de8576040519150601f19603f3d011682016040523d82523d5f602084013e610ded565b606091505b5050905080610e31576040517f08c379a0000000000000000000000000000000000000000000000000000000008152600401610e289061493f565b60405180910390fd5b50505050565b5f610e418261213d565b3046604051602001610e559392919061496c565b604051602081830303815290604052805190602001209050919050565b5f60408277ffffffffffffffffffffffffffffffffffffffffffffffff16901b60015f8573ffffffffffffffffffffffffffffffffffffffff1673ffffffffffffffffffffffffffffffffffffffff1681526020019081526020015f205f8477ffffffffffffffffffffffffffffffffffffffffffffffff1677ffffffffffffffffffffffffffffffffffffffffffffffff1681526020019081526020015f205417905092915050565b610f24613740565b5f5f8373ffffffffffffffffffffffffffffffffffffffff1673ffffffffffffffffffffffffffffffffffffffff1681526020019081526020015f206040518060a00160405290815f8201548152602001600182015f9054906101000a900460ff161515151581526020016001820160019054906101000a90046dffffffffffffffffffffffffffff166dffffffffffffffffffffffffffff166dffffffffffffffffffffffffffff16815260200160018201600f9054906101000a900463ffffffff1663ffffffff1663ffffffff1681526020016001820160139054906101000a900465ffffffffffff1665ffffffffffff1665ffffffffffff16815250509050919050565b5f5f5f8373ffffffffffffffffffffffffffffffffffffffff1673ffffffffffffffffffffffffffffffffffffffff1681526020019081526020015f205f01549050919050565b61107a612155565b5f8383905090505f8167ffffffffffffffff81111561109c5761109b61389d565b5b6040519080825280602002602001820160405280156110d557816020015b6110c261378a565b8152602001906001900390816110ba5790505b5090505f5f90505b82811015611154575f8282815181106110f9576110f86149a1565b5b602002602001015190505f5f611134848a8a8781811061111c5761111b6149a1565b5b905060200281019061112e91906149da565b85612199565b915091506111448483835f612386565b50505080806001019150506110dd565b505f5f90507fbb47ee3e183a558b1a2ff0874b079f3fc5478b7454eacf2bfc5af2ff5878f97260405160405180910390a15f5f90505b838110156111ec576111db818888848181106111a9576111a86149a1565b5b90506020028101906111bb91906149da565b8584815181106111ce576111cd6149a1565b5b6020026020010151612516565b82019150808060010191505061118a565b506111f784826128a4565b5050506112026129bf565b505050565b5f5f8473ffffffffffffffffffffffffffffffffffffffff168484604051611230929190614a26565b5f60405180830381855af49150503d805f8114611268576040519150601f19603f3d011682016040523d82523d5f602084013e61126d565b606091505b509150915081816040517f994105540000000000000000000000000000000000000000000000000000000081526004016112a8929190614a3e565b60405180910390fd5b5f6112ba6129c9565b73ffffffffffffffffffffffffffffffffffffffff1663570e1a3684846040518363ffffffff1660e01b81526004016112f4929190614a98565b6020604051808303815f875af1158015611310573d5f5f3e3d5ffd5b505050506040513d601f19601f820116820180604052508101906113349190614ace565b9050806040517f6ca7b80600000000000000000000000000000000000000000000000000000000815260040161136a9190614af9565b60405180910390fd5b5f5f5f3373ffffffffffffffffffffffffffffffffffffffff1673ffffffffffffffffffffffffffffffffffffffff1681526020019081526020015f2090505f81600101600f9054906101000a900463ffffffff1663ffffffff160361140e576040517f08c379a000000000000000000000000000000000000000000000000000000000815260040161140590614b5c565b60405180910390fd5b806001015f9054906101000a900460ff1661145e576040517f08c379a000000000000000000000000000000000000000000000000000000000815260040161145590614bc4565b60405180910390fd5b5f81600101600f9054906101000a900463ffffffff1663ffffffff16426114859190614be2565b9050808260010160136101000a81548165ffffffffffff021916908365ffffffffffff1602179055505f826001015f6101000a81548160ff0219169083151502179055503373ffffffffffffffffffffffffffffffffffffffff167ffa9b3c14cc825c412c9ed81b3ba365a5b459439403f18829e572ed53a4180f0a8260405161150f9190614c4b565b60405180910390a25050565b5f5f5f3373ffffffffffffffffffffffffffffffffffffffff1673ffffffffffffffffffffffffffffffffffffffff1681526020019081526020015f2090505f8160010160019054906101000a90046dffffffffffffffffffffffffffff166dffffffffffffffffffffffffffff1690505f81116115ce576040517f08c379a00000000000000000000000000000000000000000000000000000000081526004016115c590614cae565b60405180910390fd5b5f8260010160139054906101000a900465ffffffffffff1665ffffffffffff161161162e576040517f08c379a000000000000000000000000000000000000000000000000000000000815260040161162590614d16565b60405180910390fd5b428260010160139054906101000a900465ffffffffffff1665ffffffffffff16111561168f576040517f08c379a000000000000000000000000000000000000000000000000000000000815260040161168690614d7e565b60405180910390fd5b5f82600101600f6101000a81548163ffffffff021916908363ffffffff1602179055505f8260010160136101000a81548165ffffffffffff021916908365ffffffffffff1602179055505f8260010160016101000a8154816dffffffffffffffffffffffffffff02191690836dffffffffffffffffffffffffffff1602179055503373ffffffffffffffffffffffffffffffffffffffff167fb7c918e0e249f999e965cafeb6c664271b3f4317d296461500e71da39f0cbda3848360405161175892919061488d565b60405180910390a25f8373ffffffffffffffffffffffffffffffffffffffff1682604051611785906148e1565b5f6040518083038185875af1925050503d805f81146117bf576040519150601f19603f3d011682016040523d82523d5f602084013e6117c4565b606091505b5050905080611808576040517f08c379a00000000000000000000000000000000000000000000000000000000081526004016117ff90614de6565b60405180910390fd5b50505050565b611816612155565b5f8383905090505f5f90505f5f90505b828110156119fb5736868683818110611842576118416149a1565b5b90506020028101906118549190614e04565b9050365f82805f01906118679190614e2b565b915091505f83602001602081019061187f9190614ec8565b9050600173ffffffffffffffffffffffffffffffffffffffff168173ffffffffffffffffffffffffffffffffffffffff16036118f0576040517f08c379a00000000000000000000000000000000000000000000000000000000081526004016118e790614f3d565b60405180910390fd5b5f73ffffffffffffffffffffffffffffffffffffffff168173ffffffffffffffffffffffffffffffffffffffff16146119d9578073ffffffffffffffffffffffffffffffffffffffff16632dd8113384848780604001906119519190614f5b565b6040518563ffffffff1660e01b815260040161197094939291906152c0565b5f6040518083038186803b158015611986575f5ffd5b505afa925050508015611997575060015b6119d857806040517f86a9f7500000000000000000000000000000000000000000000000000000000081526004016119cf9190614af9565b60405180910390fd5b5b82829050866119e891906145f6565b9550505050508080600101915050611826565b505f8167ffffffffffffffff811115611a1757611a1661389d565b5b604051908082528060200260200182016040528015611a5057816020015b611a3d61378a565b815260200190600190039081611a355790505b5090505f5f90505f5f90505b84811015611b5b5736888883818110611a7857611a776149a1565b5b9050602002810190611a8a9190614e04565b9050365f82805f0190611a9d9190614e2b565b915091505f836020016020810190611ab59190614ec8565b90505f8383905090505f5f90505b81811015611b48575f898981518110611adf57611ade6149a1565b5b602002602001015190505f5f611b1a8b898987818110611b0257611b016149a1565b5b9050602002810190611b1491906149da565b85612199565b91509150611b2a84838389612386565b8a80611b3590614759565b9b50505050508080600101915050611ac3565b5050505050508080600101915050611a5c565b507fbb47ee3e183a558b1a2ff0874b079f3fc5478b7454eacf2bfc5af2ff5878f97260405160405180910390a15f5f90505f91505f5f90505b85811015611cc55736898983818110611bb057611baf6149a1565b5b9050602002810190611bc29190614e04565b9050806020016020810190611bd79190614ec8565b73ffffffffffffffffffffffffffffffffffffffff167f575ff3acadd5ab348fe1855e217e0f3678f8d767d7494c9f9fefbee2e17cca4d60405160405180910390a2365f82805f0190611c2a9190614e2b565b915091505f8282905090505f5f90505b81811015611cb357611c8b88858584818110611c5957611c586149a1565b5b9050602002810190611c6b91906149da565b8b8b81518110611c7e57611c7d6149a1565b5b6020026020010151612516565b87611c9691906145f6565b96508780611ca390614759565b9850508080600101915050611c3a565b50505050508080600101915050611b94565b505f73ffffffffffffffffffffffffffffffffffffffff167f575ff3acadd5ab348fe1855e217e0f3678f8d767d7494c9f9fefbee2e17cca4d60405160405180910390a2611d1386826128a4565b5050505050611d206129bf565b505050565b5f602052805f5260405f205f91509050805f015490806001015f9054906101000a900460ff16908060010160019054906101000a90046dffffffffffffffffffffffffffff169080600101600f9054906101000a900463ffffffff16908060010160139054906101000a900465ffffffffffff16905085565b5f5f5f5f8573ffffffffffffffffffffffffffffffffffffffff1673ffffffffffffffffffffffffffffffffffffffff1681526020019081526020015f2090505f83825f0154611dee91906145f6565b905080825f0181905550809250505092915050565b5f5f5f845160208601878987f19050949350505050565b60603d82811115611e29578290505b604051602082018101604052818152815f602083013e8092505050919050565b5f5f5a90505f5f865f015190505f611e60826129f0565b90505f8260e0015190505f73ffffffffffffffffffffffffffffffffffffffff168173ffffffffffffffffffffffffffffffffffffffff1603611ea857825f01519350611fa3565b8093505f88511115611fa2578187029550600280811115611ecc57611ecb6152f9565b5b8a6002811115611edf57611ede6152f9565b5b14611fa1578073ffffffffffffffffffffffffffffffffffffffff16637c627b218460a001518c8b8a876040518663ffffffff1660e01b8152600401611f28949392919061536c565b5f604051808303815f88803b158015611f3f575f5ffd5b5087f193505050508015611f51575060015b611fa0575f611f61610800611e1a565b9050806040517fad7954bc000000000000000000000000000000000000000000000000000000008152600401611f9791906153b6565b60405180910390fd5b5b5b5b5a8503870196505f8360a0015184606001510190505f8a608001518903905080821115611ff0575f81830390505f6064600a830281611fe557611fe461443e565b5b049050808b019a5050505b505081870295505f896040015190508681101561207c5760028081111561201a576120196152f9565b5b8b600281111561202d5761202c6152f9565b5b0361204f5780965061203e8a612a2a565b61204a8a5f898b612a8d565b612077565b7fdeadaa51000000000000000000000000000000000000000000000000000000005f5260205ffd5b6120c6565b5f878203905061208c8682611d9e565b505f5f60028111156120a1576120a06152f9565b5b8d60028111156120b4576120b36152f9565b5b1490506120c38c828b8d612a8d565b50505b505050505050949350505050565b5f7f01ffc9a7000000000000000000000000000000000000000000000000000000007bffffffffffffffffffffffffffffffffffffffffffffffffffffffff1916827bffffffffffffffffffffffffffffffffffffffffffffffffffffffff1916149050919050565b5f61214782612b17565b805190602001209050919050565b6002805403612190576040517f3ee5aeb500000000000000000000000000000000000000000000000000000000815260040160405180910390fd5b60028081905550565b5f5f5f5a90505f845f015190506121b08682612bd3565b6121b986610e37565b8560200181815250505f816040015190505f8261012001518361010001518460a0015185608001518660600151868860c0015117171717171790506effffffffffffffffffffffffffffff8016811115612248576040517f08c379a000000000000000000000000000000000000000000000000000000000815260040161223f90615420565b60405180910390fd5b5f61225284612d88565b90506122618a8a8a8487612db9565b9650612274845f01518560200151612fe9565b6122b557896040517f220266b60000000000000000000000000000000000000000000000000000000081526004016122ac9190615488565b60405180910390fd5b825a860311156122fc57896040517f220266b60000000000000000000000000000000000000000000000000000000081526004016122f391906154fe565b60405180910390fd5b60605f73ffffffffffffffffffffffffffffffffffffffff168560e0015173ffffffffffffffffffffffffffffffffffffffff161461234a576123418b8b8b856130a0565b80985081925050505b8189604001818152505061235d8161327f565b8960600181815250508960a001355a870301896080018181525050505050505050935093915050565b5f5f61239185613288565b915091508173ffffffffffffffffffffffffffffffffffffffff168373ffffffffffffffffffffffffffffffffffffffff161461240557856040517f220266b60000000000000000000000000000000000000000000000000000000081526004016123fc9190615574565b60405180910390fd5b801561244857856040517f220266b600000000000000000000000000000000000000000000000000000000815260040161243f91906155ea565b60405180910390fd5b5f61245285613288565b80935081925050505f73ffffffffffffffffffffffffffffffffffffffff168173ffffffffffffffffffffffffffffffffffffffff16146124ca57866040517f220266b60000000000000000000000000000000000000000000000000000000081526004016124c19190615660565b60405180910390fd5b811561250d57866040517f220266b600000000000000000000000000000000000000000000000000000000815260040161250491906156fc565b60405180910390fd5b50505050505050565b5f5f5a90505f61252984606001516132dc565b90505f5f6040519050365f8880606001906125449190614f5b565b9150915060605f82600381111561255a57843591505b50638dd7712f60e01b7bffffffffffffffffffffffffffffffffffffffffffffffffffffffff1916817bffffffffffffffffffffffffffffffffffffffffffffffffffffffff191603612680575f8b8b602001516040516024016125bf92919061584f565b604051602081830303815290604052638dd7712f60e01b6020820180517bffffffffffffffffffffffffffffffffffffffffffffffffffffffff838183161783525050505090503073ffffffffffffffffffffffffffffffffffffffff166242dc53828d8b604051602401612636939291906159b2565b604051602081830303815290604052915060e01b6020820180517bffffffffffffffffffffffffffffffffffffffffffffffffffffffff83818316178352505050509250506126f7565b3073ffffffffffffffffffffffffffffffffffffffff166242dc5385858d8b6040516024016126b294939291906159f7565b604051602081830303815290604052915060e01b6020820180517bffffffffffffffffffffffffffffffffffffffffffffffffffffffff838183161783525050505091505b60205f8351602085015f305af195505f5198508460405250505050508061289a575f3d8060200361272c5760205f5f3e5f5191505b507fdeaddead00000000000000000000000000000000000000000000000000000000810361279157876040517f220266b60000000000000000000000000000000000000000000000000000000081526004016127889190615a88565b60405180910390fd5b7fdeadaa510000000000000000000000000000000000000000000000000000000081036127fd575f86608001515a866127ca9190614808565b6127d491906145f6565b90505f876040015190506127e788612a2a565b6127f3885f8385612a8d565b8096505050612898565b855f01515f015173ffffffffffffffffffffffffffffffffffffffff1686602001517ff62676f440ff169a3a9afdbf812e89e7f95975ee8e5c31214ffdef631c5f4792885f015160200151612853610800611e1a565b6040516128619291906144cb565b60405180910390a35f86608001515a8661287b9190614808565b61288591906145f6565b90506128946002888684611e49565b9550505b505b5050509392505050565b5f73ffffffffffffffffffffffffffffffffffffffff168273ffffffffffffffffffffffffffffffffffffffff1603612912576040517f08c379a000000000000000000000000000000000000000000000000000000000815260040161290990615afe565b60405180910390fd5b5f8273ffffffffffffffffffffffffffffffffffffffff1682604051612937906148e1565b5f6040518083038185875af1925050503d805f8114612971576040519150601f19603f3d011682016040523d82523d5f602084013e612976565b606091505b50509050806129ba576040517f08c379a00000000000000000000000000000000000000000000000000000000081526004016129b190615b66565b60405180910390fd5b505050565b6001600281905550565b5f7f0000000000000000000000000000000000000000000000000000000000000000905090565b5f5f82610100015190505f8361012001519050808203612a14578192505050612a25565b612a20824883016132e6565b925050505b919050565b805f01515f015173ffffffffffffffffffffffffffffffffffffffff1681602001517f67b4fa9642f42120bf031f3051d1824b0fe25627945b27b8a6a65d5761d5482e835f015160200151604051612a829190613d01565b60405180910390a350565b835f015160e0015173ffffffffffffffffffffffffffffffffffffffff16845f01515f015173ffffffffffffffffffffffffffffffffffffffff1685602001517f49628fd1471006c1482da88028e9ce4dbb080b815c9b0344d39e5a8e6ec1419f875f015160200151878787604051612b099493929190615b84565b60405180910390a450505050565b60605f612b23836132fe565b90505f836020013590505f612b46858060400190612b419190614f5b565b61330d565b90505f612b61868060600190612b5c9190614f5b565b61330d565b90505f866080013590505f8760a0013590505f8860c0013590505f612b948a8060e00190612b8f9190614f5b565b61330d565b90508787878787878787604051602001612bb5989796959493929190615bc7565b60405160208183030381529060405298505050505050505050919050565b815f016020810190612be59190613ff2565b815f019073ffffffffffffffffffffffffffffffffffffffff16908173ffffffffffffffffffffffffffffffffffffffff16815250508160200135816020018181525050612c368260800135613323565b8260400183606001828152508281525050508160a001358160c0018181525050612c638260c00135613323565b8261012001836101000182815250828152505050365f838060e00190612c899190614f5b565b915091505f828290501115612d35576034828290501015612cdf576040517f08c379a0000000000000000000000000000000000000000000000000000000008152600401612cd690615c8d565b60405180910390fd5b612ce9828261335f565b8560e001866080018760a00183815250838152508373ffffffffffffffffffffffffffffffffffffffff1673ffffffffffffffffffffffffffffffffffffffff16815250505050612d82565b5f8360e0019073ffffffffffffffffffffffffffffffffffffffff16908173ffffffffffffffffffffffffffffffffffffffff16815250505f8360800181815250505f8360a00181815250505b50505050565b5f5f8260c001518360a001518460800151856060015186604001510101010190508261010001518102915050919050565b5f5f845f015190505f815f01519050612de28887898060400190612ddd9190614f5b565b6133fe565b5f8260e0015190505f5f90505f73ffffffffffffffffffffffffffffffffffffffff168273ffffffffffffffffffffffffffffffffffffffff1603612e42575f612e2b8461102b565b9050878111612e3c57808803612e3e565b5f5b9150505b8273ffffffffffffffffffffffffffffffffffffffff166319822f7c878b8b60200151856040518563ffffffff1660e01b8152600401612e8493929190615cab565b6020604051808303815f8887f193505050508015612ec057506040513d601f19601f82011682018060405250810190612ebd9190615cfb565b60015b612f0d5789612ed0610800611e1a565b6040517f65c8fd4d000000000000000000000000000000000000000000000000000000008152600401612f04929190615d70565b60405180910390fd5b809550505f73ffffffffffffffffffffffffffffffffffffffff168273ffffffffffffffffffffffffffffffffffffffff1603612fdc575f5f5f8573ffffffffffffffffffffffffffffffffffffffff1673ffffffffffffffffffffffffffffffffffffffff1681526020019081526020015f2090505f815f0154905080891115612fcf578b6040517f220266b6000000000000000000000000000000000000000000000000000000008152600401612fc69190615dfb565b60405180910390fd5b888103825f018190555050505b5050505095945050505050565b5f5f604083901c90505f8390508067ffffffffffffffff1660015f8773ffffffffffffffffffffffffffffffffffffffff1673ffffffffffffffffffffffffffffffffffffffff1681526020019081526020015f205f8477ffffffffffffffffffffffffffffffffffffffffffffffff1677ffffffffffffffffffffffffffffffffffffffffffffffff1681526020019081526020015f205f81548092919061309190614759565b91905055149250505092915050565b60605f5f5a90505f855f015190505f8160e0015190505f5f5f8373ffffffffffffffffffffffffffffffffffffffff1673ffffffffffffffffffffffffffffffffffffffff1681526020019081526020015f2090505f815f0154905087811015613141578a6040517f220266b60000000000000000000000000000000000000000000000000000000081526004016131389190615e71565b60405180910390fd5b878103825f01819055505f846080015190508373ffffffffffffffffffffffffffffffffffffffff166352b7512c828d8d602001518d6040518563ffffffff1660e01b815260040161319593929190615cab565b5f604051808303815f8887f1935050505080156131d457506040513d5f823e3d601f19601f820116820180604052508101906131d19190615f0b565b60015b613221578b6131e4610800611e1a565b6040517f65c8fd4d000000000000000000000000000000000000000000000000000000008152600401613218929190615faf565b60405180910390fd5b8199508098505050805a87031115613270578b6040517f220266b60000000000000000000000000000000000000000000000000000000081526004016132679190616060565b60405180910390fd5b50505050505094509492505050565b5f819050919050565b5f5f5f830361329c575f5f915091506132d7565b5f6132a6846136c0565b9050806040015165ffffffffffff164211806132cd5750806020015165ffffffffffff1642105b9150805f01519250505b915091565b6060819050919050565b5f8183106132f457816132f6565b825b905092915050565b5f5f8235905080915050919050565b5f60405182808583378082209250505092915050565b5f5f8260801c835f1c816fffffffffffffffffffffffffffffffff169150806fffffffffffffffffffffffffffffffff16905091509150915091565b5f5f5f84845f9060149261337593929190616094565b90613380919061610f565b60601c858560149060249261339793929190616094565b906133a29190616198565b60801c86866024906034926133b993929190616094565b906133c49190616198565b60801c816fffffffffffffffffffffffffffffffff169150806fffffffffffffffffffffffffffffffff1690509250925092509250925092565b5f82829050146136ba575f835f01515f015190505f8173ffffffffffffffffffffffffffffffffffffffff163b1461346d57846040517f220266b60000000000000000000000000000000000000000000000000000000081526004016134649190616240565b60405180910390fd5b5f6134766129c9565b73ffffffffffffffffffffffffffffffffffffffff1663570e1a36865f01516040015186866040518463ffffffff1660e01b81526004016134b8929190614a98565b6020604051808303815f8887f11580156134d4573d5f5f3e3d5ffd5b50505050506040513d601f19601f820116820180604052508101906134f99190614ace565b90505f73ffffffffffffffffffffffffffffffffffffffff168173ffffffffffffffffffffffffffffffffffffffff160361356b57856040517f220266b600000000000000000000000000000000000000000000000000000000815260040161356291906162b6565b60405180910390fd5b8173ffffffffffffffffffffffffffffffffffffffff168173ffffffffffffffffffffffffffffffffffffffff16146135db57856040517f220266b60000000000000000000000000000000000000000000000000000000081526004016135d2919061632c565b60405180910390fd5b5f8173ffffffffffffffffffffffffffffffffffffffff163b0361363657856040517f220266b600000000000000000000000000000000000000000000000000000000815260040161362d91906163a2565b60405180910390fd5b5f84845f9060149261364a93929190616094565b90613655919061610f565b60601c90508273ffffffffffffffffffffffffffffffffffffffff1686602001517fd51a9c61267aa6196961883ecf5ff2da6619c37dac0fa92122513fb32c032d2d83895f015160e001516040516136ae9291906163ce565b60405180910390a35050505b50505050565b6136c86137bb565b5f8290505f60a084901c90505f8165ffffffffffff16036136ed5765ffffffffffff90505b5f60d085901c905060405180606001604052808473ffffffffffffffffffffffffffffffffffffffff1681526020018265ffffffffffff1681526020018365ffffffffffff168152509350505050919050565b6040518060a001604052805f81526020015f151581526020015f6dffffffffffffffffffffffffffff1681526020015f63ffffffff1681526020015f65ffffffffffff1681525090565b6040518060a0016040528061379d6137ff565b81526020015f81526020015f81526020015f81526020015f81525090565b60405180606001604052805f73ffffffffffffffffffffffffffffffffffffffff1681526020015f65ffffffffffff1681526020015f65ffffffffffff1681525090565b6040518061014001604052805f73ffffffffffffffffffffffffffffffffffffffff1681526020015f81526020015f81526020015f81526020015f81526020015f81526020015f81526020015f73ffffffffffffffffffffffffffffffffffffffff1681526020015f81526020015f81525090565b5f604051905090565b5f5ffd5b5f5ffd5b5f5ffd5b5f5ffd5b5f601f19601f8301169050919050565b7f4e487b71000000000000000000000000000000000000000000000000000000005f52604160045260245ffd5b6138d38261388d565b810181811067ffffffffffffffff821117156138f2576138f161389d565b5b80604052505050565b5f613904613874565b905061391082826138ca565b919050565b5f67ffffffffffffffff82111561392f5761392e61389d565b5b6139388261388d565b9050602081019050919050565b828183375f83830152505050565b5f61396561396084613915565b6138fb565b90508281526020810184848401111561398157613980613889565b5b61398c848285613945565b509392505050565b5f82601f8301126139a8576139a7613885565b5b81356139b8848260208601613953565b91505092915050565b5f5ffd5b5f73ffffffffffffffffffffffffffffffffffffffff82169050919050565b5f6139ee826139c5565b9050919050565b6139fe816139e4565b8114613a08575f5ffd5b50565b5f81359050613a19816139f5565b92915050565b5f819050919050565b613a3181613a1f565b8114613a3b575f5ffd5b50565b5f81359050613a4c81613a28565b92915050565b5f6101408284031215613a6857613a676139c1565b5b613a736101406138fb565b90505f613a8284828501613a0b565b5f830152506020613a9584828501613a3e565b6020830152506040613aa984828501613a3e565b6040830152506060613abd84828501613a3e565b6060830152506080613ad184828501613a3e565b60808301525060a0613ae584828501613a3e565b60a08301525060c0613af984828501613a3e565b60c08301525060e0613b0d84828501613a0b565b60e083015250610100613b2284828501613a3e565b61010083015250610120613b3884828501613a3e565b6101208301525092915050565b5f819050919050565b613b5781613b45565b8114613b61575f5ffd5b50565b5f81359050613b7281613b4e565b92915050565b5f6101c08284031215613b8e57613b8d6139c1565b5b613b9860a06138fb565b90505f613ba784828501613a52565b5f83015250610140613bbb84828501613b64565b602083015250610160613bd084828501613a3e565b604083015250610180613be584828501613a3e565b6060830152506101a0613bfa84828501613a3e565b60808301525092915050565b5f5ffd5b5f5ffd5b5f5f83601f840112613c2357613c22613885565b5b8235905067ffffffffffffffff811115613c4057613c3f613c06565b5b602083019150836001820283011115613c5c57613c5b613c0a565b5b9250929050565b5f5f5f5f6102008587031215613c7c57613c7b61387d565b5b5f85013567ffffffffffffffff811115613c9957613c98613881565b5b613ca587828801613994565b9450506020613cb687828801613b78565b9350506101e085013567ffffffffffffffff811115613cd857613cd7613881565b5b613ce487828801613c0e565b925092505092959194509250565b613cfb81613a1f565b82525050565b5f602082019050613d145f830184613cf2565b92915050565b5f7fffffffff0000000000000000000000000000000000000000000000000000000082169050919050565b613d4e81613d1a565b8114613d58575f5ffd5b50565b5f81359050613d6981613d45565b92915050565b5f60208284031215613d8457613d8361387d565b5b5f613d9184828501613d5b565b91505092915050565b5f8115159050919050565b613dae81613d9a565b82525050565b5f602082019050613dc75f830184613da5565b92915050565b5f63ffffffff82169050919050565b613de581613dcd565b8114613def575f5ffd5b50565b5f81359050613e0081613ddc565b92915050565b5f60208284031215613e1b57613e1a61387d565b5b5f613e2884828501613df2565b91505092915050565b5f77ffffffffffffffffffffffffffffffffffffffffffffffff82169050919050565b613e5d81613e31565b8114613e67575f5ffd5b50565b5f81359050613e7881613e54565b92915050565b5f60208284031215613e9357613e9261387d565b5b5f613ea084828501613e6a565b91505092915050565b5f5f60408385031215613ebf57613ebe61387d565b5b5f613ecc85828601613a0b565b9250506020613edd85828601613e6a565b9150509250929050565b5f613ef1826139c5565b9050919050565b613f0181613ee7565b8114613f0b575f5ffd5b50565b5f81359050613f1c81613ef8565b92915050565b5f5f60408385031215613f3857613f3761387d565b5b5f613f4585828601613f0e565b9250506020613f5685828601613a3e565b9150509250929050565b5f5ffd5b5f6101208284031215613f7a57613f79613f60565b5b81905092915050565b5f60208284031215613f9857613f9761387d565b5b5f82013567ffffffffffffffff811115613fb557613fb4613881565b5b613fc184828501613f64565b91505092915050565b613fd381613b45565b82525050565b5f602082019050613fec5f830184613fca565b92915050565b5f602082840312156140075761400661387d565b5b5f61401484828501613a0b565b91505092915050565b61402681613a1f565b82525050565b61403581613d9a565b82525050565b5f6dffffffffffffffffffffffffffff82169050919050565b61405d8161403b565b82525050565b61406c81613dcd565b82525050565b5f65ffffffffffff82169050919050565b61408c81614072565b82525050565b60a082015f8201516140a65f85018261401d565b5060208201516140b9602085018261402c565b5060408201516140cc6040850182614054565b5060608201516140df6060850182614063565b5060808201516140f26080850182614083565b50505050565b5f60a08201905061410b5f830184614092565b92915050565b5f5f83601f84011261412657614125613885565b5b8235905067ffffffffffffffff81111561414357614142613c06565b5b60208301915083602082028301111561415f5761415e613c0a565b5b9250929050565b5f5f5f6040848603121561417d5761417c61387d565b5b5f84013567ffffffffffffffff81111561419a57614199613881565b5b6141a686828701614111565b935093505060206141b986828701613f0e565b9150509250925092565b5f5f5f604084860312156141da576141d961387d565b5b5f6141e786828701613a0b565b935050602084013567ffffffffffffffff81111561420857614207613881565b5b61421486828701613c0e565b92509250509250925092565b5f5f602083850312156142365761423561387d565b5b5f83013567ffffffffffffffff81111561425357614252613881565b5b61425f85828601613c0e565b92509250509250929050565b5f602082840312156142805761427f61387d565b5b5f61428d84828501613f0e565b91505092915050565b5f5f83601f8401126142ab576142aa613885565b5b8235905067ffffffffffffffff8111156142c8576142c7613c06565b5b6020830191508360208202830111156142e4576142e3613c0a565b5b9250929050565b5f5f5f604084860312156143025761430161387d565b5b5f84013567ffffffffffffffff81111561431f5761431e613881565b5b61432b86828701614296565b9350935050602061433e86828701613f0e565b9150509250925092565b6143518161403b565b82525050565b61436081613dcd565b82525050565b61436f81614072565b82525050565b5f60a0820190506143885f830188613cf2565b6143956020830187613da5565b6143a26040830186614348565b6143af6060830185614357565b6143bc6080830184614366565b9695505050505050565b5f82825260208201905092915050565b7f4141393220696e7465726e616c2063616c6c206f6e6c790000000000000000005f82015250565b5f61440a6017836143c6565b9150614415826143d6565b602082019050919050565b5f6020820190508181035f830152614437816143fe565b9050919050565b7f4e487b71000000000000000000000000000000000000000000000000000000005f52601260045260245ffd5b5f81519050919050565b5f82825260208201905092915050565b8281835e5f83830152505050565b5f61449d8261446b565b6144a78185614475565b93506144b7818560208601614485565b6144c08161388d565b840191505092915050565b5f6040820190506144de5f830185613cf2565b81810360208301526144f08184614493565b90509392505050565b7f6d757374207370656369667920756e7374616b652064656c61790000000000005f82015250565b5f61452d601a836143c6565b9150614538826144f9565b602082019050919050565b5f6020820190508181035f83015261455a81614521565b9050919050565b7f63616e6e6f7420646563726561736520756e7374616b652074696d65000000005f82015250565b5f614595601c836143c6565b91506145a082614561565b602082019050919050565b5f6020820190508181035f8301526145c281614589565b9050919050565b7f4e487b71000000000000000000000000000000000000000000000000000000005f52601160045260245ffd5b5f61460082613a1f565b915061460b83613a1f565b9250828201905080821115614623576146226145c9565b5b92915050565b7f6e6f207374616b652073706563696669656400000000000000000000000000005f82015250565b5f61465d6012836143c6565b915061466882614629565b602082019050919050565b5f6020820190508181035f83015261468a81614651565b9050919050565b7f7374616b65206f766572666c6f770000000000000000000000000000000000005f82015250565b5f6146c5600e836143c6565b91506146d082614691565b602082019050919050565b5f6020820190508181035f8301526146f2816146b9565b9050919050565b5f819050919050565b5f61471c61471761471284613dcd565b6146f9565b613a1f565b9050919050565b61472c81614702565b82525050565b5f6040820190506147455f830185613cf2565b6147526020830184614723565b9392505050565b5f61476382613a1f565b91507fffffffffffffffffffffffffffffffffffffffffffffffffffffffffffffffff8203614795576147946145c9565b5b600182019050919050565b7f576974686472617720616d6f756e7420746f6f206c61726765000000000000005f82015250565b5f6147d46019836143c6565b91506147df826147a0565b602082019050919050565b5f6020820190508181035f830152614801816147c8565b9050919050565b5f61481282613a1f565b915061481d83613a1f565b9250828203905081811115614835576148346145c9565b5b92915050565b5f61485561485061484b846139c5565b6146f9565b6139c5565b9050919050565b5f6148668261483b565b9050919050565b5f6148778261485c565b9050919050565b6148878161486d565b82525050565b5f6040820190506148a05f83018561487e565b6148ad6020830184613cf2565b9392505050565b5f81905092915050565b50565b5f6148cc5f836148b4565b91506148d7826148be565b5f82019050919050565b5f6148eb826148c1565b9150819050919050565b7f6661696c656420746f20776974686472617700000000000000000000000000005f82015250565b5f6149296012836143c6565b9150614934826148f5565b602082019050919050565b5f6020820190508181035f8301526149568161491d565b9050919050565b614966816139e4565b82525050565b5f60608201905061497f5f830186613fca565b61498c602083018561495d565b6149996040830184613cf2565b949350505050565b7f4e487b71000000000000000000000000000000000000000000000000000000005f52603260045260245ffd5b5f5ffd5b5f5ffd5b5f5ffd5b5f82356001610120038336030381126149f6576149f56149ce565b5b80830191505092915050565b5f614a0d83856148b4565b9350614a1a838584613945565b82840190509392505050565b5f614a32828486614a02565b91508190509392505050565b5f604082019050614a515f830185613da5565b8181036020830152614a638184614493565b90509392505050565b5f614a778385614475565b9350614a84838584613945565b614a8d8361388d565b840190509392505050565b5f6020820190508181035f830152614ab1818486614a6c565b90509392505050565b5f81519050614ac8816139f5565b92915050565b5f60208284031215614ae357614ae261387d565b5b5f614af084828501614aba565b91505092915050565b5f602082019050614b0c5f83018461495d565b92915050565b7f6e6f74207374616b6564000000000000000000000000000000000000000000005f82015250565b5f614b46600a836143c6565b9150614b5182614b12565b602082019050919050565b5f6020820190508181035f830152614b7381614b3a565b9050919050565b7f616c726561647920756e7374616b696e670000000000000000000000000000005f82015250565b5f614bae6011836143c6565b9150614bb982614b7a565b602082019050919050565b5f6020820190508181035f830152614bdb81614ba2565b9050919050565b5f614bec82614072565b9150614bf783614072565b9250828201905065ffffffffffff811115614c1557614c146145c9565b5b92915050565b5f614c35614c30614c2b84614072565b6146f9565b613a1f565b9050919050565b614c4581614c1b565b82525050565b5f602082019050614c5e5f830184614c3c565b92915050565b7f4e6f207374616b6520746f2077697468647261770000000000000000000000005f82015250565b5f614c986014836143c6565b9150614ca382614c64565b602082019050919050565b5f6020820190508181035f830152614cc581614c8c565b9050919050565b7f6d7573742063616c6c20756e6c6f636b5374616b6528292066697273740000005f82015250565b5f614d00601d836143c6565b9150614d0b82614ccc565b602082019050919050565b5f6020820190508181035f830152614d2d81614cf4565b9050919050565b7f5374616b65207769746864726177616c206973206e6f742064756500000000005f82015250565b5f614d68601b836143c6565b9150614d7382614d34565b602082019050919050565b5f6020820190508181035f830152614d9581614d5c565b9050919050565b7f6661696c656420746f207769746864726177207374616b6500000000000000005f82015250565b5f614dd06018836143c6565b9150614ddb82614d9c565b602082019050919050565b5f6020820190508181035f830152614dfd81614dc4565b9050919050565b5f82356001606003833603038112614e1f57614e1e6149ce565b5b80830191505092915050565b5f5f83356001602003843603038112614e4757614e466149ce565b5b80840192508235915067ffffffffffffffff821115614e6957614e686149d2565b5b602083019250602082023603831315614e8557614e846149d6565b5b509250929050565b5f614e97826139e4565b9050919050565b614ea781614e8d565b8114614eb1575f5ffd5b50565b5f81359050614ec281614e9e565b92915050565b5f60208284031215614edd57614edc61387d565b5b5f614eea84828501614eb4565b91505092915050565b7f4141393620696e76616c69642061676772656761746f720000000000000000005f82015250565b5f614f276017836143c6565b9150614f3282614ef3565b602082019050919050565b5f6020820190508181035f830152614f5481614f1b565b9050919050565b5f5f83356001602003843603038112614f7757614f766149ce565b5b80840192508235915067ffffffffffffffff821115614f9957614f986149d2565b5b602083019250600182023603831315614fb557614fb46149d6565b5b509250929050565b5f82825260208201905092915050565b5f819050919050565b5f614fe46020840184613a0b565b905092915050565b614ff5816139e4565b82525050565b5f6150096020840184613a3e565b905092915050565b5f5ffd5b5f5ffd5b5f5ffd5b5f5f8335600160200384360303811261503957615038615019565b5b83810192508235915060208301925067ffffffffffffffff82111561506157615060615011565b5b60018202360383131561507757615076615015565b5b509250929050565b5f82825260208201905092915050565b5f61509a838561507f565b93506150a7838584613945565b6150b08361388d565b840190509392505050565b5f6150c96020840184613b64565b905092915050565b6150da81613b45565b82525050565b5f61012083016150f25f840184614fd6565b6150fe5f860182614fec565b5061510c6020840184614ffb565b615119602086018261401d565b50615127604084018461501d565b858303604087015261513a83828461508f565b9250505061514b606084018461501d565b858303606087015261515e83828461508f565b9250505061516f60808401846150bb565b61517c60808601826150d1565b5061518a60a0840184614ffb565b61519760a086018261401d565b506151a560c08401846150bb565b6151b260c08601826150d1565b506151c060e084018461501d565b85830360e08701526151d383828461508f565b925050506151e561010084018461501d565b8583036101008701526151f983828461508f565b925050508091505092915050565b5f61521283836150e0565b905092915050565b5f823560016101200383360303811261523657615235615019565b5b82810191505092915050565b5f602082019050919050565b5f6152598385614fbd565b93508360208402850161526b84614fcd565b805f5b878110156152ae578484038952615285828461521a565b61528f8582615207565b945061529a83615242565b925060208a0199505060018101905061526e565b50829750879450505050509392505050565b5f6040820190508181035f8301526152d981868861524e565b905081810360208301526152ee818486614a6c565b905095945050505050565b7f4e487b71000000000000000000000000000000000000000000000000000000005f52602160045260245ffd5b60038110615337576153366152f9565b5b50565b5f81905061534782615326565b919050565b5f6153568261533a565b9050919050565b6153668161534c565b82525050565b5f60808201905061537f5f83018761535d565b81810360208301526153918186614493565b90506153a06040830185613cf2565b6153ad6060830184613cf2565b95945050505050565b5f6020820190508181035f8301526153ce8184614493565b905092915050565b7f41413934206761732076616c756573206f766572666c6f7700000000000000005f82015250565b5f61540a6018836143c6565b9150615415826153d6565b602082019050919050565b5f6020820190508181035f830152615437816153fe565b9050919050565b7f4141323520696e76616c6964206163636f756e74206e6f6e63650000000000005f82015250565b5f615472601a836143c6565b915061547d8261543e565b602082019050919050565b5f60408201905061549b5f830184613cf2565b81810360208301526154ac81615466565b905092915050565b7f41413236206f76657220766572696669636174696f6e4761734c696d697400005f82015250565b5f6154e8601e836143c6565b91506154f3826154b4565b602082019050919050565b5f6040820190506155115f830184613cf2565b8181036020830152615522816154dc565b905092915050565b7f41413234207369676e6174757265206572726f720000000000000000000000005f82015250565b5f61555e6014836143c6565b91506155698261552a565b602082019050919050565b5f6040820190506155875f830184613cf2565b818103602083015261559881615552565b905092915050565b7f414132322065787069726564206f72206e6f74206475650000000000000000005f82015250565b5f6155d46017836143c6565b91506155df826155a0565b602082019050919050565b5f6040820190506155fd5f830184613cf2565b818103602083015261560e816155c8565b905092915050565b7f41413334207369676e6174757265206572726f720000000000000000000000005f82015250565b5f61564a6014836143c6565b915061565582615616565b602082019050919050565b5f6040820190506156735f830184613cf2565b81810360208301526156848161563e565b905092915050565b7f41413332207061796d61737465722065787069726564206f72206e6f742064755f8201527f6500000000000000000000000000000000000000000000000000000000000000602082015250565b5f6156e66021836143c6565b91506156f18261568c565b604082019050919050565b5f60408201905061570f5f830184613cf2565b8181036020830152615720816156da565b905092915050565b5f610120830161573a5f840184614fd6565b6157465f860182614fec565b506157546020840184614ffb565b615761602086018261401d565b5061576f604084018461501d565b858303604087015261578283828461508f565b92505050615793606084018461501d565b85830360608701526157a683828461508f565b925050506157b760808401846150bb565b6157c460808601826150d1565b506157d260a0840184614ffb565b6157df60a086018261401d565b506157ed60c08401846150bb565b6157fa60c08601826150d1565b5061580860e084018461501d565b85830360e087015261581b83828461508f565b9250505061582d61010084018461501d565b85830361010087015261584183828461508f565b925050508091505092915050565b5f6040820190508181035f8301526158678185615728565b90506158766020830184613fca565b9392505050565b61014082015f8201516158925f850182614fec565b5060208201516158a5602085018261401d565b5060408201516158b8604085018261401d565b5060608201516158cb606085018261401d565b5060808201516158de608085018261401d565b5060a08201516158f160a085018261401d565b5060c082015161590460c085018261401d565b5060e082015161591760e0850182614fec565b5061010082015161592c61010085018261401d565b5061012082015161594161012085018261401d565b50505050565b6101c082015f82015161595c5f85018261587d565b5060208201516159706101408501826150d1565b50604082015161598461016085018261401d565b50606082015161599861018085018261401d565b5060808201516159ac6101a085018261401d565b50505050565b5f610200820190508181035f8301526159cb8186614493565b90506159da6020830185615947565b8181036101e08301526159ed8184614493565b9050949350505050565b5f610200820190508181035f830152615a11818688614a6c565b9050615a206020830185615947565b8181036101e0830152615a338184614493565b905095945050505050565b7f41413935206f7574206f662067617300000000000000000000000000000000005f82015250565b5f615a72600f836143c6565b9150615a7d82615a3e565b602082019050919050565b5f604082019050615a9b5f830184613cf2565b8181036020830152615aac81615a66565b905092915050565b7f4141393020696e76616c69642062656e656669636961727900000000000000005f82015250565b5f615ae86018836143c6565b9150615af382615ab4565b602082019050919050565b5f6020820190508181035f830152615b1581615adc565b9050919050565b7f41413931206661696c65642073656e6420746f2062656e6566696369617279005f82015250565b5f615b50601f836143c6565b9150615b5b82615b1c565b602082019050919050565b5f6020820190508181035f830152615b7d81615b44565b9050919050565b5f608082019050615b975f830187613cf2565b615ba46020830186613da5565b615bb16040830185613cf2565b615bbe6060830184613cf2565b95945050505050565b5f61010082019050615bdb5f83018b61495d565b615be8602083018a613cf2565b615bf56040830189613fca565b615c026060830188613fca565b615c0f6080830187613fca565b615c1c60a0830186613cf2565b615c2960c0830185613fca565b615c3660e0830184613fca565b9998505050505050505050565b7f4141393320696e76616c6964207061796d6173746572416e64446174610000005f82015250565b5f615c77601d836143c6565b9150615c8282615c43565b602082019050919050565b5f6020820190508181035f830152615ca481615c6b565b9050919050565b5f6060820190508181035f830152615cc38186615728565b9050615cd26020830185613fca565b615cdf6040830184613cf2565b949350505050565b5f81519050615cf581613a28565b92915050565b5f60208284031215615d1057615d0f61387d565b5b5f615d1d84828501615ce7565b91505092915050565b7f41413233207265766572746564000000000000000000000000000000000000005f82015250565b5f615d5a600d836143c6565b9150615d6582615d26565b602082019050919050565b5f606082019050615d835f830185613cf2565b8181036020830152615d9481615d4e565b90508181036040830152615da88184614493565b90509392505050565b7f41413231206469646e2774207061792070726566756e640000000000000000005f82015250565b5f615de56017836143c6565b9150615df082615db1565b602082019050919050565b5f604082019050615e0e5f830184613cf2565b8181036020830152615e1f81615dd9565b905092915050565b7f41413331207061796d6173746572206465706f73697420746f6f206c6f7700005f82015250565b5f615e5b601e836143c6565b9150615e6682615e27565b602082019050919050565b5f604082019050615e845f830184613cf2565b8181036020830152615e9581615e4f565b905092915050565b5f615eaf615eaa84613915565b6138fb565b905082815260208101848484011115615ecb57615eca613889565b5b615ed6848285614485565b509392505050565b5f82601f830112615ef257615ef1613885565b5b8151615f02848260208601615e9d565b91505092915050565b5f5f60408385031215615f2157615f2061387d565b5b5f83015167ffffffffffffffff811115615f3e57615f3d613881565b5b615f4a85828601615ede565b9250506020615f5b85828601615ce7565b9150509250929050565b7f41413333207265766572746564000000000000000000000000000000000000005f82015250565b5f615f99600d836143c6565b9150615fa482615f65565b602082019050919050565b5f606082019050615fc25f830185613cf2565b8181036020830152615fd381615f8d565b90508181036040830152615fe78184614493565b90509392505050565b7f41413336206f766572207061796d6173746572566572696669636174696f6e475f8201527f61734c696d697400000000000000000000000000000000000000000000000000602082015250565b5f61604a6027836143c6565b915061605582615ff0565b604082019050919050565b5f6040820190506160735f830184613cf2565b81810360208301526160848161603e565b905092915050565b5f5ffd5b5f5ffd5b5f5f858511156160a7576160a661608c565b5b838611156160b8576160b7616090565b5b6001850283019150848603905094509492505050565b5f82905092915050565b5f7fffffffffffffffffffffffffffffffffffffffff00000000000000000000000082169050919050565b5f82821b905092915050565b5f61611a83836160ce565b8261612581356160d8565b92506014821015616165576161607fffffffffffffffffffffffffffffffffffffffff00000000000000000000000083601403600802616103565b831692505b505092915050565b5f7fffffffffffffffffffffffffffffffff0000000000000000000000000000000082169050919050565b5f6161a383836160ce565b826161ae813561616d565b925060108210156161ee576161e97fffffffffffffffffffffffffffffffff0000000000000000000000000000000083601003600802616103565b831692505b505092915050565b7f414131302073656e64657220616c726561647920636f6e7374727563746564005f82015250565b5f61622a601f836143c6565b9150616235826161f6565b602082019050919050565b5f6040820190506162535f830184613cf2565b81810360208301526162648161621e565b905092915050565b7f4141313320696e6974436f6465206661696c6564206f72204f4f4700000000005f82015250565b5f6162a0601b836143c6565b91506162ab8261626c565b602082019050919050565b5f6040820190506162c95f830184613cf2565b81810360208301526162da81616294565b905092915050565b7f4141313420696e6974436f6465206d7573742072657475726e2073656e6465725f82015250565b5f6163166020836143c6565b9150616321826162e2565b602082019050919050565b5f60408201905061633f5f830184613cf2565b81810360208301526163508161630a565b905092915050565b7f4141313520696e6974436f6465206d757374206372656174652073656e6465725f82015250565b5f61638c6020836143c6565b915061639782616358565b602082019050919050565b5f6040820190506163b55f830184613cf2565b81810360208301526163c681616380565b905092915050565b5f6040820190506163e15f83018561495d565b6163ee602083018461495d565b939250505056fea2646970667358221220b2a7b2b92ec117f100996ab4518d132aaea0b80e1608f0aa74335121ecc146c164736f6c634300081c00336080604052348015600e575f5ffd5b506103238061001c5f395ff3fe608060405234801561000f575f5ffd5b5060043610610029575f3560e01c8063570e1a361461002d575b5f5ffd5b61004760048036038101906100429190610169565b61005d565b60405161005491906101f3565b60405180910390f35b5f5f83835f9060149261007293929190610214565b9061007d919061028f565b60601c90505f8484601490809261009693929190610214565b8080601f0160208091040260200160405190810160405280939291908181526020018383808284375f81840152601f19601f8201169050808301925050505050505090505f60205f8351602085015f875af190505f519350806100f7575f93505b50505092915050565b5f5ffd5b5f5ffd5b5f5ffd5b5f5ffd5b5f5ffd5b5f5f83601f84011261012957610128610108565b5b8235905067ffffffffffffffff8111156101465761014561010c565b5b60208301915083600182028301111561016257610161610110565b5b9250929050565b5f5f6020838503121561017f5761017e610100565b5b5f83013567ffffffffffffffff81111561019c5761019b610104565b5b6101a885828601610114565b92509250509250929050565b5f73ffffffffffffffffffffffffffffffffffffffff82169050919050565b5f6101dd826101b4565b9050919050565b6101ed816101d3565b82525050565b5f6020820190506102065f8301846101e4565b92915050565b5f5ffd5b5f5ffd5b5f5f858511156102275761022661020c565b5b8386111561023857610237610210565b5b6001850283019150848603905094509492505050565b5f82905092915050565b5f7fffffffffffffffffffffffffffffffffffffffff00000000000000000000000082169050919050565b5f82821b905092915050565b5f61029a838361024e565b826102a58135610258565b925060148210156102e5576102e07fffffffffffffffffffffffffffffffffffffffff00000000000000000000000083601403600802610283565b831692505b50509291505056fea26469706673582212204b24f640918b56a300b9af59a13be169d76e4fd632498143d2b0b110ce9a632264736f6c634300081c0033","linkReferences":{}},"methodIdentifiers":{"addStake(uint32)":"0396cb60","balanceOf(address)":"70a08231","delegateAndRevert(address,bytes)":"850aaf62","depositTo(address)":"b760faf9","deposits(address)":"fc7e286d","getDepositInfo(address)":"5287ce12","getNonce(address,uint192)":"35567e1a","getSenderAddress(bytes)":"9b249f69","getUserOpHash((address,uint256,bytes,bytes,bytes32,uint256,bytes32,bytes,bytes))":"22cdde4c","handleAggregatedOps(((address,uint256,bytes,bytes,bytes32,uint256,bytes32,bytes,bytes)[],address,bytes)[],address)":"dbed18e0","handleOps((address,uint256,bytes,bytes,bytes32,uint256,bytes32,bytes,bytes)[],address)":"765e827f","incrementNonce(uint192)":"0bd28e3b","innerHandleOp(bytes,((address,uint256,uint256,uint256,uint256,uint256,uint256,address,uint256,uint256),bytes32,uint256,uint256,uint256),bytes)":"0042dc53","nonceSequenceNumber(address,uint192)":"1b2e01b8","supportsInterface(bytes4)":"01ffc9a7","unlockStake()":"bb9fe6bf","withdrawStake(address)":"c23a5cea","withdrawTo(address,uint256)":"205c2878"},"id":5}