{"abi":[{"type":"function","name":"createSender","inputs":[{"name":"initCode","type":"bytes","internalType":"bytes"}],"outputs":[{"name":"sender","type":"address","internalType":"address"}],"stateMutability":"nonpayable"}],"bytecode":{"object":"0x60808060405234610016576101ea908161001b8239f35b5f80fdfe60806040526004361015610011575f80fd5b5f3560e01c63570e1a3614610024575f80fd5b346100c45760207ffffffffffffffffffffffffffffffffffffffffffffffffffffffffffffffffc3601126100c45767ffffffffffffffff6004358181116100c457366023820112156100c45780600401359182116100c45736602483830101116100c4576100c091602461009992016100f5565b60405173ffffffffffffffffffffffffffffffffffffffff90911681529081906020820190565b0390f35b5f80fd5b7f4e487b71000000000000000000000000000000000000000000000000000000005f52604160045260245ffd5b90806014116100c45767ffffffffffffffff917fffffffffffffffffffffffffffffffffffffffffffffffffffffffffffffffec82018381116101af5760405193600b84017fffffffffffffffffffffffffffffffffffffffffffffffffffffffffffffffe0908116603f01168501908111858210176101af57604052808452602084019036848401116100c4576020945f600c819682946014880187378301015251923560601c5af1905f5191156101aa57565b5f9150565b6100c856fea26469706673582212201d09ce9c4aeab9b1bf1f58b2d88a857f7843c9927a2cd956c2af0112d6233ee564736f6c63430008180033","linkReferences":{}},"methodIdentifiers":{"createSender(bytes)":"570e1a36"},"id":16}