{"abi":[{"type":"function","name":"createSender","inputs":[{"name":"initCode","type":"bytes","internalType":"bytes"}],"outputs":[{"name":"sender","type":"address","internalType":"address"}],"stateMutability":"nonpayable"}],"bytecode":{"object":"0x6080604052348015600e575f5ffd5b506103238061001c5f395ff3fe608060405234801561000f575f5ffd5b5060043610610029575f3560e01c8063570e1a361461002d575b5f5ffd5b61004760048036038101906100429190610169565b61005d565b60405161005491906101f3565b60405180910390f35b5f5f83835f9060149261007293929190610214565b9061007d919061028f565b60601c90505f8484601490809261009693929190610214565b8080601f0160208091040260200160405190810160405280939291908181526020018383808284375f81840152601f19601f8201169050808301925050505050505090505f60205f8351602085015f875af190505f519350806100f7575f93505b50505092915050565b5f5ffd5b5f5ffd5b5f5ffd5b5f5ffd5b5f5ffd5b5f5f83601f84011261012957610128610108565b5b8235905067ffffffffffffffff8111156101465761014561010c565b5b60208301915083600182028301111561016257610161610110565b5b9250929050565b5f5f6020838503121561017f5761017e610100565b5b5f83013567ffffffffffffffff81111561019c5761019b610104565b5b6101a885828601610114565b92509250509250929050565b5f73ffffffffffffffffffffffffffffffffffffffff82169050919050565b5f6101dd826101b4565b9050919050565b6101ed816101d3565b82525050565b5f6020820190506102065f8301846101e4565b92915050565b5f5ffd5b5f5ffd5b5f5f858511156102275761022661020c565b5b8386111561023857610237610210565b5b6001850283019150848603905094509492505050565b5f82905092915050565b5f7fffffffffffffffffffffffffffffffffffffffff00000000000000000000000082169050919050565b5f82821b905092915050565b5f61029a838361024e565b826102a58135610258565b925060148210156102e5576102e07fffffffffffffffffffffffffffffffffffffffff00000000000000000000000083601403600802610283565b831692505b50509291505056fea26469706673582212204b24f640918b56a300b9af59a13be169d76e4fd632498143d2b0b110ce9a632264736f6c634300081c0033","linkReferences":{}},"methodIdentifiers":{"createSender(bytes)":"570e1a36"},"id":8}