{"abi":[{"type":"constructor","inputs":[{"name":"entryPoint_","type":"address","internalType":"contract IEntryPoint"},{"name":"owner_","type":"address","internalType":"address"}],"stateMutability":"nonpayable"},{"type":"receive","stateMutability":"payable"},{"type":"function","name":"entryPoint","inputs":[],"outputs":[{"name":"","type":"address","internalType":"contract IEntryPoint"}],"stateMutability":"view"},{"type":"function","name":"getNonce","inputs":[],"outputs":[{"name":"","type":"uint256","internalType":"uint256"}],"stateMutability":"view"},{"type":"function","name":"owner","inputs":[],"outputs":[{"name":"","type":"address","internalType":"address"}],"stateMutability":"view"},{"type":"function","name":"validateUserOp","inputs":[{"name":"userOp","type":"tuple","internalType":"struct PackedUserOperation","components":[{"name":"sender","type":"address","internalType":"address"},{"name":"nonce","type":"uint256","internalType":"uint256"},{"name":"initCode","type":"bytes","internalType":"bytes"},{"name":"callData","type":"bytes","internalType":"bytes"},{"name":"accountGasLimits","type":"bytes32","internalType":"bytes32"},{"name":"preVerificationGas","type":"uint256","internalType":"uint256"},{"name":"gasFees","type":"bytes32","internalType":"bytes32"},{"name":"paymasterAndData","type":"bytes","internalType":"bytes"},{"name":"signature","type":"bytes","internalType":"bytes"}]},{"name":"userOpHash","type":"bytes32","internalType":"bytes32"},{"name":"missingAccountFunds","type":"uint256","internalType":"uint256"}],"outputs":[{"name":"validationData","type":"uint256","internalType":"uint256"}],"stateMutability":"nonpayable"}],"bytecode":{"object":"0x60a060405234801561000f575f5ffd5b50604051610afd380380610afd83398181016040528101906100319190610144565b8173ffffffffffffffffffffffffffffffffffffffff1660808173ffffffffffffffffffffffffffffffffffffffff1681525050805f5f6101000a81548173ffffffffffffffffffffffffffffffffffffffff021916908373ffffffffffffffffffffffffffffffffffffffff1602179055505050610182565b5f5ffd5b5f73ffffffffffffffffffffffffffffffffffffffff82169050919050565b5f6100d8826100af565b9050919050565b5f6100e9826100ce565b9050919050565b6100f9816100df565b8114610103575f5ffd5b50565b5f81519050610114816100f0565b92915050565b610123816100ce565b811461012d575f5ffd5b50565b5f8151905061013e8161011a565b92915050565b5f5f6040838503121561015a576101596100ab565b5b5f61016785828601610106565b925050602061017885828601610130565b9150509250929050565b60805161096361019a5f395f61016001526109635ff3fe608060405260043610610042575f3560e01c806319822f7c1461004d5780638da5cb5b14610089578063b0d691fe146100b3578063d087d288146100dd57610049565b3661004957005b5f5ffd5b348015610058575f5ffd5b50610073600480360381019061006e91906104e9565b610107565b6040516100809190610564565b60405180910390f35b348015610094575f5ffd5b5061009d610139565b6040516100aa91906105bc565b60405180910390f35b3480156100be575f5ffd5b506100c761015d565b6040516100d49190610630565b60405180910390f35b3480156100e8575f5ffd5b506100f1610184565b6040516100fe9190610564565b60405180910390f35b5f61011061020b565b61011a8484610282565b905061012984602001356102f6565b610132826102f9565b9392505050565b5f5f9054906101000a900473ffffffffffffffffffffffffffffffffffffffff1681565b5f7f0000000000000000000000000000000000000000000000000000000000000000905090565b5f61018d61015d565b73ffffffffffffffffffffffffffffffffffffffff166335567e1a305f6040518363ffffffff1660e01b81526004016101c79291906106a5565b602060405180830381865afa1580156101e2573d5f5f3e3d5ffd5b505050506040513d601f19601f8201168201806040525081019061020691906106e0565b905090565b61021361015d565b73ffffffffffffffffffffffffffffffffffffffff163373ffffffffffffffffffffffffffffffffffffffff1614610280576040517f08c379a000000000000000000000000000000000000000000000000000000000815260040161027790610765565b60405180910390fd5b565b5f6102df8284806101000190610298919061078f565b8080601f0160208091040260200160405190810160405280939291908181526020018383808284375f81840152601f19601f82011690508083019250505050505050610390565b6102ec57600190506102f0565b5f90505b92915050565b50565b5f811461038d575f3373ffffffffffffffffffffffffffffffffffffffff16827fffffffffffffffffffffffffffffffffffffffffffffffffffffffffffffffff906040516103479061081e565b5f60405180830381858888f193505050503d805f8114610382576040519150601f19603f3d011682016040523d82523d5f602084013e610387565b606091505b50509050505b50565b5f5f5f5f848060200190518101906103a8919061087c565b9250925092505f6001878585856040515f81526020016040526040516103d194939291906108ea565b6020604051602081039080840390855afa1580156103f1573d5f5f3e3d5ffd5b5050506020604051035190505f5f9054906101000a900473ffffffffffffffffffffffffffffffffffffffff1673ffffffffffffffffffffffffffffffffffffffff168173ffffffffffffffffffffffffffffffffffffffff161494505050505092915050565b5f5ffd5b5f5ffd5b5f5ffd5b5f610120828403121561047a57610479610460565b5b81905092915050565b5f819050919050565b61049581610483565b811461049f575f5ffd5b50565b5f813590506104b08161048c565b92915050565b5f819050919050565b6104c8816104b6565b81146104d2575f5ffd5b50565b5f813590506104e3816104bf565b92915050565b5f5f5f60608486031215610500576104ff610458565b5b5f84013567ffffffffffffffff81111561051d5761051c61045c565b5b61052986828701610464565b935050602061053a868287016104a2565b925050604061054b868287016104d5565b9150509250925092565b61055e816104b6565b82525050565b5f6020820190506105775f830184610555565b92915050565b5f73ffffffffffffffffffffffffffffffffffffffff82169050919050565b5f6105a68261057d565b9050919050565b6105b68161059c565b82525050565b5f6020820190506105cf5f8301846105ad565b92915050565b5f819050919050565b5f6105f86105f36105ee8461057d565b6105d5565b61057d565b9050919050565b5f610609826105de565b9050919050565b5f61061a826105ff565b9050919050565b61062a81610610565b82525050565b5f6020820190506106435f830184610621565b92915050565b5f819050919050565b5f77ffffffffffffffffffffffffffffffffffffffffffffffff82169050919050565b5f61068f61068a61068584610649565b6105d5565b610652565b9050919050565b61069f81610675565b82525050565b5f6040820190506106b85f8301856105ad565b6106c56020830184610696565b9392505050565b5f815190506106da816104bf565b92915050565b5f602082840312156106f5576106f4610458565b5b5f610702848285016106cc565b91505092915050565b5f82825260208201905092915050565b7f6163636f756e743a206e6f742066726f6d20456e747279506f696e74000000005f82015250565b5f61074f601c8361070b565b915061075a8261071b565b602082019050919050565b5f6020820190508181035f83015261077c81610743565b9050919050565b5f5ffd5b5f5ffd5b5f5ffd5b5f5f833560016020038436030381126107ab576107aa610783565b5b80840192508235915067ffffffffffffffff8211156107cd576107cc610787565b5b6020830192506001820236038313156107e9576107e861078b565b5b509250929050565b5f81905092915050565b50565b5f6108095f836107f1565b9150610814826107fb565b5f82019050919050565b5f610828826107fe565b9150819050919050565b5f60ff82169050919050565b61084781610832565b8114610851575f5ffd5b50565b5f815190506108628161083e565b92915050565b5f815190506108768161048c565b92915050565b5f5f5f6060848603121561089357610892610458565b5b5f6108a086828701610854565b93505060206108b186828701610868565b92505060406108c286828701610868565b9150509250925092565b6108d581610483565b82525050565b6108e481610832565b82525050565b5f6080820190506108fd5f8301876108cc565b61090a60208301866108db565b61091760408301856108cc565b61092460608301846108cc565b9594505050505056fea26469706673582212209146a2de6e7925d5f7063b3553bbc35676e155456da1bfd1575da3db009e0fbc64736f6c634300081c0033","linkReferences":{}},"methodIdentifiers":{"entryPoint()":"b0d691fe","getNonce()":"d087d288","owner()":"8da5cb5b","validateUserOp((address,uint256,bytes,bytes,bytes32,uint256,bytes32,bytes,bytes),bytes32,uint256)":"19822f7c"},"id":1}