{"abi":[{"type":"constructor","inputs":[{"name":"entryPoint_","type":"address","internalType":"contract IEntryPoint"},{"name":"owner_","type":"address","internalType":"address"}],"stateMutability":"nonpayable"},{"type":"receive","stateMutability":"payable"},{"type":"function","name":"entryPoint","inputs":[],"outputs":[{"name":"","type":"address","internalType":"contract IEntryPoint"}],"stateMutability":"view"},{"type":"function","name":"getNonce","inputs":[],"outputs":[{"name":"","type":"uint256","internalType":"uint256"}],"stateMutability":"view"},{"type":"function","name":"owner","inputs":[],"outputs":[{"name":"","type":"address","internalType":"address"}],"stateMutability":"view"},{"type":"function","name":"validateUserOp","inputs":[{"name":"userOp","type":"tuple","internalType":"struct UserOperation","components":[{"name":"sender","type":"address","internalType":"address"},{"name":"nonce","type":"uint256","internalType":"uint256"},{"name":"initCode","type":"bytes","internalType":"bytes"},{"name":"callData","type":"bytes","internalType":"bytes"},{"name":"callGasLimit","type":"uint256","internalType":"uint256"},{"name":"verificationGasLimit","type":"uint256","internalType":"uint256"},{"name":"preVerificationGas","type":"uint256","internalType":"uint256"},{"name":"maxFeePerGas","type":"uint256","internalType":"uint256"},{"name":"maxPriorityFeePerGas","type":"uint256","internalType":"uint256"},{"name":"paymasterAndData","type":"bytes","internalType":"bytes"},{"name":"signature","type":"bytes","internalType":"bytes"}]},{"name":"userOpHash","type":"bytes32","internalType":"bytes32"},{"name":"missingAccountFunds","type":"uint256","internalType":"uint256"}],"outputs":[{"name":"validationData","type":"uint256","internalType":"uint256"}],"stateMutability":"nonpayable"}],"bytecode":{"object":"0x60a03461009b57601f6108d638819003918201601f19168301916001600160401b0383118484101761009f57808492604094855283398101031261009b5780516001600160a01b0391828216820361009b576020015191821680920361009b576080525f80546001600160a01b03191691909117905560405161082290816100b482396080518181816101720152818161021301526102a10152f35b5f80fd5b634e487b7160e01b5f52604160045260245ffdfe6080604052600436101561001a575b3615610018575f80fd5b005b5f3560e01c80633a871cdd146100595780638da5cb5b14610054578063b0d691fe1461004f5763d087d2880361000e57610196565b610128565b6100d8565b346100d4577ffffffffffffffffffffffffffffffffffffffffffffffffffffffffffffffffc6060813601126100d4576004359067ffffffffffffffff82116100d4576101609082360301126100d4576100c06100d0916044359060243590600401610286565b6040519081529081906020820190565b0390f35b5f80fd5b346100d4575f7ffffffffffffffffffffffffffffffffffffffffffffffffffffffffffffffffc3601126100d457602073ffffffffffffffffffffffffffffffffffffffff5f5416604051908152f35b346100d4575f7ffffffffffffffffffffffffffffffffffffffffffffffffffffffffffffffffc3601126100d457602060405173ffffffffffffffffffffffffffffffffffffffff7f0000000000000000000000000000000000000000000000000000000000000000168152f35b346100d4575f7ffffffffffffffffffffffffffffffffffffffffffffffffffffffffffffffffc3601126100d4576040517f35567e1a0000000000000000000000000000000000000000000000000000000081523060048201525f602482015260208160448173ffffffffffffffffffffffffffffffffffffffff7f0000000000000000000000000000000000000000000000000000000000000000165afa8015610281575f9061024d575b604051908152602090f35b506020813d602011610279575b81610267602093836103b8565b810103126100d4576100d09051610242565b3d915061025a565b6103fe565b9092919273ffffffffffffffffffffffffffffffffffffffff7f000000000000000000000000000000000000000000000000000000000000000016330361032d576102d091610443565b91806102d95750565b5f80808093337ffffffffffffffffffffffffffffffffffffffffffffffffffffffffffffffffff1503d1561032b573d61031281610409565b9061032060405192836103b8565b81525f60203d92013e565b565b60646040517f08c379a000000000000000000000000000000000000000000000000000000000815260206004820152601c60248201527f6163636f756e743a206e6f742066726f6d20456e747279506f696e74000000006044820152fd5b7f4e487b71000000000000000000000000000000000000000000000000000000005f52604160045260245ffd5b90601f7fffffffffffffffffffffffffffffffffffffffffffffffffffffffffffffffe0910116810190811067ffffffffffffffff8211176103f957604052565b61038b565b6040513d5f823e3d90fd5b67ffffffffffffffff81116103f957601f017fffffffffffffffffffffffffffffffffffffffffffffffffffffffffffffffe01660200190565b610140810135907fffffffffffffffffffffffffffffffffffffffffffffffffffffffffffffffe1813603018212156100d457019081359167ffffffffffffffff83116100d457602081019183360383136100d4576104a184610409565b916104af60405193846103b8565b84835260208536920101116100d4575f6020856104db966104d7968387013784010152610511565b1590565b6104e3575f90565b600190565b908151915f5b8381106104fe575050015f815290565b80602080928401015181850152016104ee565b60418251146106065760608251146105295750505f90565b60205f6105ed6105b56105e1610553845473ffffffffffffffffffffffffffffffffffffffff1690565b956040519283917fffffffffffffffffffffffffffffffffffffffff0000000000000000000000008960601b1688840190917fffffffffffffffffffffffffffffffffffffffff00000000000000000000000060349316825260148201520190565b037fffffffffffffffffffffffffffffffffffffffffffffffffffffffffffffffe081018352826103b8565b604051918280926104e8565b039060025afa1561028157610603915f51610698565b90565b60208281015160408085015160609586015182519586525f90811a868601529185019290925293830152828052919060809060015afa15610281575f5173ffffffffffffffffffffffffffffffffffffffff6106926106795f5473ffffffffffffffffffffffffffffffffffffffff1690565b73ffffffffffffffffffffffffffffffffffffffff1690565b91161490565b909160608351036107e5576020830151917fffffffffffffffffffffffffffffffffffffffff000000000000000000000000606060408601519501519260601b169060405160205f6107508361071e868886840190917fffffffffffffffffffffffffffffffffffffffff00000000000000000000000060349316825260148201520190565b03936105e17fffffffffffffffffffffffffffffffffffffffffffffffffffffffffffffffe0958681018352826103b8565b039060025afa15610281575f6107b36107a76105e160209484519760405193849189898401906034927fffffffffffffffffffffffffffffffffffffffff0000000000000000000000009183521660208201520190565b039081018352826103b8565b039060025afa15610281575f51931493846107db575b5050826107d557505090565b14919050565b1492505f806107c9565b5050505f9056fea2646970667358221220af47068a4b27ce5b0617927d4091ef1c6fbc5c6d15435f4b4ad0023ccbff7a0b64736f6c63430008180033","linkReferences":{}},"methodIdentifiers":{"entryPoint()":"b0d691fe","getNonce()":"d087d288","owner()":"8da5cb5b","validateUserOp((address,uint256,bytes,bytes,uint256,uint256,uint256,uint256,uint256,bytes,bytes),bytes32,uint256)":"3a871cdd"},"id":5}